
onbike_radar_project.elf:     file format elf32-littlearm

Sections:
Idx Name          Size      VMA       LMA       File off  Algn
  0 .isr_vector   000000c0  08000000  08000000  00010000  2**0
                  CONTENTS, ALLOC, LOAD, READONLY, DATA
  1 .text         0000fbc0  080000c0  080000c0  000100c0  2**2
                  CONTENTS, ALLOC, LOAD, READONLY, CODE
  2 .rodata       0000098c  0800fc80  0800fc80  0001fc80  2**3
                  CONTENTS, ALLOC, LOAD, READONLY, DATA
  3 .ARM.extab    00000000  0801060c  0801060c  00030208  2**0
                  CONTENTS
  4 .ARM          00000008  0801060c  0801060c  0002060c  2**2
                  CONTENTS, ALLOC, LOAD, READONLY, DATA
  5 .preinit_array 00000000  08010614  08010614  00030208  2**0
                  CONTENTS, ALLOC, LOAD, DATA
  6 .init_array   00000004  08010614  08010614  00020614  2**2
                  CONTENTS, ALLOC, LOAD, DATA
  7 .fini_array   00000004  08010618  08010618  00020618  2**2
                  CONTENTS, ALLOC, LOAD, DATA
  8 .data         00000208  20000000  0801061c  00030000  2**2
                  CONTENTS, ALLOC, LOAD, DATA
  9 .bss          00002ce8  20000208  08010824  00030208  2**2
                  ALLOC
 10 ._user_heap_stack 00000600  20002ef0  08010824  00032ef0  2**0
                  ALLOC
 11 .ARM.attributes 00000028  00000000  00000000  00030208  2**0
                  CONTENTS, READONLY
 12 .comment      00000043  00000000  00000000  00030230  2**0
                  CONTENTS, READONLY
 13 .debug_info   00012c91  00000000  00000000  00030273  2**0
                  CONTENTS, READONLY, DEBUGGING, OCTETS
 14 .debug_abbrev 0000349a  00000000  00000000  00042f04  2**0
                  CONTENTS, READONLY, DEBUGGING, OCTETS
 15 .debug_aranges 00000ff8  00000000  00000000  000463a0  2**3
                  CONTENTS, READONLY, DEBUGGING, OCTETS
 16 .debug_rnglists 00000c3a  00000000  00000000  00047398  2**0
                  CONTENTS, READONLY, DEBUGGING, OCTETS
 17 .debug_macro  000058d5  00000000  00000000  00047fd2  2**0
                  CONTENTS, READONLY, DEBUGGING, OCTETS
 18 .debug_line   00018949  00000000  00000000  0004d8a7  2**0
                  CONTENTS, READONLY, DEBUGGING, OCTETS
 19 .debug_str    0008415f  00000000  00000000  000661f0  2**0
                  CONTENTS, READONLY, DEBUGGING, OCTETS
 20 .debug_frame  00004abc  00000000  00000000  000ea350  2**2
                  CONTENTS, READONLY, DEBUGGING, OCTETS
 21 .debug_line_str 00000071  00000000  00000000  000eee0c  2**0
                  CONTENTS, READONLY, DEBUGGING, OCTETS

Disassembly of section .text:

080000c0 <__do_global_dtors_aux>:
 80000c0:	b510      	push	{r4, lr}
 80000c2:	4c06      	ldr	r4, [pc, #24]	; (80000dc <__do_global_dtors_aux+0x1c>)
 80000c4:	7823      	ldrb	r3, [r4, #0]
 80000c6:	2b00      	cmp	r3, #0
 80000c8:	d107      	bne.n	80000da <__do_global_dtors_aux+0x1a>
 80000ca:	4b05      	ldr	r3, [pc, #20]	; (80000e0 <__do_global_dtors_aux+0x20>)
 80000cc:	2b00      	cmp	r3, #0
 80000ce:	d002      	beq.n	80000d6 <__do_global_dtors_aux+0x16>
 80000d0:	4804      	ldr	r0, [pc, #16]	; (80000e4 <__do_global_dtors_aux+0x24>)
 80000d2:	e000      	b.n	80000d6 <__do_global_dtors_aux+0x16>
 80000d4:	bf00      	nop
 80000d6:	2301      	movs	r3, #1
 80000d8:	7023      	strb	r3, [r4, #0]
 80000da:	bd10      	pop	{r4, pc}
 80000dc:	20000208 	.word	0x20000208
 80000e0:	00000000 	.word	0x00000000
 80000e4:	0800fc68 	.word	0x0800fc68

080000e8 <frame_dummy>:
 80000e8:	4b04      	ldr	r3, [pc, #16]	; (80000fc <frame_dummy+0x14>)
 80000ea:	b510      	push	{r4, lr}
 80000ec:	2b00      	cmp	r3, #0
 80000ee:	d003      	beq.n	80000f8 <frame_dummy+0x10>
 80000f0:	4903      	ldr	r1, [pc, #12]	; (8000100 <frame_dummy+0x18>)
 80000f2:	4804      	ldr	r0, [pc, #16]	; (8000104 <frame_dummy+0x1c>)
 80000f4:	e000      	b.n	80000f8 <frame_dummy+0x10>
 80000f6:	bf00      	nop
 80000f8:	bd10      	pop	{r4, pc}
 80000fa:	46c0      	nop			; (mov r8, r8)
 80000fc:	00000000 	.word	0x00000000
 8000100:	2000020c 	.word	0x2000020c
 8000104:	0800fc68 	.word	0x0800fc68

08000108 <strlen>:
 8000108:	2300      	movs	r3, #0
 800010a:	5cc2      	ldrb	r2, [r0, r3]
 800010c:	3301      	adds	r3, #1
 800010e:	2a00      	cmp	r2, #0
 8000110:	d1fb      	bne.n	800010a <strlen+0x2>
 8000112:	1e58      	subs	r0, r3, #1
 8000114:	4770      	bx	lr
	...

08000118 <__gnu_thumb1_case_uqi>:
 8000118:	b402      	push	{r1}
 800011a:	4671      	mov	r1, lr
 800011c:	0849      	lsrs	r1, r1, #1
 800011e:	0049      	lsls	r1, r1, #1
 8000120:	5c09      	ldrb	r1, [r1, r0]
 8000122:	0049      	lsls	r1, r1, #1
 8000124:	448e      	add	lr, r1
 8000126:	bc02      	pop	{r1}
 8000128:	4770      	bx	lr
 800012a:	46c0      	nop			; (mov r8, r8)

0800012c <__gnu_thumb1_case_shi>:
 800012c:	b403      	push	{r0, r1}
 800012e:	4671      	mov	r1, lr
 8000130:	0849      	lsrs	r1, r1, #1
 8000132:	0040      	lsls	r0, r0, #1
 8000134:	0049      	lsls	r1, r1, #1
 8000136:	5e09      	ldrsh	r1, [r1, r0]
 8000138:	0049      	lsls	r1, r1, #1
 800013a:	448e      	add	lr, r1
 800013c:	bc03      	pop	{r0, r1}
 800013e:	4770      	bx	lr

08000140 <__udivsi3>:
 8000140:	2200      	movs	r2, #0
 8000142:	0843      	lsrs	r3, r0, #1
 8000144:	428b      	cmp	r3, r1
 8000146:	d374      	bcc.n	8000232 <__udivsi3+0xf2>
 8000148:	0903      	lsrs	r3, r0, #4
 800014a:	428b      	cmp	r3, r1
 800014c:	d35f      	bcc.n	800020e <__udivsi3+0xce>
 800014e:	0a03      	lsrs	r3, r0, #8
 8000150:	428b      	cmp	r3, r1
 8000152:	d344      	bcc.n	80001de <__udivsi3+0x9e>
 8000154:	0b03      	lsrs	r3, r0, #12
 8000156:	428b      	cmp	r3, r1
 8000158:	d328      	bcc.n	80001ac <__udivsi3+0x6c>
 800015a:	0c03      	lsrs	r3, r0, #16
 800015c:	428b      	cmp	r3, r1
 800015e:	d30d      	bcc.n	800017c <__udivsi3+0x3c>
 8000160:	22ff      	movs	r2, #255	; 0xff
 8000162:	0209      	lsls	r1, r1, #8
 8000164:	ba12      	rev	r2, r2
 8000166:	0c03      	lsrs	r3, r0, #16
 8000168:	428b      	cmp	r3, r1
 800016a:	d302      	bcc.n	8000172 <__udivsi3+0x32>
 800016c:	1212      	asrs	r2, r2, #8
 800016e:	0209      	lsls	r1, r1, #8
 8000170:	d065      	beq.n	800023e <__udivsi3+0xfe>
 8000172:	0b03      	lsrs	r3, r0, #12
 8000174:	428b      	cmp	r3, r1
 8000176:	d319      	bcc.n	80001ac <__udivsi3+0x6c>
 8000178:	e000      	b.n	800017c <__udivsi3+0x3c>
 800017a:	0a09      	lsrs	r1, r1, #8
 800017c:	0bc3      	lsrs	r3, r0, #15
 800017e:	428b      	cmp	r3, r1
 8000180:	d301      	bcc.n	8000186 <__udivsi3+0x46>
 8000182:	03cb      	lsls	r3, r1, #15
 8000184:	1ac0      	subs	r0, r0, r3
 8000186:	4152      	adcs	r2, r2
 8000188:	0b83      	lsrs	r3, r0, #14
 800018a:	428b      	cmp	r3, r1
 800018c:	d301      	bcc.n	8000192 <__udivsi3+0x52>
 800018e:	038b      	lsls	r3, r1, #14
 8000190:	1ac0      	subs	r0, r0, r3
 8000192:	4152      	adcs	r2, r2
 8000194:	0b43      	lsrs	r3, r0, #13
 8000196:	428b      	cmp	r3, r1
 8000198:	d301      	bcc.n	800019e <__udivsi3+0x5e>
 800019a:	034b      	lsls	r3, r1, #13
 800019c:	1ac0      	subs	r0, r0, r3
 800019e:	4152      	adcs	r2, r2
 80001a0:	0b03      	lsrs	r3, r0, #12
 80001a2:	428b      	cmp	r3, r1
 80001a4:	d301      	bcc.n	80001aa <__udivsi3+0x6a>
 80001a6:	030b      	lsls	r3, r1, #12
 80001a8:	1ac0      	subs	r0, r0, r3
 80001aa:	4152      	adcs	r2, r2
 80001ac:	0ac3      	lsrs	r3, r0, #11
 80001ae:	428b      	cmp	r3, r1
 80001b0:	d301      	bcc.n	80001b6 <__udivsi3+0x76>
 80001b2:	02cb      	lsls	r3, r1, #11
 80001b4:	1ac0      	subs	r0, r0, r3
 80001b6:	4152      	adcs	r2, r2
 80001b8:	0a83      	lsrs	r3, r0, #10
 80001ba:	428b      	cmp	r3, r1
 80001bc:	d301      	bcc.n	80001c2 <__udivsi3+0x82>
 80001be:	028b      	lsls	r3, r1, #10
 80001c0:	1ac0      	subs	r0, r0, r3
 80001c2:	4152      	adcs	r2, r2
 80001c4:	0a43      	lsrs	r3, r0, #9
 80001c6:	428b      	cmp	r3, r1
 80001c8:	d301      	bcc.n	80001ce <__udivsi3+0x8e>
 80001ca:	024b      	lsls	r3, r1, #9
 80001cc:	1ac0      	subs	r0, r0, r3
 80001ce:	4152      	adcs	r2, r2
 80001d0:	0a03      	lsrs	r3, r0, #8
 80001d2:	428b      	cmp	r3, r1
 80001d4:	d301      	bcc.n	80001da <__udivsi3+0x9a>
 80001d6:	020b      	lsls	r3, r1, #8
 80001d8:	1ac0      	subs	r0, r0, r3
 80001da:	4152      	adcs	r2, r2
 80001dc:	d2cd      	bcs.n	800017a <__udivsi3+0x3a>
 80001de:	09c3      	lsrs	r3, r0, #7
 80001e0:	428b      	cmp	r3, r1
 80001e2:	d301      	bcc.n	80001e8 <__udivsi3+0xa8>
 80001e4:	01cb      	lsls	r3, r1, #7
 80001e6:	1ac0      	subs	r0, r0, r3
 80001e8:	4152      	adcs	r2, r2
 80001ea:	0983      	lsrs	r3, r0, #6
 80001ec:	428b      	cmp	r3, r1
 80001ee:	d301      	bcc.n	80001f4 <__udivsi3+0xb4>
 80001f0:	018b      	lsls	r3, r1, #6
 80001f2:	1ac0      	subs	r0, r0, r3
 80001f4:	4152      	adcs	r2, r2
 80001f6:	0943      	lsrs	r3, r0, #5
 80001f8:	428b      	cmp	r3, r1
 80001fa:	d301      	bcc.n	8000200 <__udivsi3+0xc0>
 80001fc:	014b      	lsls	r3, r1, #5
 80001fe:	1ac0      	subs	r0, r0, r3
 8000200:	4152      	adcs	r2, r2
 8000202:	0903      	lsrs	r3, r0, #4
 8000204:	428b      	cmp	r3, r1
 8000206:	d301      	bcc.n	800020c <__udivsi3+0xcc>
 8000208:	010b      	lsls	r3, r1, #4
 800020a:	1ac0      	subs	r0, r0, r3
 800020c:	4152      	adcs	r2, r2
 800020e:	08c3      	lsrs	r3, r0, #3
 8000210:	428b      	cmp	r3, r1
 8000212:	d301      	bcc.n	8000218 <__udivsi3+0xd8>
 8000214:	00cb      	lsls	r3, r1, #3
 8000216:	1ac0      	subs	r0, r0, r3
 8000218:	4152      	adcs	r2, r2
 800021a:	0883      	lsrs	r3, r0, #2
 800021c:	428b      	cmp	r3, r1
 800021e:	d301      	bcc.n	8000224 <__udivsi3+0xe4>
 8000220:	008b      	lsls	r3, r1, #2
 8000222:	1ac0      	subs	r0, r0, r3
 8000224:	4152      	adcs	r2, r2
 8000226:	0843      	lsrs	r3, r0, #1
 8000228:	428b      	cmp	r3, r1
 800022a:	d301      	bcc.n	8000230 <__udivsi3+0xf0>
 800022c:	004b      	lsls	r3, r1, #1
 800022e:	1ac0      	subs	r0, r0, r3
 8000230:	4152      	adcs	r2, r2
 8000232:	1a41      	subs	r1, r0, r1
 8000234:	d200      	bcs.n	8000238 <__udivsi3+0xf8>
 8000236:	4601      	mov	r1, r0
 8000238:	4152      	adcs	r2, r2
 800023a:	4610      	mov	r0, r2
 800023c:	4770      	bx	lr
 800023e:	e7ff      	b.n	8000240 <__udivsi3+0x100>
 8000240:	b501      	push	{r0, lr}
 8000242:	2000      	movs	r0, #0
 8000244:	f000 f8f0 	bl	8000428 <__aeabi_idiv0>
 8000248:	bd02      	pop	{r1, pc}
 800024a:	46c0      	nop			; (mov r8, r8)

0800024c <__aeabi_uidivmod>:
 800024c:	2900      	cmp	r1, #0
 800024e:	d0f7      	beq.n	8000240 <__udivsi3+0x100>
 8000250:	e776      	b.n	8000140 <__udivsi3>
 8000252:	4770      	bx	lr

08000254 <__divsi3>:
 8000254:	4603      	mov	r3, r0
 8000256:	430b      	orrs	r3, r1
 8000258:	d47f      	bmi.n	800035a <__divsi3+0x106>
 800025a:	2200      	movs	r2, #0
 800025c:	0843      	lsrs	r3, r0, #1
 800025e:	428b      	cmp	r3, r1
 8000260:	d374      	bcc.n	800034c <__divsi3+0xf8>
 8000262:	0903      	lsrs	r3, r0, #4
 8000264:	428b      	cmp	r3, r1
 8000266:	d35f      	bcc.n	8000328 <__divsi3+0xd4>
 8000268:	0a03      	lsrs	r3, r0, #8
 800026a:	428b      	cmp	r3, r1
 800026c:	d344      	bcc.n	80002f8 <__divsi3+0xa4>
 800026e:	0b03      	lsrs	r3, r0, #12
 8000270:	428b      	cmp	r3, r1
 8000272:	d328      	bcc.n	80002c6 <__divsi3+0x72>
 8000274:	0c03      	lsrs	r3, r0, #16
 8000276:	428b      	cmp	r3, r1
 8000278:	d30d      	bcc.n	8000296 <__divsi3+0x42>
 800027a:	22ff      	movs	r2, #255	; 0xff
 800027c:	0209      	lsls	r1, r1, #8
 800027e:	ba12      	rev	r2, r2
 8000280:	0c03      	lsrs	r3, r0, #16
 8000282:	428b      	cmp	r3, r1
 8000284:	d302      	bcc.n	800028c <__divsi3+0x38>
 8000286:	1212      	asrs	r2, r2, #8
 8000288:	0209      	lsls	r1, r1, #8
 800028a:	d065      	beq.n	8000358 <__divsi3+0x104>
 800028c:	0b03      	lsrs	r3, r0, #12
 800028e:	428b      	cmp	r3, r1
 8000290:	d319      	bcc.n	80002c6 <__divsi3+0x72>
 8000292:	e000      	b.n	8000296 <__divsi3+0x42>
 8000294:	0a09      	lsrs	r1, r1, #8
 8000296:	0bc3      	lsrs	r3, r0, #15
 8000298:	428b      	cmp	r3, r1
 800029a:	d301      	bcc.n	80002a0 <__divsi3+0x4c>
 800029c:	03cb      	lsls	r3, r1, #15
 800029e:	1ac0      	subs	r0, r0, r3
 80002a0:	4152      	adcs	r2, r2
 80002a2:	0b83      	lsrs	r3, r0, #14
 80002a4:	428b      	cmp	r3, r1
 80002a6:	d301      	bcc.n	80002ac <__divsi3+0x58>
 80002a8:	038b      	lsls	r3, r1, #14
 80002aa:	1ac0      	subs	r0, r0, r3
 80002ac:	4152      	adcs	r2, r2
 80002ae:	0b43      	lsrs	r3, r0, #13
 80002b0:	428b      	cmp	r3, r1
 80002b2:	d301      	bcc.n	80002b8 <__divsi3+0x64>
 80002b4:	034b      	lsls	r3, r1, #13
 80002b6:	1ac0      	subs	r0, r0, r3
 80002b8:	4152      	adcs	r2, r2
 80002ba:	0b03      	lsrs	r3, r0, #12
 80002bc:	428b      	cmp	r3, r1
 80002be:	d301      	bcc.n	80002c4 <__divsi3+0x70>
 80002c0:	030b      	lsls	r3, r1, #12
 80002c2:	1ac0      	subs	r0, r0, r3
 80002c4:	4152      	adcs	r2, r2
 80002c6:	0ac3      	lsrs	r3, r0, #11
 80002c8:	428b      	cmp	r3, r1
 80002ca:	d301      	bcc.n	80002d0 <__divsi3+0x7c>
 80002cc:	02cb      	lsls	r3, r1, #11
 80002ce:	1ac0      	subs	r0, r0, r3
 80002d0:	4152      	adcs	r2, r2
 80002d2:	0a83      	lsrs	r3, r0, #10
 80002d4:	428b      	cmp	r3, r1
 80002d6:	d301      	bcc.n	80002dc <__divsi3+0x88>
 80002d8:	028b      	lsls	r3, r1, #10
 80002da:	1ac0      	subs	r0, r0, r3
 80002dc:	4152      	adcs	r2, r2
 80002de:	0a43      	lsrs	r3, r0, #9
 80002e0:	428b      	cmp	r3, r1
 80002e2:	d301      	bcc.n	80002e8 <__divsi3+0x94>
 80002e4:	024b      	lsls	r3, r1, #9
 80002e6:	1ac0      	subs	r0, r0, r3
 80002e8:	4152      	adcs	r2, r2
 80002ea:	0a03      	lsrs	r3, r0, #8
 80002ec:	428b      	cmp	r3, r1
 80002ee:	d301      	bcc.n	80002f4 <__divsi3+0xa0>
 80002f0:	020b      	lsls	r3, r1, #8
 80002f2:	1ac0      	subs	r0, r0, r3
 80002f4:	4152      	adcs	r2, r2
 80002f6:	d2cd      	bcs.n	8000294 <__divsi3+0x40>
 80002f8:	09c3      	lsrs	r3, r0, #7
 80002fa:	428b      	cmp	r3, r1
 80002fc:	d301      	bcc.n	8000302 <__divsi3+0xae>
 80002fe:	01cb      	lsls	r3, r1, #7
 8000300:	1ac0      	subs	r0, r0, r3
 8000302:	4152      	adcs	r2, r2
 8000304:	0983      	lsrs	r3, r0, #6
 8000306:	428b      	cmp	r3, r1
 8000308:	d301      	bcc.n	800030e <__divsi3+0xba>
 800030a:	018b      	lsls	r3, r1, #6
 800030c:	1ac0      	subs	r0, r0, r3
 800030e:	4152      	adcs	r2, r2
 8000310:	0943      	lsrs	r3, r0, #5
 8000312:	428b      	cmp	r3, r1
 8000314:	d301      	bcc.n	800031a <__divsi3+0xc6>
 8000316:	014b      	lsls	r3, r1, #5
 8000318:	1ac0      	subs	r0, r0, r3
 800031a:	4152      	adcs	r2, r2
 800031c:	0903      	lsrs	r3, r0, #4
 800031e:	428b      	cmp	r3, r1
 8000320:	d301      	bcc.n	8000326 <__divsi3+0xd2>
 8000322:	010b      	lsls	r3, r1, #4
 8000324:	1ac0      	subs	r0, r0, r3
 8000326:	4152      	adcs	r2, r2
 8000328:	08c3      	lsrs	r3, r0, #3
 800032a:	428b      	cmp	r3, r1
 800032c:	d301      	bcc.n	8000332 <__divsi3+0xde>
 800032e:	00cb      	lsls	r3, r1, #3
 8000330:	1ac0      	subs	r0, r0, r3
 8000332:	4152      	adcs	r2, r2
 8000334:	0883      	lsrs	r3, r0, #2
 8000336:	428b      	cmp	r3, r1
 8000338:	d301      	bcc.n	800033e <__divsi3+0xea>
 800033a:	008b      	lsls	r3, r1, #2
 800033c:	1ac0      	subs	r0, r0, r3
 800033e:	4152      	adcs	r2, r2
 8000340:	0843      	lsrs	r3, r0, #1
 8000342:	428b      	cmp	r3, r1
 8000344:	d301      	bcc.n	800034a <__divsi3+0xf6>
 8000346:	004b      	lsls	r3, r1, #1
 8000348:	1ac0      	subs	r0, r0, r3
 800034a:	4152      	adcs	r2, r2
 800034c:	1a41      	subs	r1, r0, r1
 800034e:	d200      	bcs.n	8000352 <__divsi3+0xfe>
 8000350:	4601      	mov	r1, r0
 8000352:	4152      	adcs	r2, r2
 8000354:	4610      	mov	r0, r2
 8000356:	4770      	bx	lr
 8000358:	e05d      	b.n	8000416 <__divsi3+0x1c2>
 800035a:	0fca      	lsrs	r2, r1, #31
 800035c:	d000      	beq.n	8000360 <__divsi3+0x10c>
 800035e:	4249      	negs	r1, r1
 8000360:	1003      	asrs	r3, r0, #32
 8000362:	d300      	bcc.n	8000366 <__divsi3+0x112>
 8000364:	4240      	negs	r0, r0
 8000366:	4053      	eors	r3, r2
 8000368:	2200      	movs	r2, #0
 800036a:	469c      	mov	ip, r3
 800036c:	0903      	lsrs	r3, r0, #4
 800036e:	428b      	cmp	r3, r1
 8000370:	d32d      	bcc.n	80003ce <__divsi3+0x17a>
 8000372:	0a03      	lsrs	r3, r0, #8
 8000374:	428b      	cmp	r3, r1
 8000376:	d312      	bcc.n	800039e <__divsi3+0x14a>
 8000378:	22fc      	movs	r2, #252	; 0xfc
 800037a:	0189      	lsls	r1, r1, #6
 800037c:	ba12      	rev	r2, r2
 800037e:	0a03      	lsrs	r3, r0, #8
 8000380:	428b      	cmp	r3, r1
 8000382:	d30c      	bcc.n	800039e <__divsi3+0x14a>
 8000384:	0189      	lsls	r1, r1, #6
 8000386:	1192      	asrs	r2, r2, #6
 8000388:	428b      	cmp	r3, r1
 800038a:	d308      	bcc.n	800039e <__divsi3+0x14a>
 800038c:	0189      	lsls	r1, r1, #6
 800038e:	1192      	asrs	r2, r2, #6
 8000390:	428b      	cmp	r3, r1
 8000392:	d304      	bcc.n	800039e <__divsi3+0x14a>
 8000394:	0189      	lsls	r1, r1, #6
 8000396:	d03a      	beq.n	800040e <__divsi3+0x1ba>
 8000398:	1192      	asrs	r2, r2, #6
 800039a:	e000      	b.n	800039e <__divsi3+0x14a>
 800039c:	0989      	lsrs	r1, r1, #6
 800039e:	09c3      	lsrs	r3, r0, #7
 80003a0:	428b      	cmp	r3, r1
 80003a2:	d301      	bcc.n	80003a8 <__divsi3+0x154>
 80003a4:	01cb      	lsls	r3, r1, #7
 80003a6:	1ac0      	subs	r0, r0, r3
 80003a8:	4152      	adcs	r2, r2
 80003aa:	0983      	lsrs	r3, r0, #6
 80003ac:	428b      	cmp	r3, r1
 80003ae:	d301      	bcc.n	80003b4 <__divsi3+0x160>
 80003b0:	018b      	lsls	r3, r1, #6
 80003b2:	1ac0      	subs	r0, r0, r3
 80003b4:	4152      	adcs	r2, r2
 80003b6:	0943      	lsrs	r3, r0, #5
 80003b8:	428b      	cmp	r3, r1
 80003ba:	d301      	bcc.n	80003c0 <__divsi3+0x16c>
 80003bc:	014b      	lsls	r3, r1, #5
 80003be:	1ac0      	subs	r0, r0, r3
 80003c0:	4152      	adcs	r2, r2
 80003c2:	0903      	lsrs	r3, r0, #4
 80003c4:	428b      	cmp	r3, r1
 80003c6:	d301      	bcc.n	80003cc <__divsi3+0x178>
 80003c8:	010b      	lsls	r3, r1, #4
 80003ca:	1ac0      	subs	r0, r0, r3
 80003cc:	4152      	adcs	r2, r2
 80003ce:	08c3      	lsrs	r3, r0, #3
 80003d0:	428b      	cmp	r3, r1
 80003d2:	d301      	bcc.n	80003d8 <__divsi3+0x184>
 80003d4:	00cb      	lsls	r3, r1, #3
 80003d6:	1ac0      	subs	r0, r0, r3
 80003d8:	4152      	adcs	r2, r2
 80003da:	0883      	lsrs	r3, r0, #2
 80003dc:	428b      	cmp	r3, r1
 80003de:	d301      	bcc.n	80003e4 <__divsi3+0x190>
 80003e0:	008b      	lsls	r3, r1, #2
 80003e2:	1ac0      	subs	r0, r0, r3
 80003e4:	4152      	adcs	r2, r2
 80003e6:	d2d9      	bcs.n	800039c <__divsi3+0x148>
 80003e8:	0843      	lsrs	r3, r0, #1
 80003ea:	428b      	cmp	r3, r1
 80003ec:	d301      	bcc.n	80003f2 <__divsi3+0x19e>
 80003ee:	004b      	lsls	r3, r1, #1
 80003f0:	1ac0      	subs	r0, r0, r3
 80003f2:	4152      	adcs	r2, r2
 80003f4:	1a41      	subs	r1, r0, r1
 80003f6:	d200      	bcs.n	80003fa <__divsi3+0x1a6>
 80003f8:	4601      	mov	r1, r0
 80003fa:	4663      	mov	r3, ip
 80003fc:	4152      	adcs	r2, r2
 80003fe:	105b      	asrs	r3, r3, #1
 8000400:	4610      	mov	r0, r2
 8000402:	d301      	bcc.n	8000408 <__divsi3+0x1b4>
 8000404:	4240      	negs	r0, r0
 8000406:	2b00      	cmp	r3, #0
 8000408:	d500      	bpl.n	800040c <__divsi3+0x1b8>
 800040a:	4249      	negs	r1, r1
 800040c:	4770      	bx	lr
 800040e:	4663      	mov	r3, ip
 8000410:	105b      	asrs	r3, r3, #1
 8000412:	d300      	bcc.n	8000416 <__divsi3+0x1c2>
 8000414:	4240      	negs	r0, r0
 8000416:	b501      	push	{r0, lr}
 8000418:	2000      	movs	r0, #0
 800041a:	f000 f805 	bl	8000428 <__aeabi_idiv0>
 800041e:	bd02      	pop	{r1, pc}

08000420 <__aeabi_idivmod>:
 8000420:	2900      	cmp	r1, #0
 8000422:	d0f8      	beq.n	8000416 <__divsi3+0x1c2>
 8000424:	e716      	b.n	8000254 <__divsi3>
 8000426:	4770      	bx	lr

08000428 <__aeabi_idiv0>:
 8000428:	4770      	bx	lr
 800042a:	46c0      	nop			; (mov r8, r8)

0800042c <__aeabi_cdrcmple>:
 800042c:	4684      	mov	ip, r0
 800042e:	0010      	movs	r0, r2
 8000430:	4662      	mov	r2, ip
 8000432:	468c      	mov	ip, r1
 8000434:	0019      	movs	r1, r3
 8000436:	4663      	mov	r3, ip
 8000438:	e000      	b.n	800043c <__aeabi_cdcmpeq>
 800043a:	46c0      	nop			; (mov r8, r8)

0800043c <__aeabi_cdcmpeq>:
 800043c:	b51f      	push	{r0, r1, r2, r3, r4, lr}
 800043e:	f001 ff5f 	bl	8002300 <__ledf2>
 8000442:	2800      	cmp	r0, #0
 8000444:	d401      	bmi.n	800044a <__aeabi_cdcmpeq+0xe>
 8000446:	2100      	movs	r1, #0
 8000448:	42c8      	cmn	r0, r1
 800044a:	bd1f      	pop	{r0, r1, r2, r3, r4, pc}

0800044c <__aeabi_dcmpeq>:
 800044c:	b510      	push	{r4, lr}
 800044e:	f001 feaf 	bl	80021b0 <__eqdf2>
 8000452:	4240      	negs	r0, r0
 8000454:	3001      	adds	r0, #1
 8000456:	bd10      	pop	{r4, pc}

08000458 <__aeabi_dcmplt>:
 8000458:	b510      	push	{r4, lr}
 800045a:	f001 ff51 	bl	8002300 <__ledf2>
 800045e:	2800      	cmp	r0, #0
 8000460:	db01      	blt.n	8000466 <__aeabi_dcmplt+0xe>
 8000462:	2000      	movs	r0, #0
 8000464:	bd10      	pop	{r4, pc}
 8000466:	2001      	movs	r0, #1
 8000468:	bd10      	pop	{r4, pc}
 800046a:	46c0      	nop			; (mov r8, r8)

0800046c <__aeabi_dcmple>:
 800046c:	b510      	push	{r4, lr}
 800046e:	f001 ff47 	bl	8002300 <__ledf2>
 8000472:	2800      	cmp	r0, #0
 8000474:	dd01      	ble.n	800047a <__aeabi_dcmple+0xe>
 8000476:	2000      	movs	r0, #0
 8000478:	bd10      	pop	{r4, pc}
 800047a:	2001      	movs	r0, #1
 800047c:	bd10      	pop	{r4, pc}
 800047e:	46c0      	nop			; (mov r8, r8)

08000480 <__aeabi_dcmpgt>:
 8000480:	b510      	push	{r4, lr}
 8000482:	f001 fed7 	bl	8002234 <__gedf2>
 8000486:	2800      	cmp	r0, #0
 8000488:	dc01      	bgt.n	800048e <__aeabi_dcmpgt+0xe>
 800048a:	2000      	movs	r0, #0
 800048c:	bd10      	pop	{r4, pc}
 800048e:	2001      	movs	r0, #1
 8000490:	bd10      	pop	{r4, pc}
 8000492:	46c0      	nop			; (mov r8, r8)

08000494 <__aeabi_dcmpge>:
 8000494:	b510      	push	{r4, lr}
 8000496:	f001 fecd 	bl	8002234 <__gedf2>
 800049a:	2800      	cmp	r0, #0
 800049c:	da01      	bge.n	80004a2 <__aeabi_dcmpge+0xe>
 800049e:	2000      	movs	r0, #0
 80004a0:	bd10      	pop	{r4, pc}
 80004a2:	2001      	movs	r0, #1
 80004a4:	bd10      	pop	{r4, pc}
 80004a6:	46c0      	nop			; (mov r8, r8)

080004a8 <__aeabi_cfrcmple>:
 80004a8:	4684      	mov	ip, r0
 80004aa:	0008      	movs	r0, r1
 80004ac:	4661      	mov	r1, ip
 80004ae:	e7ff      	b.n	80004b0 <__aeabi_cfcmpeq>

080004b0 <__aeabi_cfcmpeq>:
 80004b0:	b51f      	push	{r0, r1, r2, r3, r4, lr}
 80004b2:	f000 fc8b 	bl	8000dcc <__lesf2>
 80004b6:	2800      	cmp	r0, #0
 80004b8:	d401      	bmi.n	80004be <__aeabi_cfcmpeq+0xe>
 80004ba:	2100      	movs	r1, #0
 80004bc:	42c8      	cmn	r0, r1
 80004be:	bd1f      	pop	{r0, r1, r2, r3, r4, pc}

080004c0 <__aeabi_fcmpeq>:
 80004c0:	b510      	push	{r4, lr}
 80004c2:	f000 fc17 	bl	8000cf4 <__eqsf2>
 80004c6:	4240      	negs	r0, r0
 80004c8:	3001      	adds	r0, #1
 80004ca:	bd10      	pop	{r4, pc}

080004cc <__aeabi_fcmplt>:
 80004cc:	b510      	push	{r4, lr}
 80004ce:	f000 fc7d 	bl	8000dcc <__lesf2>
 80004d2:	2800      	cmp	r0, #0
 80004d4:	db01      	blt.n	80004da <__aeabi_fcmplt+0xe>
 80004d6:	2000      	movs	r0, #0
 80004d8:	bd10      	pop	{r4, pc}
 80004da:	2001      	movs	r0, #1
 80004dc:	bd10      	pop	{r4, pc}
 80004de:	46c0      	nop			; (mov r8, r8)

080004e0 <__aeabi_fcmple>:
 80004e0:	b510      	push	{r4, lr}
 80004e2:	f000 fc73 	bl	8000dcc <__lesf2>
 80004e6:	2800      	cmp	r0, #0
 80004e8:	dd01      	ble.n	80004ee <__aeabi_fcmple+0xe>
 80004ea:	2000      	movs	r0, #0
 80004ec:	bd10      	pop	{r4, pc}
 80004ee:	2001      	movs	r0, #1
 80004f0:	bd10      	pop	{r4, pc}
 80004f2:	46c0      	nop			; (mov r8, r8)

080004f4 <__aeabi_fcmpgt>:
 80004f4:	b510      	push	{r4, lr}
 80004f6:	f000 fc23 	bl	8000d40 <__gesf2>
 80004fa:	2800      	cmp	r0, #0
 80004fc:	dc01      	bgt.n	8000502 <__aeabi_fcmpgt+0xe>
 80004fe:	2000      	movs	r0, #0
 8000500:	bd10      	pop	{r4, pc}
 8000502:	2001      	movs	r0, #1
 8000504:	bd10      	pop	{r4, pc}
 8000506:	46c0      	nop			; (mov r8, r8)

08000508 <__aeabi_fcmpge>:
 8000508:	b510      	push	{r4, lr}
 800050a:	f000 fc19 	bl	8000d40 <__gesf2>
 800050e:	2800      	cmp	r0, #0
 8000510:	da01      	bge.n	8000516 <__aeabi_fcmpge+0xe>
 8000512:	2000      	movs	r0, #0
 8000514:	bd10      	pop	{r4, pc}
 8000516:	2001      	movs	r0, #1
 8000518:	bd10      	pop	{r4, pc}
 800051a:	46c0      	nop			; (mov r8, r8)

0800051c <__aeabi_uldivmod>:
 800051c:	2b00      	cmp	r3, #0
 800051e:	d111      	bne.n	8000544 <__aeabi_uldivmod+0x28>
 8000520:	2a00      	cmp	r2, #0
 8000522:	d10f      	bne.n	8000544 <__aeabi_uldivmod+0x28>
 8000524:	2900      	cmp	r1, #0
 8000526:	d100      	bne.n	800052a <__aeabi_uldivmod+0xe>
 8000528:	2800      	cmp	r0, #0
 800052a:	d002      	beq.n	8000532 <__aeabi_uldivmod+0x16>
 800052c:	2100      	movs	r1, #0
 800052e:	43c9      	mvns	r1, r1
 8000530:	0008      	movs	r0, r1
 8000532:	b407      	push	{r0, r1, r2}
 8000534:	4802      	ldr	r0, [pc, #8]	; (8000540 <__aeabi_uldivmod+0x24>)
 8000536:	a102      	add	r1, pc, #8	; (adr r1, 8000540 <__aeabi_uldivmod+0x24>)
 8000538:	1840      	adds	r0, r0, r1
 800053a:	9002      	str	r0, [sp, #8]
 800053c:	bd03      	pop	{r0, r1, pc}
 800053e:	46c0      	nop			; (mov r8, r8)
 8000540:	fffffee9 	.word	0xfffffee9
 8000544:	b403      	push	{r0, r1}
 8000546:	4668      	mov	r0, sp
 8000548:	b501      	push	{r0, lr}
 800054a:	9802      	ldr	r0, [sp, #8]
 800054c:	f000 f84c 	bl	80005e8 <__udivmoddi4>
 8000550:	9b01      	ldr	r3, [sp, #4]
 8000552:	469e      	mov	lr, r3
 8000554:	b002      	add	sp, #8
 8000556:	bc0c      	pop	{r2, r3}
 8000558:	4770      	bx	lr
 800055a:	46c0      	nop			; (mov r8, r8)

0800055c <__aeabi_lmul>:
 800055c:	b5f0      	push	{r4, r5, r6, r7, lr}
 800055e:	46ce      	mov	lr, r9
 8000560:	4699      	mov	r9, r3
 8000562:	0c03      	lsrs	r3, r0, #16
 8000564:	469c      	mov	ip, r3
 8000566:	0413      	lsls	r3, r2, #16
 8000568:	4647      	mov	r7, r8
 800056a:	0c1b      	lsrs	r3, r3, #16
 800056c:	001d      	movs	r5, r3
 800056e:	000e      	movs	r6, r1
 8000570:	4661      	mov	r1, ip
 8000572:	0404      	lsls	r4, r0, #16
 8000574:	0c24      	lsrs	r4, r4, #16
 8000576:	b580      	push	{r7, lr}
 8000578:	0007      	movs	r7, r0
 800057a:	0c10      	lsrs	r0, r2, #16
 800057c:	434b      	muls	r3, r1
 800057e:	4365      	muls	r5, r4
 8000580:	4341      	muls	r1, r0
 8000582:	4360      	muls	r0, r4
 8000584:	0c2c      	lsrs	r4, r5, #16
 8000586:	18c0      	adds	r0, r0, r3
 8000588:	1820      	adds	r0, r4, r0
 800058a:	468c      	mov	ip, r1
 800058c:	4283      	cmp	r3, r0
 800058e:	d903      	bls.n	8000598 <__aeabi_lmul+0x3c>
 8000590:	2380      	movs	r3, #128	; 0x80
 8000592:	025b      	lsls	r3, r3, #9
 8000594:	4698      	mov	r8, r3
 8000596:	44c4      	add	ip, r8
 8000598:	4649      	mov	r1, r9
 800059a:	4379      	muls	r1, r7
 800059c:	4356      	muls	r6, r2
 800059e:	0c03      	lsrs	r3, r0, #16
 80005a0:	042d      	lsls	r5, r5, #16
 80005a2:	0c2d      	lsrs	r5, r5, #16
 80005a4:	1989      	adds	r1, r1, r6
 80005a6:	4463      	add	r3, ip
 80005a8:	0400      	lsls	r0, r0, #16
 80005aa:	1940      	adds	r0, r0, r5
 80005ac:	18c9      	adds	r1, r1, r3
 80005ae:	bcc0      	pop	{r6, r7}
 80005b0:	46b9      	mov	r9, r7
 80005b2:	46b0      	mov	r8, r6
 80005b4:	bdf0      	pop	{r4, r5, r6, r7, pc}
 80005b6:	46c0      	nop			; (mov r8, r8)

080005b8 <__aeabi_f2uiz>:
 80005b8:	219e      	movs	r1, #158	; 0x9e
 80005ba:	b510      	push	{r4, lr}
 80005bc:	05c9      	lsls	r1, r1, #23
 80005be:	1c04      	adds	r4, r0, #0
 80005c0:	f7ff ffa2 	bl	8000508 <__aeabi_fcmpge>
 80005c4:	2800      	cmp	r0, #0
 80005c6:	d103      	bne.n	80005d0 <__aeabi_f2uiz+0x18>
 80005c8:	1c20      	adds	r0, r4, #0
 80005ca:	f000 ff31 	bl	8001430 <__aeabi_f2iz>
 80005ce:	bd10      	pop	{r4, pc}
 80005d0:	219e      	movs	r1, #158	; 0x9e
 80005d2:	1c20      	adds	r0, r4, #0
 80005d4:	05c9      	lsls	r1, r1, #23
 80005d6:	f000 fd8b 	bl	80010f0 <__aeabi_fsub>
 80005da:	f000 ff29 	bl	8001430 <__aeabi_f2iz>
 80005de:	2380      	movs	r3, #128	; 0x80
 80005e0:	061b      	lsls	r3, r3, #24
 80005e2:	469c      	mov	ip, r3
 80005e4:	4460      	add	r0, ip
 80005e6:	e7f2      	b.n	80005ce <__aeabi_f2uiz+0x16>

080005e8 <__udivmoddi4>:
 80005e8:	b5f0      	push	{r4, r5, r6, r7, lr}
 80005ea:	4657      	mov	r7, sl
 80005ec:	464e      	mov	r6, r9
 80005ee:	4645      	mov	r5, r8
 80005f0:	46de      	mov	lr, fp
 80005f2:	b5e0      	push	{r5, r6, r7, lr}
 80005f4:	0004      	movs	r4, r0
 80005f6:	000d      	movs	r5, r1
 80005f8:	4692      	mov	sl, r2
 80005fa:	4699      	mov	r9, r3
 80005fc:	b083      	sub	sp, #12
 80005fe:	428b      	cmp	r3, r1
 8000600:	d830      	bhi.n	8000664 <__udivmoddi4+0x7c>
 8000602:	d02d      	beq.n	8000660 <__udivmoddi4+0x78>
 8000604:	4649      	mov	r1, r9
 8000606:	4650      	mov	r0, sl
 8000608:	f002 fdea 	bl	80031e0 <__clzdi2>
 800060c:	0029      	movs	r1, r5
 800060e:	0006      	movs	r6, r0
 8000610:	0020      	movs	r0, r4
 8000612:	f002 fde5 	bl	80031e0 <__clzdi2>
 8000616:	1a33      	subs	r3, r6, r0
 8000618:	4698      	mov	r8, r3
 800061a:	3b20      	subs	r3, #32
 800061c:	d434      	bmi.n	8000688 <__udivmoddi4+0xa0>
 800061e:	469b      	mov	fp, r3
 8000620:	4653      	mov	r3, sl
 8000622:	465a      	mov	r2, fp
 8000624:	4093      	lsls	r3, r2
 8000626:	4642      	mov	r2, r8
 8000628:	001f      	movs	r7, r3
 800062a:	4653      	mov	r3, sl
 800062c:	4093      	lsls	r3, r2
 800062e:	001e      	movs	r6, r3
 8000630:	42af      	cmp	r7, r5
 8000632:	d83b      	bhi.n	80006ac <__udivmoddi4+0xc4>
 8000634:	42af      	cmp	r7, r5
 8000636:	d100      	bne.n	800063a <__udivmoddi4+0x52>
 8000638:	e079      	b.n	800072e <__udivmoddi4+0x146>
 800063a:	465b      	mov	r3, fp
 800063c:	1ba4      	subs	r4, r4, r6
 800063e:	41bd      	sbcs	r5, r7
 8000640:	2b00      	cmp	r3, #0
 8000642:	da00      	bge.n	8000646 <__udivmoddi4+0x5e>
 8000644:	e076      	b.n	8000734 <__udivmoddi4+0x14c>
 8000646:	2200      	movs	r2, #0
 8000648:	2300      	movs	r3, #0
 800064a:	9200      	str	r2, [sp, #0]
 800064c:	9301      	str	r3, [sp, #4]
 800064e:	2301      	movs	r3, #1
 8000650:	465a      	mov	r2, fp
 8000652:	4093      	lsls	r3, r2
 8000654:	9301      	str	r3, [sp, #4]
 8000656:	2301      	movs	r3, #1
 8000658:	4642      	mov	r2, r8
 800065a:	4093      	lsls	r3, r2
 800065c:	9300      	str	r3, [sp, #0]
 800065e:	e029      	b.n	80006b4 <__udivmoddi4+0xcc>
 8000660:	4282      	cmp	r2, r0
 8000662:	d9cf      	bls.n	8000604 <__udivmoddi4+0x1c>
 8000664:	2200      	movs	r2, #0
 8000666:	2300      	movs	r3, #0
 8000668:	9200      	str	r2, [sp, #0]
 800066a:	9301      	str	r3, [sp, #4]
 800066c:	9b0c      	ldr	r3, [sp, #48]	; 0x30
 800066e:	2b00      	cmp	r3, #0
 8000670:	d001      	beq.n	8000676 <__udivmoddi4+0x8e>
 8000672:	601c      	str	r4, [r3, #0]
 8000674:	605d      	str	r5, [r3, #4]
 8000676:	9800      	ldr	r0, [sp, #0]
 8000678:	9901      	ldr	r1, [sp, #4]
 800067a:	b003      	add	sp, #12
 800067c:	bcf0      	pop	{r4, r5, r6, r7}
 800067e:	46bb      	mov	fp, r7
 8000680:	46b2      	mov	sl, r6
 8000682:	46a9      	mov	r9, r5
 8000684:	46a0      	mov	r8, r4
 8000686:	bdf0      	pop	{r4, r5, r6, r7, pc}
 8000688:	4642      	mov	r2, r8
 800068a:	469b      	mov	fp, r3
 800068c:	2320      	movs	r3, #32
 800068e:	1a9b      	subs	r3, r3, r2
 8000690:	4652      	mov	r2, sl
 8000692:	40da      	lsrs	r2, r3
 8000694:	4641      	mov	r1, r8
 8000696:	0013      	movs	r3, r2
 8000698:	464a      	mov	r2, r9
 800069a:	408a      	lsls	r2, r1
 800069c:	0017      	movs	r7, r2
 800069e:	4642      	mov	r2, r8
 80006a0:	431f      	orrs	r7, r3
 80006a2:	4653      	mov	r3, sl
 80006a4:	4093      	lsls	r3, r2
 80006a6:	001e      	movs	r6, r3
 80006a8:	42af      	cmp	r7, r5
 80006aa:	d9c3      	bls.n	8000634 <__udivmoddi4+0x4c>
 80006ac:	2200      	movs	r2, #0
 80006ae:	2300      	movs	r3, #0
 80006b0:	9200      	str	r2, [sp, #0]
 80006b2:	9301      	str	r3, [sp, #4]
 80006b4:	4643      	mov	r3, r8
 80006b6:	2b00      	cmp	r3, #0
 80006b8:	d0d8      	beq.n	800066c <__udivmoddi4+0x84>
 80006ba:	07fb      	lsls	r3, r7, #31
 80006bc:	0872      	lsrs	r2, r6, #1
 80006be:	431a      	orrs	r2, r3
 80006c0:	4646      	mov	r6, r8
 80006c2:	087b      	lsrs	r3, r7, #1
 80006c4:	e00e      	b.n	80006e4 <__udivmoddi4+0xfc>
 80006c6:	42ab      	cmp	r3, r5
 80006c8:	d101      	bne.n	80006ce <__udivmoddi4+0xe6>
 80006ca:	42a2      	cmp	r2, r4
 80006cc:	d80c      	bhi.n	80006e8 <__udivmoddi4+0x100>
 80006ce:	1aa4      	subs	r4, r4, r2
 80006d0:	419d      	sbcs	r5, r3
 80006d2:	2001      	movs	r0, #1
 80006d4:	1924      	adds	r4, r4, r4
 80006d6:	416d      	adcs	r5, r5
 80006d8:	2100      	movs	r1, #0
 80006da:	3e01      	subs	r6, #1
 80006dc:	1824      	adds	r4, r4, r0
 80006de:	414d      	adcs	r5, r1
 80006e0:	2e00      	cmp	r6, #0
 80006e2:	d006      	beq.n	80006f2 <__udivmoddi4+0x10a>
 80006e4:	42ab      	cmp	r3, r5
 80006e6:	d9ee      	bls.n	80006c6 <__udivmoddi4+0xde>
 80006e8:	3e01      	subs	r6, #1
 80006ea:	1924      	adds	r4, r4, r4
 80006ec:	416d      	adcs	r5, r5
 80006ee:	2e00      	cmp	r6, #0
 80006f0:	d1f8      	bne.n	80006e4 <__udivmoddi4+0xfc>
 80006f2:	9800      	ldr	r0, [sp, #0]
 80006f4:	9901      	ldr	r1, [sp, #4]
 80006f6:	465b      	mov	r3, fp
 80006f8:	1900      	adds	r0, r0, r4
 80006fa:	4169      	adcs	r1, r5
 80006fc:	2b00      	cmp	r3, #0
 80006fe:	db24      	blt.n	800074a <__udivmoddi4+0x162>
 8000700:	002b      	movs	r3, r5
 8000702:	465a      	mov	r2, fp
 8000704:	4644      	mov	r4, r8
 8000706:	40d3      	lsrs	r3, r2
 8000708:	002a      	movs	r2, r5
 800070a:	40e2      	lsrs	r2, r4
 800070c:	001c      	movs	r4, r3
 800070e:	465b      	mov	r3, fp
 8000710:	0015      	movs	r5, r2
 8000712:	2b00      	cmp	r3, #0
 8000714:	db2a      	blt.n	800076c <__udivmoddi4+0x184>
 8000716:	0026      	movs	r6, r4
 8000718:	409e      	lsls	r6, r3
 800071a:	0033      	movs	r3, r6
 800071c:	0026      	movs	r6, r4
 800071e:	4647      	mov	r7, r8
 8000720:	40be      	lsls	r6, r7
 8000722:	0032      	movs	r2, r6
 8000724:	1a80      	subs	r0, r0, r2
 8000726:	4199      	sbcs	r1, r3
 8000728:	9000      	str	r0, [sp, #0]
 800072a:	9101      	str	r1, [sp, #4]
 800072c:	e79e      	b.n	800066c <__udivmoddi4+0x84>
 800072e:	42a3      	cmp	r3, r4
 8000730:	d8bc      	bhi.n	80006ac <__udivmoddi4+0xc4>
 8000732:	e782      	b.n	800063a <__udivmoddi4+0x52>
 8000734:	4642      	mov	r2, r8
 8000736:	2320      	movs	r3, #32
 8000738:	2100      	movs	r1, #0
 800073a:	1a9b      	subs	r3, r3, r2
 800073c:	2200      	movs	r2, #0
 800073e:	9100      	str	r1, [sp, #0]
 8000740:	9201      	str	r2, [sp, #4]
 8000742:	2201      	movs	r2, #1
 8000744:	40da      	lsrs	r2, r3
 8000746:	9201      	str	r2, [sp, #4]
 8000748:	e785      	b.n	8000656 <__udivmoddi4+0x6e>
 800074a:	4642      	mov	r2, r8
 800074c:	2320      	movs	r3, #32
 800074e:	1a9b      	subs	r3, r3, r2
 8000750:	002a      	movs	r2, r5
 8000752:	4646      	mov	r6, r8
 8000754:	409a      	lsls	r2, r3
 8000756:	0023      	movs	r3, r4
 8000758:	40f3      	lsrs	r3, r6
 800075a:	4644      	mov	r4, r8
 800075c:	4313      	orrs	r3, r2
 800075e:	002a      	movs	r2, r5
 8000760:	40e2      	lsrs	r2, r4
 8000762:	001c      	movs	r4, r3
 8000764:	465b      	mov	r3, fp
 8000766:	0015      	movs	r5, r2
 8000768:	2b00      	cmp	r3, #0
 800076a:	dad4      	bge.n	8000716 <__udivmoddi4+0x12e>
 800076c:	4642      	mov	r2, r8
 800076e:	002f      	movs	r7, r5
 8000770:	2320      	movs	r3, #32
 8000772:	0026      	movs	r6, r4
 8000774:	4097      	lsls	r7, r2
 8000776:	1a9b      	subs	r3, r3, r2
 8000778:	40de      	lsrs	r6, r3
 800077a:	003b      	movs	r3, r7
 800077c:	4333      	orrs	r3, r6
 800077e:	e7cd      	b.n	800071c <__udivmoddi4+0x134>

08000780 <__aeabi_fadd>:
 8000780:	b5f8      	push	{r3, r4, r5, r6, r7, lr}
 8000782:	4647      	mov	r7, r8
 8000784:	46ce      	mov	lr, r9
 8000786:	024a      	lsls	r2, r1, #9
 8000788:	0243      	lsls	r3, r0, #9
 800078a:	0045      	lsls	r5, r0, #1
 800078c:	0fc4      	lsrs	r4, r0, #31
 800078e:	0a50      	lsrs	r0, r2, #9
 8000790:	4680      	mov	r8, r0
 8000792:	0048      	lsls	r0, r1, #1
 8000794:	0a5b      	lsrs	r3, r3, #9
 8000796:	0e00      	lsrs	r0, r0, #24
 8000798:	0992      	lsrs	r2, r2, #6
 800079a:	4694      	mov	ip, r2
 800079c:	b580      	push	{r7, lr}
 800079e:	001e      	movs	r6, r3
 80007a0:	4681      	mov	r9, r0
 80007a2:	0002      	movs	r2, r0
 80007a4:	0e2d      	lsrs	r5, r5, #24
 80007a6:	00df      	lsls	r7, r3, #3
 80007a8:	0fc9      	lsrs	r1, r1, #31
 80007aa:	428c      	cmp	r4, r1
 80007ac:	d024      	beq.n	80007f8 <__aeabi_fadd+0x78>
 80007ae:	1a28      	subs	r0, r5, r0
 80007b0:	2800      	cmp	r0, #0
 80007b2:	dd0e      	ble.n	80007d2 <__aeabi_fadd+0x52>
 80007b4:	2a00      	cmp	r2, #0
 80007b6:	d13e      	bne.n	8000836 <__aeabi_fadd+0xb6>
 80007b8:	4662      	mov	r2, ip
 80007ba:	2a00      	cmp	r2, #0
 80007bc:	d100      	bne.n	80007c0 <__aeabi_fadd+0x40>
 80007be:	e0fd      	b.n	80009bc <__aeabi_fadd+0x23c>
 80007c0:	1e42      	subs	r2, r0, #1
 80007c2:	2801      	cmp	r0, #1
 80007c4:	d100      	bne.n	80007c8 <__aeabi_fadd+0x48>
 80007c6:	e137      	b.n	8000a38 <__aeabi_fadd+0x2b8>
 80007c8:	28ff      	cmp	r0, #255	; 0xff
 80007ca:	d100      	bne.n	80007ce <__aeabi_fadd+0x4e>
 80007cc:	e0a9      	b.n	8000922 <__aeabi_fadd+0x1a2>
 80007ce:	0010      	movs	r0, r2
 80007d0:	e039      	b.n	8000846 <__aeabi_fadd+0xc6>
 80007d2:	2800      	cmp	r0, #0
 80007d4:	d063      	beq.n	800089e <__aeabi_fadd+0x11e>
 80007d6:	464b      	mov	r3, r9
 80007d8:	1b52      	subs	r2, r2, r5
 80007da:	2d00      	cmp	r5, #0
 80007dc:	d000      	beq.n	80007e0 <__aeabi_fadd+0x60>
 80007de:	e0e0      	b.n	80009a2 <__aeabi_fadd+0x222>
 80007e0:	2f00      	cmp	r7, #0
 80007e2:	d100      	bne.n	80007e6 <__aeabi_fadd+0x66>
 80007e4:	e0ce      	b.n	8000984 <__aeabi_fadd+0x204>
 80007e6:	1e53      	subs	r3, r2, #1
 80007e8:	2a01      	cmp	r2, #1
 80007ea:	d100      	bne.n	80007ee <__aeabi_fadd+0x6e>
 80007ec:	e155      	b.n	8000a9a <__aeabi_fadd+0x31a>
 80007ee:	2aff      	cmp	r2, #255	; 0xff
 80007f0:	d100      	bne.n	80007f4 <__aeabi_fadd+0x74>
 80007f2:	e094      	b.n	800091e <__aeabi_fadd+0x19e>
 80007f4:	001a      	movs	r2, r3
 80007f6:	e0d9      	b.n	80009ac <__aeabi_fadd+0x22c>
 80007f8:	1a2a      	subs	r2, r5, r0
 80007fa:	2a00      	cmp	r2, #0
 80007fc:	dc00      	bgt.n	8000800 <__aeabi_fadd+0x80>
 80007fe:	e099      	b.n	8000934 <__aeabi_fadd+0x1b4>
 8000800:	2800      	cmp	r0, #0
 8000802:	d062      	beq.n	80008ca <__aeabi_fadd+0x14a>
 8000804:	2dff      	cmp	r5, #255	; 0xff
 8000806:	d100      	bne.n	800080a <__aeabi_fadd+0x8a>
 8000808:	e08b      	b.n	8000922 <__aeabi_fadd+0x1a2>
 800080a:	2380      	movs	r3, #128	; 0x80
 800080c:	4661      	mov	r1, ip
 800080e:	04db      	lsls	r3, r3, #19
 8000810:	4319      	orrs	r1, r3
 8000812:	468c      	mov	ip, r1
 8000814:	2a1b      	cmp	r2, #27
 8000816:	dc00      	bgt.n	800081a <__aeabi_fadd+0x9a>
 8000818:	e0d2      	b.n	80009c0 <__aeabi_fadd+0x240>
 800081a:	2301      	movs	r3, #1
 800081c:	19db      	adds	r3, r3, r7
 800081e:	015a      	lsls	r2, r3, #5
 8000820:	d56a      	bpl.n	80008f8 <__aeabi_fadd+0x178>
 8000822:	3501      	adds	r5, #1
 8000824:	2dff      	cmp	r5, #255	; 0xff
 8000826:	d05b      	beq.n	80008e0 <__aeabi_fadd+0x160>
 8000828:	2201      	movs	r2, #1
 800082a:	49a3      	ldr	r1, [pc, #652]	; (8000ab8 <__aeabi_fadd+0x338>)
 800082c:	401a      	ands	r2, r3
 800082e:	085b      	lsrs	r3, r3, #1
 8000830:	400b      	ands	r3, r1
 8000832:	4313      	orrs	r3, r2
 8000834:	e01c      	b.n	8000870 <__aeabi_fadd+0xf0>
 8000836:	2dff      	cmp	r5, #255	; 0xff
 8000838:	d100      	bne.n	800083c <__aeabi_fadd+0xbc>
 800083a:	e072      	b.n	8000922 <__aeabi_fadd+0x1a2>
 800083c:	2380      	movs	r3, #128	; 0x80
 800083e:	4662      	mov	r2, ip
 8000840:	04db      	lsls	r3, r3, #19
 8000842:	431a      	orrs	r2, r3
 8000844:	4694      	mov	ip, r2
 8000846:	281b      	cmp	r0, #27
 8000848:	dc00      	bgt.n	800084c <__aeabi_fadd+0xcc>
 800084a:	e090      	b.n	800096e <__aeabi_fadd+0x1ee>
 800084c:	2301      	movs	r3, #1
 800084e:	1afb      	subs	r3, r7, r3
 8000850:	015a      	lsls	r2, r3, #5
 8000852:	d551      	bpl.n	80008f8 <__aeabi_fadd+0x178>
 8000854:	019b      	lsls	r3, r3, #6
 8000856:	099e      	lsrs	r6, r3, #6
 8000858:	0030      	movs	r0, r6
 800085a:	f002 fca3 	bl	80031a4 <__clzsi2>
 800085e:	0033      	movs	r3, r6
 8000860:	3805      	subs	r0, #5
 8000862:	4083      	lsls	r3, r0
 8000864:	4285      	cmp	r5, r0
 8000866:	dc00      	bgt.n	800086a <__aeabi_fadd+0xea>
 8000868:	e075      	b.n	8000956 <__aeabi_fadd+0x1d6>
 800086a:	4a94      	ldr	r2, [pc, #592]	; (8000abc <__aeabi_fadd+0x33c>)
 800086c:	1a2d      	subs	r5, r5, r0
 800086e:	4013      	ands	r3, r2
 8000870:	075a      	lsls	r2, r3, #29
 8000872:	d004      	beq.n	800087e <__aeabi_fadd+0xfe>
 8000874:	220f      	movs	r2, #15
 8000876:	401a      	ands	r2, r3
 8000878:	2a04      	cmp	r2, #4
 800087a:	d000      	beq.n	800087e <__aeabi_fadd+0xfe>
 800087c:	3304      	adds	r3, #4
 800087e:	015a      	lsls	r2, r3, #5
 8000880:	d53c      	bpl.n	80008fc <__aeabi_fadd+0x17c>
 8000882:	1c68      	adds	r0, r5, #1
 8000884:	2dfe      	cmp	r5, #254	; 0xfe
 8000886:	d02b      	beq.n	80008e0 <__aeabi_fadd+0x160>
 8000888:	019b      	lsls	r3, r3, #6
 800088a:	0a5e      	lsrs	r6, r3, #9
 800088c:	b2c0      	uxtb	r0, r0
 800088e:	05c0      	lsls	r0, r0, #23
 8000890:	4330      	orrs	r0, r6
 8000892:	07e4      	lsls	r4, r4, #31
 8000894:	4320      	orrs	r0, r4
 8000896:	bcc0      	pop	{r6, r7}
 8000898:	46b9      	mov	r9, r7
 800089a:	46b0      	mov	r8, r6
 800089c:	bdf8      	pop	{r3, r4, r5, r6, r7, pc}
 800089e:	20fe      	movs	r0, #254	; 0xfe
 80008a0:	1c6a      	adds	r2, r5, #1
 80008a2:	4210      	tst	r0, r2
 80008a4:	d172      	bne.n	800098c <__aeabi_fadd+0x20c>
 80008a6:	2d00      	cmp	r5, #0
 80008a8:	d000      	beq.n	80008ac <__aeabi_fadd+0x12c>
 80008aa:	e0ae      	b.n	8000a0a <__aeabi_fadd+0x28a>
 80008ac:	2f00      	cmp	r7, #0
 80008ae:	d100      	bne.n	80008b2 <__aeabi_fadd+0x132>
 80008b0:	e0ec      	b.n	8000a8c <__aeabi_fadd+0x30c>
 80008b2:	4663      	mov	r3, ip
 80008b4:	2000      	movs	r0, #0
 80008b6:	2b00      	cmp	r3, #0
 80008b8:	d0e9      	beq.n	800088e <__aeabi_fadd+0x10e>
 80008ba:	1afb      	subs	r3, r7, r3
 80008bc:	015a      	lsls	r2, r3, #5
 80008be:	d400      	bmi.n	80008c2 <__aeabi_fadd+0x142>
 80008c0:	e0f3      	b.n	8000aaa <__aeabi_fadd+0x32a>
 80008c2:	4663      	mov	r3, ip
 80008c4:	000c      	movs	r4, r1
 80008c6:	1bdb      	subs	r3, r3, r7
 80008c8:	e7d2      	b.n	8000870 <__aeabi_fadd+0xf0>
 80008ca:	4661      	mov	r1, ip
 80008cc:	2900      	cmp	r1, #0
 80008ce:	d05b      	beq.n	8000988 <__aeabi_fadd+0x208>
 80008d0:	1e51      	subs	r1, r2, #1
 80008d2:	2a01      	cmp	r2, #1
 80008d4:	d100      	bne.n	80008d8 <__aeabi_fadd+0x158>
 80008d6:	e0a7      	b.n	8000a28 <__aeabi_fadd+0x2a8>
 80008d8:	2aff      	cmp	r2, #255	; 0xff
 80008da:	d022      	beq.n	8000922 <__aeabi_fadd+0x1a2>
 80008dc:	000a      	movs	r2, r1
 80008de:	e799      	b.n	8000814 <__aeabi_fadd+0x94>
 80008e0:	20ff      	movs	r0, #255	; 0xff
 80008e2:	2600      	movs	r6, #0
 80008e4:	e7d3      	b.n	800088e <__aeabi_fadd+0x10e>
 80008e6:	21fe      	movs	r1, #254	; 0xfe
 80008e8:	1c6a      	adds	r2, r5, #1
 80008ea:	4211      	tst	r1, r2
 80008ec:	d073      	beq.n	80009d6 <__aeabi_fadd+0x256>
 80008ee:	2aff      	cmp	r2, #255	; 0xff
 80008f0:	d0f6      	beq.n	80008e0 <__aeabi_fadd+0x160>
 80008f2:	0015      	movs	r5, r2
 80008f4:	4467      	add	r7, ip
 80008f6:	087b      	lsrs	r3, r7, #1
 80008f8:	075a      	lsls	r2, r3, #29
 80008fa:	d1bb      	bne.n	8000874 <__aeabi_fadd+0xf4>
 80008fc:	08db      	lsrs	r3, r3, #3
 80008fe:	2dff      	cmp	r5, #255	; 0xff
 8000900:	d00f      	beq.n	8000922 <__aeabi_fadd+0x1a2>
 8000902:	025b      	lsls	r3, r3, #9
 8000904:	0a5e      	lsrs	r6, r3, #9
 8000906:	b2e8      	uxtb	r0, r5
 8000908:	e7c1      	b.n	800088e <__aeabi_fadd+0x10e>
 800090a:	4662      	mov	r2, ip
 800090c:	2a00      	cmp	r2, #0
 800090e:	d008      	beq.n	8000922 <__aeabi_fadd+0x1a2>
 8000910:	2280      	movs	r2, #128	; 0x80
 8000912:	03d2      	lsls	r2, r2, #15
 8000914:	4213      	tst	r3, r2
 8000916:	d004      	beq.n	8000922 <__aeabi_fadd+0x1a2>
 8000918:	4640      	mov	r0, r8
 800091a:	4210      	tst	r0, r2
 800091c:	d101      	bne.n	8000922 <__aeabi_fadd+0x1a2>
 800091e:	000c      	movs	r4, r1
 8000920:	4643      	mov	r3, r8
 8000922:	2b00      	cmp	r3, #0
 8000924:	d0dc      	beq.n	80008e0 <__aeabi_fadd+0x160>
 8000926:	2680      	movs	r6, #128	; 0x80
 8000928:	03f6      	lsls	r6, r6, #15
 800092a:	431e      	orrs	r6, r3
 800092c:	0276      	lsls	r6, r6, #9
 800092e:	20ff      	movs	r0, #255	; 0xff
 8000930:	0a76      	lsrs	r6, r6, #9
 8000932:	e7ac      	b.n	800088e <__aeabi_fadd+0x10e>
 8000934:	2a00      	cmp	r2, #0
 8000936:	d0d6      	beq.n	80008e6 <__aeabi_fadd+0x166>
 8000938:	1b42      	subs	r2, r0, r5
 800093a:	2d00      	cmp	r5, #0
 800093c:	d05c      	beq.n	80009f8 <__aeabi_fadd+0x278>
 800093e:	28ff      	cmp	r0, #255	; 0xff
 8000940:	d0ee      	beq.n	8000920 <__aeabi_fadd+0x1a0>
 8000942:	2380      	movs	r3, #128	; 0x80
 8000944:	04db      	lsls	r3, r3, #19
 8000946:	431f      	orrs	r7, r3
 8000948:	2a1b      	cmp	r2, #27
 800094a:	dc00      	bgt.n	800094e <__aeabi_fadd+0x1ce>
 800094c:	e082      	b.n	8000a54 <__aeabi_fadd+0x2d4>
 800094e:	2301      	movs	r3, #1
 8000950:	464d      	mov	r5, r9
 8000952:	4463      	add	r3, ip
 8000954:	e763      	b.n	800081e <__aeabi_fadd+0x9e>
 8000956:	2220      	movs	r2, #32
 8000958:	1b40      	subs	r0, r0, r5
 800095a:	3001      	adds	r0, #1
 800095c:	1a12      	subs	r2, r2, r0
 800095e:	0019      	movs	r1, r3
 8000960:	4093      	lsls	r3, r2
 8000962:	40c1      	lsrs	r1, r0
 8000964:	1e5a      	subs	r2, r3, #1
 8000966:	4193      	sbcs	r3, r2
 8000968:	2500      	movs	r5, #0
 800096a:	430b      	orrs	r3, r1
 800096c:	e780      	b.n	8000870 <__aeabi_fadd+0xf0>
 800096e:	2320      	movs	r3, #32
 8000970:	4661      	mov	r1, ip
 8000972:	1a1b      	subs	r3, r3, r0
 8000974:	4099      	lsls	r1, r3
 8000976:	4662      	mov	r2, ip
 8000978:	000b      	movs	r3, r1
 800097a:	40c2      	lsrs	r2, r0
 800097c:	1e59      	subs	r1, r3, #1
 800097e:	418b      	sbcs	r3, r1
 8000980:	4313      	orrs	r3, r2
 8000982:	e764      	b.n	800084e <__aeabi_fadd+0xce>
 8000984:	000c      	movs	r4, r1
 8000986:	4643      	mov	r3, r8
 8000988:	0015      	movs	r5, r2
 800098a:	e7b8      	b.n	80008fe <__aeabi_fadd+0x17e>
 800098c:	4663      	mov	r3, ip
 800098e:	1afe      	subs	r6, r7, r3
 8000990:	0173      	lsls	r3, r6, #5
 8000992:	d445      	bmi.n	8000a20 <__aeabi_fadd+0x2a0>
 8000994:	2e00      	cmp	r6, #0
 8000996:	d000      	beq.n	800099a <__aeabi_fadd+0x21a>
 8000998:	e75e      	b.n	8000858 <__aeabi_fadd+0xd8>
 800099a:	2400      	movs	r4, #0
 800099c:	2000      	movs	r0, #0
 800099e:	2600      	movs	r6, #0
 80009a0:	e775      	b.n	800088e <__aeabi_fadd+0x10e>
 80009a2:	2bff      	cmp	r3, #255	; 0xff
 80009a4:	d0bb      	beq.n	800091e <__aeabi_fadd+0x19e>
 80009a6:	2380      	movs	r3, #128	; 0x80
 80009a8:	04db      	lsls	r3, r3, #19
 80009aa:	431f      	orrs	r7, r3
 80009ac:	2a1b      	cmp	r2, #27
 80009ae:	dd47      	ble.n	8000a40 <__aeabi_fadd+0x2c0>
 80009b0:	2301      	movs	r3, #1
 80009b2:	4662      	mov	r2, ip
 80009b4:	000c      	movs	r4, r1
 80009b6:	464d      	mov	r5, r9
 80009b8:	1ad3      	subs	r3, r2, r3
 80009ba:	e749      	b.n	8000850 <__aeabi_fadd+0xd0>
 80009bc:	0005      	movs	r5, r0
 80009be:	e79e      	b.n	80008fe <__aeabi_fadd+0x17e>
 80009c0:	4661      	mov	r1, ip
 80009c2:	2320      	movs	r3, #32
 80009c4:	40d1      	lsrs	r1, r2
 80009c6:	1a9b      	subs	r3, r3, r2
 80009c8:	4662      	mov	r2, ip
 80009ca:	409a      	lsls	r2, r3
 80009cc:	0013      	movs	r3, r2
 80009ce:	1e5a      	subs	r2, r3, #1
 80009d0:	4193      	sbcs	r3, r2
 80009d2:	430b      	orrs	r3, r1
 80009d4:	e722      	b.n	800081c <__aeabi_fadd+0x9c>
 80009d6:	2d00      	cmp	r5, #0
 80009d8:	d146      	bne.n	8000a68 <__aeabi_fadd+0x2e8>
 80009da:	2f00      	cmp	r7, #0
 80009dc:	d062      	beq.n	8000aa4 <__aeabi_fadd+0x324>
 80009de:	4663      	mov	r3, ip
 80009e0:	2000      	movs	r0, #0
 80009e2:	2b00      	cmp	r3, #0
 80009e4:	d100      	bne.n	80009e8 <__aeabi_fadd+0x268>
 80009e6:	e752      	b.n	800088e <__aeabi_fadd+0x10e>
 80009e8:	003b      	movs	r3, r7
 80009ea:	4463      	add	r3, ip
 80009ec:	015a      	lsls	r2, r3, #5
 80009ee:	d583      	bpl.n	80008f8 <__aeabi_fadd+0x178>
 80009f0:	4a32      	ldr	r2, [pc, #200]	; (8000abc <__aeabi_fadd+0x33c>)
 80009f2:	3501      	adds	r5, #1
 80009f4:	4013      	ands	r3, r2
 80009f6:	e77f      	b.n	80008f8 <__aeabi_fadd+0x178>
 80009f8:	2f00      	cmp	r7, #0
 80009fa:	d0c4      	beq.n	8000986 <__aeabi_fadd+0x206>
 80009fc:	1e53      	subs	r3, r2, #1
 80009fe:	2a01      	cmp	r2, #1
 8000a00:	d012      	beq.n	8000a28 <__aeabi_fadd+0x2a8>
 8000a02:	2aff      	cmp	r2, #255	; 0xff
 8000a04:	d08c      	beq.n	8000920 <__aeabi_fadd+0x1a0>
 8000a06:	001a      	movs	r2, r3
 8000a08:	e79e      	b.n	8000948 <__aeabi_fadd+0x1c8>
 8000a0a:	2f00      	cmp	r7, #0
 8000a0c:	d000      	beq.n	8000a10 <__aeabi_fadd+0x290>
 8000a0e:	e77c      	b.n	800090a <__aeabi_fadd+0x18a>
 8000a10:	4663      	mov	r3, ip
 8000a12:	2b00      	cmp	r3, #0
 8000a14:	d183      	bne.n	800091e <__aeabi_fadd+0x19e>
 8000a16:	2680      	movs	r6, #128	; 0x80
 8000a18:	2400      	movs	r4, #0
 8000a1a:	20ff      	movs	r0, #255	; 0xff
 8000a1c:	03f6      	lsls	r6, r6, #15
 8000a1e:	e736      	b.n	800088e <__aeabi_fadd+0x10e>
 8000a20:	4663      	mov	r3, ip
 8000a22:	000c      	movs	r4, r1
 8000a24:	1bde      	subs	r6, r3, r7
 8000a26:	e717      	b.n	8000858 <__aeabi_fadd+0xd8>
 8000a28:	003b      	movs	r3, r7
 8000a2a:	4463      	add	r3, ip
 8000a2c:	2501      	movs	r5, #1
 8000a2e:	015a      	lsls	r2, r3, #5
 8000a30:	d400      	bmi.n	8000a34 <__aeabi_fadd+0x2b4>
 8000a32:	e761      	b.n	80008f8 <__aeabi_fadd+0x178>
 8000a34:	2502      	movs	r5, #2
 8000a36:	e6f7      	b.n	8000828 <__aeabi_fadd+0xa8>
 8000a38:	4663      	mov	r3, ip
 8000a3a:	2501      	movs	r5, #1
 8000a3c:	1afb      	subs	r3, r7, r3
 8000a3e:	e707      	b.n	8000850 <__aeabi_fadd+0xd0>
 8000a40:	2320      	movs	r3, #32
 8000a42:	1a9b      	subs	r3, r3, r2
 8000a44:	0038      	movs	r0, r7
 8000a46:	409f      	lsls	r7, r3
 8000a48:	003b      	movs	r3, r7
 8000a4a:	40d0      	lsrs	r0, r2
 8000a4c:	1e5a      	subs	r2, r3, #1
 8000a4e:	4193      	sbcs	r3, r2
 8000a50:	4303      	orrs	r3, r0
 8000a52:	e7ae      	b.n	80009b2 <__aeabi_fadd+0x232>
 8000a54:	2320      	movs	r3, #32
 8000a56:	1a9b      	subs	r3, r3, r2
 8000a58:	0039      	movs	r1, r7
 8000a5a:	409f      	lsls	r7, r3
 8000a5c:	003b      	movs	r3, r7
 8000a5e:	40d1      	lsrs	r1, r2
 8000a60:	1e5a      	subs	r2, r3, #1
 8000a62:	4193      	sbcs	r3, r2
 8000a64:	430b      	orrs	r3, r1
 8000a66:	e773      	b.n	8000950 <__aeabi_fadd+0x1d0>
 8000a68:	2f00      	cmp	r7, #0
 8000a6a:	d100      	bne.n	8000a6e <__aeabi_fadd+0x2ee>
 8000a6c:	e758      	b.n	8000920 <__aeabi_fadd+0x1a0>
 8000a6e:	4662      	mov	r2, ip
 8000a70:	2a00      	cmp	r2, #0
 8000a72:	d100      	bne.n	8000a76 <__aeabi_fadd+0x2f6>
 8000a74:	e755      	b.n	8000922 <__aeabi_fadd+0x1a2>
 8000a76:	2280      	movs	r2, #128	; 0x80
 8000a78:	03d2      	lsls	r2, r2, #15
 8000a7a:	4213      	tst	r3, r2
 8000a7c:	d100      	bne.n	8000a80 <__aeabi_fadd+0x300>
 8000a7e:	e750      	b.n	8000922 <__aeabi_fadd+0x1a2>
 8000a80:	4641      	mov	r1, r8
 8000a82:	4211      	tst	r1, r2
 8000a84:	d000      	beq.n	8000a88 <__aeabi_fadd+0x308>
 8000a86:	e74c      	b.n	8000922 <__aeabi_fadd+0x1a2>
 8000a88:	4643      	mov	r3, r8
 8000a8a:	e74a      	b.n	8000922 <__aeabi_fadd+0x1a2>
 8000a8c:	4663      	mov	r3, ip
 8000a8e:	2b00      	cmp	r3, #0
 8000a90:	d083      	beq.n	800099a <__aeabi_fadd+0x21a>
 8000a92:	000c      	movs	r4, r1
 8000a94:	4646      	mov	r6, r8
 8000a96:	2000      	movs	r0, #0
 8000a98:	e6f9      	b.n	800088e <__aeabi_fadd+0x10e>
 8000a9a:	4663      	mov	r3, ip
 8000a9c:	000c      	movs	r4, r1
 8000a9e:	1bdb      	subs	r3, r3, r7
 8000aa0:	3501      	adds	r5, #1
 8000aa2:	e6d5      	b.n	8000850 <__aeabi_fadd+0xd0>
 8000aa4:	4646      	mov	r6, r8
 8000aa6:	2000      	movs	r0, #0
 8000aa8:	e6f1      	b.n	800088e <__aeabi_fadd+0x10e>
 8000aaa:	2b00      	cmp	r3, #0
 8000aac:	d000      	beq.n	8000ab0 <__aeabi_fadd+0x330>
 8000aae:	e723      	b.n	80008f8 <__aeabi_fadd+0x178>
 8000ab0:	2400      	movs	r4, #0
 8000ab2:	2600      	movs	r6, #0
 8000ab4:	e6eb      	b.n	800088e <__aeabi_fadd+0x10e>
 8000ab6:	46c0      	nop			; (mov r8, r8)
 8000ab8:	7dffffff 	.word	0x7dffffff
 8000abc:	fbffffff 	.word	0xfbffffff

08000ac0 <__aeabi_fdiv>:
 8000ac0:	b5f0      	push	{r4, r5, r6, r7, lr}
 8000ac2:	464f      	mov	r7, r9
 8000ac4:	4646      	mov	r6, r8
 8000ac6:	46d6      	mov	lr, sl
 8000ac8:	0245      	lsls	r5, r0, #9
 8000aca:	b5c0      	push	{r6, r7, lr}
 8000acc:	0047      	lsls	r7, r0, #1
 8000ace:	1c0c      	adds	r4, r1, #0
 8000ad0:	0a6d      	lsrs	r5, r5, #9
 8000ad2:	0e3f      	lsrs	r7, r7, #24
 8000ad4:	0fc6      	lsrs	r6, r0, #31
 8000ad6:	2f00      	cmp	r7, #0
 8000ad8:	d100      	bne.n	8000adc <__aeabi_fdiv+0x1c>
 8000ada:	e06f      	b.n	8000bbc <__aeabi_fdiv+0xfc>
 8000adc:	2fff      	cmp	r7, #255	; 0xff
 8000ade:	d100      	bne.n	8000ae2 <__aeabi_fdiv+0x22>
 8000ae0:	e074      	b.n	8000bcc <__aeabi_fdiv+0x10c>
 8000ae2:	2300      	movs	r3, #0
 8000ae4:	2280      	movs	r2, #128	; 0x80
 8000ae6:	4699      	mov	r9, r3
 8000ae8:	469a      	mov	sl, r3
 8000aea:	00ed      	lsls	r5, r5, #3
 8000aec:	04d2      	lsls	r2, r2, #19
 8000aee:	4315      	orrs	r5, r2
 8000af0:	3f7f      	subs	r7, #127	; 0x7f
 8000af2:	0263      	lsls	r3, r4, #9
 8000af4:	0a5b      	lsrs	r3, r3, #9
 8000af6:	4698      	mov	r8, r3
 8000af8:	0063      	lsls	r3, r4, #1
 8000afa:	0e1b      	lsrs	r3, r3, #24
 8000afc:	0fe4      	lsrs	r4, r4, #31
 8000afe:	2b00      	cmp	r3, #0
 8000b00:	d04d      	beq.n	8000b9e <__aeabi_fdiv+0xde>
 8000b02:	2bff      	cmp	r3, #255	; 0xff
 8000b04:	d045      	beq.n	8000b92 <__aeabi_fdiv+0xd2>
 8000b06:	4642      	mov	r2, r8
 8000b08:	2180      	movs	r1, #128	; 0x80
 8000b0a:	00d2      	lsls	r2, r2, #3
 8000b0c:	04c9      	lsls	r1, r1, #19
 8000b0e:	4311      	orrs	r1, r2
 8000b10:	4688      	mov	r8, r1
 8000b12:	2200      	movs	r2, #0
 8000b14:	3b7f      	subs	r3, #127	; 0x7f
 8000b16:	0031      	movs	r1, r6
 8000b18:	1aff      	subs	r7, r7, r3
 8000b1a:	464b      	mov	r3, r9
 8000b1c:	4061      	eors	r1, r4
 8000b1e:	b2c9      	uxtb	r1, r1
 8000b20:	2b0f      	cmp	r3, #15
 8000b22:	d900      	bls.n	8000b26 <__aeabi_fdiv+0x66>
 8000b24:	e0b8      	b.n	8000c98 <__aeabi_fdiv+0x1d8>
 8000b26:	4870      	ldr	r0, [pc, #448]	; (8000ce8 <__aeabi_fdiv+0x228>)
 8000b28:	009b      	lsls	r3, r3, #2
 8000b2a:	58c3      	ldr	r3, [r0, r3]
 8000b2c:	469f      	mov	pc, r3
 8000b2e:	2300      	movs	r3, #0
 8000b30:	4698      	mov	r8, r3
 8000b32:	0026      	movs	r6, r4
 8000b34:	4645      	mov	r5, r8
 8000b36:	4692      	mov	sl, r2
 8000b38:	4653      	mov	r3, sl
 8000b3a:	2b02      	cmp	r3, #2
 8000b3c:	d100      	bne.n	8000b40 <__aeabi_fdiv+0x80>
 8000b3e:	e08d      	b.n	8000c5c <__aeabi_fdiv+0x19c>
 8000b40:	2b03      	cmp	r3, #3
 8000b42:	d100      	bne.n	8000b46 <__aeabi_fdiv+0x86>
 8000b44:	e0a1      	b.n	8000c8a <__aeabi_fdiv+0x1ca>
 8000b46:	2b01      	cmp	r3, #1
 8000b48:	d018      	beq.n	8000b7c <__aeabi_fdiv+0xbc>
 8000b4a:	003b      	movs	r3, r7
 8000b4c:	337f      	adds	r3, #127	; 0x7f
 8000b4e:	2b00      	cmp	r3, #0
 8000b50:	dd6d      	ble.n	8000c2e <__aeabi_fdiv+0x16e>
 8000b52:	076a      	lsls	r2, r5, #29
 8000b54:	d004      	beq.n	8000b60 <__aeabi_fdiv+0xa0>
 8000b56:	220f      	movs	r2, #15
 8000b58:	402a      	ands	r2, r5
 8000b5a:	2a04      	cmp	r2, #4
 8000b5c:	d000      	beq.n	8000b60 <__aeabi_fdiv+0xa0>
 8000b5e:	3504      	adds	r5, #4
 8000b60:	012a      	lsls	r2, r5, #4
 8000b62:	d503      	bpl.n	8000b6c <__aeabi_fdiv+0xac>
 8000b64:	4b61      	ldr	r3, [pc, #388]	; (8000cec <__aeabi_fdiv+0x22c>)
 8000b66:	401d      	ands	r5, r3
 8000b68:	003b      	movs	r3, r7
 8000b6a:	3380      	adds	r3, #128	; 0x80
 8000b6c:	2bfe      	cmp	r3, #254	; 0xfe
 8000b6e:	dd00      	ble.n	8000b72 <__aeabi_fdiv+0xb2>
 8000b70:	e074      	b.n	8000c5c <__aeabi_fdiv+0x19c>
 8000b72:	01aa      	lsls	r2, r5, #6
 8000b74:	0a52      	lsrs	r2, r2, #9
 8000b76:	b2d8      	uxtb	r0, r3
 8000b78:	e002      	b.n	8000b80 <__aeabi_fdiv+0xc0>
 8000b7a:	000e      	movs	r6, r1
 8000b7c:	2000      	movs	r0, #0
 8000b7e:	2200      	movs	r2, #0
 8000b80:	05c0      	lsls	r0, r0, #23
 8000b82:	07f6      	lsls	r6, r6, #31
 8000b84:	4310      	orrs	r0, r2
 8000b86:	4330      	orrs	r0, r6
 8000b88:	bce0      	pop	{r5, r6, r7}
 8000b8a:	46ba      	mov	sl, r7
 8000b8c:	46b1      	mov	r9, r6
 8000b8e:	46a8      	mov	r8, r5
 8000b90:	bdf0      	pop	{r4, r5, r6, r7, pc}
 8000b92:	4643      	mov	r3, r8
 8000b94:	2b00      	cmp	r3, #0
 8000b96:	d13f      	bne.n	8000c18 <__aeabi_fdiv+0x158>
 8000b98:	2202      	movs	r2, #2
 8000b9a:	3fff      	subs	r7, #255	; 0xff
 8000b9c:	e003      	b.n	8000ba6 <__aeabi_fdiv+0xe6>
 8000b9e:	4643      	mov	r3, r8
 8000ba0:	2b00      	cmp	r3, #0
 8000ba2:	d12d      	bne.n	8000c00 <__aeabi_fdiv+0x140>
 8000ba4:	2201      	movs	r2, #1
 8000ba6:	0031      	movs	r1, r6
 8000ba8:	464b      	mov	r3, r9
 8000baa:	4061      	eors	r1, r4
 8000bac:	b2c9      	uxtb	r1, r1
 8000bae:	4313      	orrs	r3, r2
 8000bb0:	2b0f      	cmp	r3, #15
 8000bb2:	d838      	bhi.n	8000c26 <__aeabi_fdiv+0x166>
 8000bb4:	484e      	ldr	r0, [pc, #312]	; (8000cf0 <__aeabi_fdiv+0x230>)
 8000bb6:	009b      	lsls	r3, r3, #2
 8000bb8:	58c3      	ldr	r3, [r0, r3]
 8000bba:	469f      	mov	pc, r3
 8000bbc:	2d00      	cmp	r5, #0
 8000bbe:	d113      	bne.n	8000be8 <__aeabi_fdiv+0x128>
 8000bc0:	2304      	movs	r3, #4
 8000bc2:	4699      	mov	r9, r3
 8000bc4:	3b03      	subs	r3, #3
 8000bc6:	2700      	movs	r7, #0
 8000bc8:	469a      	mov	sl, r3
 8000bca:	e792      	b.n	8000af2 <__aeabi_fdiv+0x32>
 8000bcc:	2d00      	cmp	r5, #0
 8000bce:	d105      	bne.n	8000bdc <__aeabi_fdiv+0x11c>
 8000bd0:	2308      	movs	r3, #8
 8000bd2:	4699      	mov	r9, r3
 8000bd4:	3b06      	subs	r3, #6
 8000bd6:	27ff      	movs	r7, #255	; 0xff
 8000bd8:	469a      	mov	sl, r3
 8000bda:	e78a      	b.n	8000af2 <__aeabi_fdiv+0x32>
 8000bdc:	230c      	movs	r3, #12
 8000bde:	4699      	mov	r9, r3
 8000be0:	3b09      	subs	r3, #9
 8000be2:	27ff      	movs	r7, #255	; 0xff
 8000be4:	469a      	mov	sl, r3
 8000be6:	e784      	b.n	8000af2 <__aeabi_fdiv+0x32>
 8000be8:	0028      	movs	r0, r5
 8000bea:	f002 fadb 	bl	80031a4 <__clzsi2>
 8000bee:	2776      	movs	r7, #118	; 0x76
 8000bf0:	1f43      	subs	r3, r0, #5
 8000bf2:	409d      	lsls	r5, r3
 8000bf4:	2300      	movs	r3, #0
 8000bf6:	427f      	negs	r7, r7
 8000bf8:	4699      	mov	r9, r3
 8000bfa:	469a      	mov	sl, r3
 8000bfc:	1a3f      	subs	r7, r7, r0
 8000bfe:	e778      	b.n	8000af2 <__aeabi_fdiv+0x32>
 8000c00:	4640      	mov	r0, r8
 8000c02:	f002 facf 	bl	80031a4 <__clzsi2>
 8000c06:	4642      	mov	r2, r8
 8000c08:	1f43      	subs	r3, r0, #5
 8000c0a:	409a      	lsls	r2, r3
 8000c0c:	2376      	movs	r3, #118	; 0x76
 8000c0e:	425b      	negs	r3, r3
 8000c10:	4690      	mov	r8, r2
 8000c12:	1a1b      	subs	r3, r3, r0
 8000c14:	2200      	movs	r2, #0
 8000c16:	e77e      	b.n	8000b16 <__aeabi_fdiv+0x56>
 8000c18:	2303      	movs	r3, #3
 8000c1a:	464a      	mov	r2, r9
 8000c1c:	431a      	orrs	r2, r3
 8000c1e:	4691      	mov	r9, r2
 8000c20:	33fc      	adds	r3, #252	; 0xfc
 8000c22:	2203      	movs	r2, #3
 8000c24:	e777      	b.n	8000b16 <__aeabi_fdiv+0x56>
 8000c26:	000e      	movs	r6, r1
 8000c28:	20ff      	movs	r0, #255	; 0xff
 8000c2a:	2200      	movs	r2, #0
 8000c2c:	e7a8      	b.n	8000b80 <__aeabi_fdiv+0xc0>
 8000c2e:	2201      	movs	r2, #1
 8000c30:	1ad3      	subs	r3, r2, r3
 8000c32:	2b1b      	cmp	r3, #27
 8000c34:	dca2      	bgt.n	8000b7c <__aeabi_fdiv+0xbc>
 8000c36:	379e      	adds	r7, #158	; 0x9e
 8000c38:	002a      	movs	r2, r5
 8000c3a:	40bd      	lsls	r5, r7
 8000c3c:	40da      	lsrs	r2, r3
 8000c3e:	1e6b      	subs	r3, r5, #1
 8000c40:	419d      	sbcs	r5, r3
 8000c42:	4315      	orrs	r5, r2
 8000c44:	076a      	lsls	r2, r5, #29
 8000c46:	d004      	beq.n	8000c52 <__aeabi_fdiv+0x192>
 8000c48:	220f      	movs	r2, #15
 8000c4a:	402a      	ands	r2, r5
 8000c4c:	2a04      	cmp	r2, #4
 8000c4e:	d000      	beq.n	8000c52 <__aeabi_fdiv+0x192>
 8000c50:	3504      	adds	r5, #4
 8000c52:	016a      	lsls	r2, r5, #5
 8000c54:	d544      	bpl.n	8000ce0 <__aeabi_fdiv+0x220>
 8000c56:	2001      	movs	r0, #1
 8000c58:	2200      	movs	r2, #0
 8000c5a:	e791      	b.n	8000b80 <__aeabi_fdiv+0xc0>
 8000c5c:	20ff      	movs	r0, #255	; 0xff
 8000c5e:	2200      	movs	r2, #0
 8000c60:	e78e      	b.n	8000b80 <__aeabi_fdiv+0xc0>
 8000c62:	2280      	movs	r2, #128	; 0x80
 8000c64:	2600      	movs	r6, #0
 8000c66:	20ff      	movs	r0, #255	; 0xff
 8000c68:	03d2      	lsls	r2, r2, #15
 8000c6a:	e789      	b.n	8000b80 <__aeabi_fdiv+0xc0>
 8000c6c:	2300      	movs	r3, #0
 8000c6e:	4698      	mov	r8, r3
 8000c70:	2280      	movs	r2, #128	; 0x80
 8000c72:	03d2      	lsls	r2, r2, #15
 8000c74:	4215      	tst	r5, r2
 8000c76:	d008      	beq.n	8000c8a <__aeabi_fdiv+0x1ca>
 8000c78:	4643      	mov	r3, r8
 8000c7a:	4213      	tst	r3, r2
 8000c7c:	d105      	bne.n	8000c8a <__aeabi_fdiv+0x1ca>
 8000c7e:	431a      	orrs	r2, r3
 8000c80:	0252      	lsls	r2, r2, #9
 8000c82:	0026      	movs	r6, r4
 8000c84:	20ff      	movs	r0, #255	; 0xff
 8000c86:	0a52      	lsrs	r2, r2, #9
 8000c88:	e77a      	b.n	8000b80 <__aeabi_fdiv+0xc0>
 8000c8a:	2280      	movs	r2, #128	; 0x80
 8000c8c:	03d2      	lsls	r2, r2, #15
 8000c8e:	432a      	orrs	r2, r5
 8000c90:	0252      	lsls	r2, r2, #9
 8000c92:	20ff      	movs	r0, #255	; 0xff
 8000c94:	0a52      	lsrs	r2, r2, #9
 8000c96:	e773      	b.n	8000b80 <__aeabi_fdiv+0xc0>
 8000c98:	4642      	mov	r2, r8
 8000c9a:	016b      	lsls	r3, r5, #5
 8000c9c:	0155      	lsls	r5, r2, #5
 8000c9e:	42ab      	cmp	r3, r5
 8000ca0:	d21a      	bcs.n	8000cd8 <__aeabi_fdiv+0x218>
 8000ca2:	201b      	movs	r0, #27
 8000ca4:	2200      	movs	r2, #0
 8000ca6:	3f01      	subs	r7, #1
 8000ca8:	2601      	movs	r6, #1
 8000caa:	001c      	movs	r4, r3
 8000cac:	0052      	lsls	r2, r2, #1
 8000cae:	005b      	lsls	r3, r3, #1
 8000cb0:	2c00      	cmp	r4, #0
 8000cb2:	db01      	blt.n	8000cb8 <__aeabi_fdiv+0x1f8>
 8000cb4:	429d      	cmp	r5, r3
 8000cb6:	d801      	bhi.n	8000cbc <__aeabi_fdiv+0x1fc>
 8000cb8:	1b5b      	subs	r3, r3, r5
 8000cba:	4332      	orrs	r2, r6
 8000cbc:	3801      	subs	r0, #1
 8000cbe:	2800      	cmp	r0, #0
 8000cc0:	d1f3      	bne.n	8000caa <__aeabi_fdiv+0x1ea>
 8000cc2:	1e58      	subs	r0, r3, #1
 8000cc4:	4183      	sbcs	r3, r0
 8000cc6:	4313      	orrs	r3, r2
 8000cc8:	001d      	movs	r5, r3
 8000cca:	003b      	movs	r3, r7
 8000ccc:	337f      	adds	r3, #127	; 0x7f
 8000cce:	000e      	movs	r6, r1
 8000cd0:	2b00      	cmp	r3, #0
 8000cd2:	dd00      	ble.n	8000cd6 <__aeabi_fdiv+0x216>
 8000cd4:	e73d      	b.n	8000b52 <__aeabi_fdiv+0x92>
 8000cd6:	e7aa      	b.n	8000c2e <__aeabi_fdiv+0x16e>
 8000cd8:	201a      	movs	r0, #26
 8000cda:	2201      	movs	r2, #1
 8000cdc:	1b5b      	subs	r3, r3, r5
 8000cde:	e7e3      	b.n	8000ca8 <__aeabi_fdiv+0x1e8>
 8000ce0:	01aa      	lsls	r2, r5, #6
 8000ce2:	2000      	movs	r0, #0
 8000ce4:	0a52      	lsrs	r2, r2, #9
 8000ce6:	e74b      	b.n	8000b80 <__aeabi_fdiv+0xc0>
 8000ce8:	0800fcd0 	.word	0x0800fcd0
 8000cec:	f7ffffff 	.word	0xf7ffffff
 8000cf0:	0800fd10 	.word	0x0800fd10

08000cf4 <__eqsf2>:
 8000cf4:	b570      	push	{r4, r5, r6, lr}
 8000cf6:	0042      	lsls	r2, r0, #1
 8000cf8:	0245      	lsls	r5, r0, #9
 8000cfa:	024e      	lsls	r6, r1, #9
 8000cfc:	004c      	lsls	r4, r1, #1
 8000cfe:	0fc3      	lsrs	r3, r0, #31
 8000d00:	0a6d      	lsrs	r5, r5, #9
 8000d02:	2001      	movs	r0, #1
 8000d04:	0e12      	lsrs	r2, r2, #24
 8000d06:	0a76      	lsrs	r6, r6, #9
 8000d08:	0e24      	lsrs	r4, r4, #24
 8000d0a:	0fc9      	lsrs	r1, r1, #31
 8000d0c:	2aff      	cmp	r2, #255	; 0xff
 8000d0e:	d006      	beq.n	8000d1e <__eqsf2+0x2a>
 8000d10:	2cff      	cmp	r4, #255	; 0xff
 8000d12:	d003      	beq.n	8000d1c <__eqsf2+0x28>
 8000d14:	42a2      	cmp	r2, r4
 8000d16:	d101      	bne.n	8000d1c <__eqsf2+0x28>
 8000d18:	42b5      	cmp	r5, r6
 8000d1a:	d006      	beq.n	8000d2a <__eqsf2+0x36>
 8000d1c:	bd70      	pop	{r4, r5, r6, pc}
 8000d1e:	2d00      	cmp	r5, #0
 8000d20:	d1fc      	bne.n	8000d1c <__eqsf2+0x28>
 8000d22:	2cff      	cmp	r4, #255	; 0xff
 8000d24:	d1fa      	bne.n	8000d1c <__eqsf2+0x28>
 8000d26:	2e00      	cmp	r6, #0
 8000d28:	d1f8      	bne.n	8000d1c <__eqsf2+0x28>
 8000d2a:	428b      	cmp	r3, r1
 8000d2c:	d006      	beq.n	8000d3c <__eqsf2+0x48>
 8000d2e:	2001      	movs	r0, #1
 8000d30:	2a00      	cmp	r2, #0
 8000d32:	d1f3      	bne.n	8000d1c <__eqsf2+0x28>
 8000d34:	0028      	movs	r0, r5
 8000d36:	1e43      	subs	r3, r0, #1
 8000d38:	4198      	sbcs	r0, r3
 8000d3a:	e7ef      	b.n	8000d1c <__eqsf2+0x28>
 8000d3c:	2000      	movs	r0, #0
 8000d3e:	e7ed      	b.n	8000d1c <__eqsf2+0x28>

08000d40 <__gesf2>:
 8000d40:	b570      	push	{r4, r5, r6, lr}
 8000d42:	0042      	lsls	r2, r0, #1
 8000d44:	0245      	lsls	r5, r0, #9
 8000d46:	024e      	lsls	r6, r1, #9
 8000d48:	004c      	lsls	r4, r1, #1
 8000d4a:	0fc3      	lsrs	r3, r0, #31
 8000d4c:	0a6d      	lsrs	r5, r5, #9
 8000d4e:	0e12      	lsrs	r2, r2, #24
 8000d50:	0a76      	lsrs	r6, r6, #9
 8000d52:	0e24      	lsrs	r4, r4, #24
 8000d54:	0fc8      	lsrs	r0, r1, #31
 8000d56:	2aff      	cmp	r2, #255	; 0xff
 8000d58:	d01b      	beq.n	8000d92 <__gesf2+0x52>
 8000d5a:	2cff      	cmp	r4, #255	; 0xff
 8000d5c:	d00e      	beq.n	8000d7c <__gesf2+0x3c>
 8000d5e:	2a00      	cmp	r2, #0
 8000d60:	d11b      	bne.n	8000d9a <__gesf2+0x5a>
 8000d62:	2c00      	cmp	r4, #0
 8000d64:	d101      	bne.n	8000d6a <__gesf2+0x2a>
 8000d66:	2e00      	cmp	r6, #0
 8000d68:	d01c      	beq.n	8000da4 <__gesf2+0x64>
 8000d6a:	2d00      	cmp	r5, #0
 8000d6c:	d00c      	beq.n	8000d88 <__gesf2+0x48>
 8000d6e:	4283      	cmp	r3, r0
 8000d70:	d01c      	beq.n	8000dac <__gesf2+0x6c>
 8000d72:	2102      	movs	r1, #2
 8000d74:	1e58      	subs	r0, r3, #1
 8000d76:	4008      	ands	r0, r1
 8000d78:	3801      	subs	r0, #1
 8000d7a:	bd70      	pop	{r4, r5, r6, pc}
 8000d7c:	2e00      	cmp	r6, #0
 8000d7e:	d122      	bne.n	8000dc6 <__gesf2+0x86>
 8000d80:	2a00      	cmp	r2, #0
 8000d82:	d1f4      	bne.n	8000d6e <__gesf2+0x2e>
 8000d84:	2d00      	cmp	r5, #0
 8000d86:	d1f2      	bne.n	8000d6e <__gesf2+0x2e>
 8000d88:	2800      	cmp	r0, #0
 8000d8a:	d1f6      	bne.n	8000d7a <__gesf2+0x3a>
 8000d8c:	2001      	movs	r0, #1
 8000d8e:	4240      	negs	r0, r0
 8000d90:	e7f3      	b.n	8000d7a <__gesf2+0x3a>
 8000d92:	2d00      	cmp	r5, #0
 8000d94:	d117      	bne.n	8000dc6 <__gesf2+0x86>
 8000d96:	2cff      	cmp	r4, #255	; 0xff
 8000d98:	d0f0      	beq.n	8000d7c <__gesf2+0x3c>
 8000d9a:	2c00      	cmp	r4, #0
 8000d9c:	d1e7      	bne.n	8000d6e <__gesf2+0x2e>
 8000d9e:	2e00      	cmp	r6, #0
 8000da0:	d1e5      	bne.n	8000d6e <__gesf2+0x2e>
 8000da2:	e7e6      	b.n	8000d72 <__gesf2+0x32>
 8000da4:	2000      	movs	r0, #0
 8000da6:	2d00      	cmp	r5, #0
 8000da8:	d0e7      	beq.n	8000d7a <__gesf2+0x3a>
 8000daa:	e7e2      	b.n	8000d72 <__gesf2+0x32>
 8000dac:	42a2      	cmp	r2, r4
 8000dae:	dc05      	bgt.n	8000dbc <__gesf2+0x7c>
 8000db0:	dbea      	blt.n	8000d88 <__gesf2+0x48>
 8000db2:	42b5      	cmp	r5, r6
 8000db4:	d802      	bhi.n	8000dbc <__gesf2+0x7c>
 8000db6:	d3e7      	bcc.n	8000d88 <__gesf2+0x48>
 8000db8:	2000      	movs	r0, #0
 8000dba:	e7de      	b.n	8000d7a <__gesf2+0x3a>
 8000dbc:	4243      	negs	r3, r0
 8000dbe:	4158      	adcs	r0, r3
 8000dc0:	0040      	lsls	r0, r0, #1
 8000dc2:	3801      	subs	r0, #1
 8000dc4:	e7d9      	b.n	8000d7a <__gesf2+0x3a>
 8000dc6:	2002      	movs	r0, #2
 8000dc8:	4240      	negs	r0, r0
 8000dca:	e7d6      	b.n	8000d7a <__gesf2+0x3a>

08000dcc <__lesf2>:
 8000dcc:	b570      	push	{r4, r5, r6, lr}
 8000dce:	0042      	lsls	r2, r0, #1
 8000dd0:	0245      	lsls	r5, r0, #9
 8000dd2:	024e      	lsls	r6, r1, #9
 8000dd4:	004c      	lsls	r4, r1, #1
 8000dd6:	0fc3      	lsrs	r3, r0, #31
 8000dd8:	0a6d      	lsrs	r5, r5, #9
 8000dda:	0e12      	lsrs	r2, r2, #24
 8000ddc:	0a76      	lsrs	r6, r6, #9
 8000dde:	0e24      	lsrs	r4, r4, #24
 8000de0:	0fc8      	lsrs	r0, r1, #31
 8000de2:	2aff      	cmp	r2, #255	; 0xff
 8000de4:	d00b      	beq.n	8000dfe <__lesf2+0x32>
 8000de6:	2cff      	cmp	r4, #255	; 0xff
 8000de8:	d00d      	beq.n	8000e06 <__lesf2+0x3a>
 8000dea:	2a00      	cmp	r2, #0
 8000dec:	d11f      	bne.n	8000e2e <__lesf2+0x62>
 8000dee:	2c00      	cmp	r4, #0
 8000df0:	d116      	bne.n	8000e20 <__lesf2+0x54>
 8000df2:	2e00      	cmp	r6, #0
 8000df4:	d114      	bne.n	8000e20 <__lesf2+0x54>
 8000df6:	2000      	movs	r0, #0
 8000df8:	2d00      	cmp	r5, #0
 8000dfa:	d010      	beq.n	8000e1e <__lesf2+0x52>
 8000dfc:	e009      	b.n	8000e12 <__lesf2+0x46>
 8000dfe:	2d00      	cmp	r5, #0
 8000e00:	d10c      	bne.n	8000e1c <__lesf2+0x50>
 8000e02:	2cff      	cmp	r4, #255	; 0xff
 8000e04:	d113      	bne.n	8000e2e <__lesf2+0x62>
 8000e06:	2e00      	cmp	r6, #0
 8000e08:	d108      	bne.n	8000e1c <__lesf2+0x50>
 8000e0a:	2a00      	cmp	r2, #0
 8000e0c:	d008      	beq.n	8000e20 <__lesf2+0x54>
 8000e0e:	4283      	cmp	r3, r0
 8000e10:	d012      	beq.n	8000e38 <__lesf2+0x6c>
 8000e12:	2102      	movs	r1, #2
 8000e14:	1e58      	subs	r0, r3, #1
 8000e16:	4008      	ands	r0, r1
 8000e18:	3801      	subs	r0, #1
 8000e1a:	e000      	b.n	8000e1e <__lesf2+0x52>
 8000e1c:	2002      	movs	r0, #2
 8000e1e:	bd70      	pop	{r4, r5, r6, pc}
 8000e20:	2d00      	cmp	r5, #0
 8000e22:	d1f4      	bne.n	8000e0e <__lesf2+0x42>
 8000e24:	2800      	cmp	r0, #0
 8000e26:	d1fa      	bne.n	8000e1e <__lesf2+0x52>
 8000e28:	2001      	movs	r0, #1
 8000e2a:	4240      	negs	r0, r0
 8000e2c:	e7f7      	b.n	8000e1e <__lesf2+0x52>
 8000e2e:	2c00      	cmp	r4, #0
 8000e30:	d1ed      	bne.n	8000e0e <__lesf2+0x42>
 8000e32:	2e00      	cmp	r6, #0
 8000e34:	d1eb      	bne.n	8000e0e <__lesf2+0x42>
 8000e36:	e7ec      	b.n	8000e12 <__lesf2+0x46>
 8000e38:	42a2      	cmp	r2, r4
 8000e3a:	dc05      	bgt.n	8000e48 <__lesf2+0x7c>
 8000e3c:	dbf2      	blt.n	8000e24 <__lesf2+0x58>
 8000e3e:	42b5      	cmp	r5, r6
 8000e40:	d802      	bhi.n	8000e48 <__lesf2+0x7c>
 8000e42:	d3ef      	bcc.n	8000e24 <__lesf2+0x58>
 8000e44:	2000      	movs	r0, #0
 8000e46:	e7ea      	b.n	8000e1e <__lesf2+0x52>
 8000e48:	4243      	negs	r3, r0
 8000e4a:	4158      	adcs	r0, r3
 8000e4c:	0040      	lsls	r0, r0, #1
 8000e4e:	3801      	subs	r0, #1
 8000e50:	e7e5      	b.n	8000e1e <__lesf2+0x52>
 8000e52:	46c0      	nop			; (mov r8, r8)

08000e54 <__aeabi_fmul>:
 8000e54:	0243      	lsls	r3, r0, #9
 8000e56:	0a5b      	lsrs	r3, r3, #9
 8000e58:	b5f0      	push	{r4, r5, r6, r7, lr}
 8000e5a:	464f      	mov	r7, r9
 8000e5c:	4646      	mov	r6, r8
 8000e5e:	4699      	mov	r9, r3
 8000e60:	46d6      	mov	lr, sl
 8000e62:	0fc3      	lsrs	r3, r0, #31
 8000e64:	0045      	lsls	r5, r0, #1
 8000e66:	4698      	mov	r8, r3
 8000e68:	b5c0      	push	{r6, r7, lr}
 8000e6a:	464b      	mov	r3, r9
 8000e6c:	1c0f      	adds	r7, r1, #0
 8000e6e:	0e2d      	lsrs	r5, r5, #24
 8000e70:	d100      	bne.n	8000e74 <__aeabi_fmul+0x20>
 8000e72:	e0cb      	b.n	800100c <__aeabi_fmul+0x1b8>
 8000e74:	2dff      	cmp	r5, #255	; 0xff
 8000e76:	d100      	bne.n	8000e7a <__aeabi_fmul+0x26>
 8000e78:	e0cf      	b.n	800101a <__aeabi_fmul+0x1c6>
 8000e7a:	2280      	movs	r2, #128	; 0x80
 8000e7c:	00db      	lsls	r3, r3, #3
 8000e7e:	04d2      	lsls	r2, r2, #19
 8000e80:	431a      	orrs	r2, r3
 8000e82:	2300      	movs	r3, #0
 8000e84:	4691      	mov	r9, r2
 8000e86:	2600      	movs	r6, #0
 8000e88:	469a      	mov	sl, r3
 8000e8a:	3d7f      	subs	r5, #127	; 0x7f
 8000e8c:	027c      	lsls	r4, r7, #9
 8000e8e:	007b      	lsls	r3, r7, #1
 8000e90:	0a64      	lsrs	r4, r4, #9
 8000e92:	0e1b      	lsrs	r3, r3, #24
 8000e94:	0fff      	lsrs	r7, r7, #31
 8000e96:	2b00      	cmp	r3, #0
 8000e98:	d100      	bne.n	8000e9c <__aeabi_fmul+0x48>
 8000e9a:	e0a9      	b.n	8000ff0 <__aeabi_fmul+0x19c>
 8000e9c:	2bff      	cmp	r3, #255	; 0xff
 8000e9e:	d011      	beq.n	8000ec4 <__aeabi_fmul+0x70>
 8000ea0:	2280      	movs	r2, #128	; 0x80
 8000ea2:	00e4      	lsls	r4, r4, #3
 8000ea4:	04d2      	lsls	r2, r2, #19
 8000ea6:	4314      	orrs	r4, r2
 8000ea8:	4642      	mov	r2, r8
 8000eaa:	3b7f      	subs	r3, #127	; 0x7f
 8000eac:	195b      	adds	r3, r3, r5
 8000eae:	407a      	eors	r2, r7
 8000eb0:	2000      	movs	r0, #0
 8000eb2:	b2d2      	uxtb	r2, r2
 8000eb4:	1c5d      	adds	r5, r3, #1
 8000eb6:	2e0a      	cmp	r6, #10
 8000eb8:	dd13      	ble.n	8000ee2 <__aeabi_fmul+0x8e>
 8000eba:	003a      	movs	r2, r7
 8000ebc:	2e0b      	cmp	r6, #11
 8000ebe:	d047      	beq.n	8000f50 <__aeabi_fmul+0xfc>
 8000ec0:	4647      	mov	r7, r8
 8000ec2:	e03f      	b.n	8000f44 <__aeabi_fmul+0xf0>
 8000ec4:	002b      	movs	r3, r5
 8000ec6:	33ff      	adds	r3, #255	; 0xff
 8000ec8:	2c00      	cmp	r4, #0
 8000eca:	d11e      	bne.n	8000f0a <__aeabi_fmul+0xb6>
 8000ecc:	2202      	movs	r2, #2
 8000ece:	4316      	orrs	r6, r2
 8000ed0:	4642      	mov	r2, r8
 8000ed2:	3501      	adds	r5, #1
 8000ed4:	407a      	eors	r2, r7
 8000ed6:	b2d2      	uxtb	r2, r2
 8000ed8:	35ff      	adds	r5, #255	; 0xff
 8000eda:	2e0a      	cmp	r6, #10
 8000edc:	dd00      	ble.n	8000ee0 <__aeabi_fmul+0x8c>
 8000ede:	e0e4      	b.n	80010aa <__aeabi_fmul+0x256>
 8000ee0:	2002      	movs	r0, #2
 8000ee2:	2e02      	cmp	r6, #2
 8000ee4:	dc1c      	bgt.n	8000f20 <__aeabi_fmul+0xcc>
 8000ee6:	3e01      	subs	r6, #1
 8000ee8:	2e01      	cmp	r6, #1
 8000eea:	d842      	bhi.n	8000f72 <__aeabi_fmul+0x11e>
 8000eec:	2802      	cmp	r0, #2
 8000eee:	d03d      	beq.n	8000f6c <__aeabi_fmul+0x118>
 8000ef0:	2801      	cmp	r0, #1
 8000ef2:	d166      	bne.n	8000fc2 <__aeabi_fmul+0x16e>
 8000ef4:	2000      	movs	r0, #0
 8000ef6:	2100      	movs	r1, #0
 8000ef8:	05c0      	lsls	r0, r0, #23
 8000efa:	4308      	orrs	r0, r1
 8000efc:	07d2      	lsls	r2, r2, #31
 8000efe:	4310      	orrs	r0, r2
 8000f00:	bce0      	pop	{r5, r6, r7}
 8000f02:	46ba      	mov	sl, r7
 8000f04:	46b1      	mov	r9, r6
 8000f06:	46a8      	mov	r8, r5
 8000f08:	bdf0      	pop	{r4, r5, r6, r7, pc}
 8000f0a:	2203      	movs	r2, #3
 8000f0c:	4316      	orrs	r6, r2
 8000f0e:	4642      	mov	r2, r8
 8000f10:	3501      	adds	r5, #1
 8000f12:	407a      	eors	r2, r7
 8000f14:	b2d2      	uxtb	r2, r2
 8000f16:	35ff      	adds	r5, #255	; 0xff
 8000f18:	2e0a      	cmp	r6, #10
 8000f1a:	dd00      	ble.n	8000f1e <__aeabi_fmul+0xca>
 8000f1c:	e0e4      	b.n	80010e8 <__aeabi_fmul+0x294>
 8000f1e:	2003      	movs	r0, #3
 8000f20:	2101      	movs	r1, #1
 8000f22:	40b1      	lsls	r1, r6
 8000f24:	26a6      	movs	r6, #166	; 0xa6
 8000f26:	00f6      	lsls	r6, r6, #3
 8000f28:	4231      	tst	r1, r6
 8000f2a:	d10a      	bne.n	8000f42 <__aeabi_fmul+0xee>
 8000f2c:	2690      	movs	r6, #144	; 0x90
 8000f2e:	00b6      	lsls	r6, r6, #2
 8000f30:	4231      	tst	r1, r6
 8000f32:	d116      	bne.n	8000f62 <__aeabi_fmul+0x10e>
 8000f34:	3eb9      	subs	r6, #185	; 0xb9
 8000f36:	3eff      	subs	r6, #255	; 0xff
 8000f38:	420e      	tst	r6, r1
 8000f3a:	d01a      	beq.n	8000f72 <__aeabi_fmul+0x11e>
 8000f3c:	46a1      	mov	r9, r4
 8000f3e:	4682      	mov	sl, r0
 8000f40:	e000      	b.n	8000f44 <__aeabi_fmul+0xf0>
 8000f42:	0017      	movs	r7, r2
 8000f44:	4653      	mov	r3, sl
 8000f46:	003a      	movs	r2, r7
 8000f48:	2b02      	cmp	r3, #2
 8000f4a:	d00f      	beq.n	8000f6c <__aeabi_fmul+0x118>
 8000f4c:	464c      	mov	r4, r9
 8000f4e:	4650      	mov	r0, sl
 8000f50:	2803      	cmp	r0, #3
 8000f52:	d1cd      	bne.n	8000ef0 <__aeabi_fmul+0x9c>
 8000f54:	2180      	movs	r1, #128	; 0x80
 8000f56:	03c9      	lsls	r1, r1, #15
 8000f58:	4321      	orrs	r1, r4
 8000f5a:	0249      	lsls	r1, r1, #9
 8000f5c:	20ff      	movs	r0, #255	; 0xff
 8000f5e:	0a49      	lsrs	r1, r1, #9
 8000f60:	e7ca      	b.n	8000ef8 <__aeabi_fmul+0xa4>
 8000f62:	2180      	movs	r1, #128	; 0x80
 8000f64:	2200      	movs	r2, #0
 8000f66:	20ff      	movs	r0, #255	; 0xff
 8000f68:	03c9      	lsls	r1, r1, #15
 8000f6a:	e7c5      	b.n	8000ef8 <__aeabi_fmul+0xa4>
 8000f6c:	20ff      	movs	r0, #255	; 0xff
 8000f6e:	2100      	movs	r1, #0
 8000f70:	e7c2      	b.n	8000ef8 <__aeabi_fmul+0xa4>
 8000f72:	0c20      	lsrs	r0, r4, #16
 8000f74:	4649      	mov	r1, r9
 8000f76:	0424      	lsls	r4, r4, #16
 8000f78:	0c24      	lsrs	r4, r4, #16
 8000f7a:	0027      	movs	r7, r4
 8000f7c:	0c0e      	lsrs	r6, r1, #16
 8000f7e:	0409      	lsls	r1, r1, #16
 8000f80:	0c09      	lsrs	r1, r1, #16
 8000f82:	4374      	muls	r4, r6
 8000f84:	434f      	muls	r7, r1
 8000f86:	4346      	muls	r6, r0
 8000f88:	4348      	muls	r0, r1
 8000f8a:	0c39      	lsrs	r1, r7, #16
 8000f8c:	1900      	adds	r0, r0, r4
 8000f8e:	1809      	adds	r1, r1, r0
 8000f90:	428c      	cmp	r4, r1
 8000f92:	d903      	bls.n	8000f9c <__aeabi_fmul+0x148>
 8000f94:	2080      	movs	r0, #128	; 0x80
 8000f96:	0240      	lsls	r0, r0, #9
 8000f98:	4684      	mov	ip, r0
 8000f9a:	4466      	add	r6, ip
 8000f9c:	043f      	lsls	r7, r7, #16
 8000f9e:	0408      	lsls	r0, r1, #16
 8000fa0:	0c3f      	lsrs	r7, r7, #16
 8000fa2:	19c0      	adds	r0, r0, r7
 8000fa4:	0184      	lsls	r4, r0, #6
 8000fa6:	1e67      	subs	r7, r4, #1
 8000fa8:	41bc      	sbcs	r4, r7
 8000faa:	0c09      	lsrs	r1, r1, #16
 8000fac:	0e80      	lsrs	r0, r0, #26
 8000fae:	1989      	adds	r1, r1, r6
 8000fb0:	4304      	orrs	r4, r0
 8000fb2:	0189      	lsls	r1, r1, #6
 8000fb4:	430c      	orrs	r4, r1
 8000fb6:	0109      	lsls	r1, r1, #4
 8000fb8:	d571      	bpl.n	800109e <__aeabi_fmul+0x24a>
 8000fba:	2301      	movs	r3, #1
 8000fbc:	0861      	lsrs	r1, r4, #1
 8000fbe:	401c      	ands	r4, r3
 8000fc0:	430c      	orrs	r4, r1
 8000fc2:	002b      	movs	r3, r5
 8000fc4:	337f      	adds	r3, #127	; 0x7f
 8000fc6:	2b00      	cmp	r3, #0
 8000fc8:	dd51      	ble.n	800106e <__aeabi_fmul+0x21a>
 8000fca:	0761      	lsls	r1, r4, #29
 8000fcc:	d004      	beq.n	8000fd8 <__aeabi_fmul+0x184>
 8000fce:	210f      	movs	r1, #15
 8000fd0:	4021      	ands	r1, r4
 8000fd2:	2904      	cmp	r1, #4
 8000fd4:	d000      	beq.n	8000fd8 <__aeabi_fmul+0x184>
 8000fd6:	3404      	adds	r4, #4
 8000fd8:	0121      	lsls	r1, r4, #4
 8000fda:	d503      	bpl.n	8000fe4 <__aeabi_fmul+0x190>
 8000fdc:	4b43      	ldr	r3, [pc, #268]	; (80010ec <__aeabi_fmul+0x298>)
 8000fde:	401c      	ands	r4, r3
 8000fe0:	002b      	movs	r3, r5
 8000fe2:	3380      	adds	r3, #128	; 0x80
 8000fe4:	2bfe      	cmp	r3, #254	; 0xfe
 8000fe6:	dcc1      	bgt.n	8000f6c <__aeabi_fmul+0x118>
 8000fe8:	01a1      	lsls	r1, r4, #6
 8000fea:	0a49      	lsrs	r1, r1, #9
 8000fec:	b2d8      	uxtb	r0, r3
 8000fee:	e783      	b.n	8000ef8 <__aeabi_fmul+0xa4>
 8000ff0:	2c00      	cmp	r4, #0
 8000ff2:	d12c      	bne.n	800104e <__aeabi_fmul+0x1fa>
 8000ff4:	2301      	movs	r3, #1
 8000ff6:	4642      	mov	r2, r8
 8000ff8:	431e      	orrs	r6, r3
 8000ffa:	002b      	movs	r3, r5
 8000ffc:	407a      	eors	r2, r7
 8000ffe:	2001      	movs	r0, #1
 8001000:	b2d2      	uxtb	r2, r2
 8001002:	1c5d      	adds	r5, r3, #1
 8001004:	2e0a      	cmp	r6, #10
 8001006:	dd00      	ble.n	800100a <__aeabi_fmul+0x1b6>
 8001008:	e757      	b.n	8000eba <__aeabi_fmul+0x66>
 800100a:	e76a      	b.n	8000ee2 <__aeabi_fmul+0x8e>
 800100c:	2b00      	cmp	r3, #0
 800100e:	d110      	bne.n	8001032 <__aeabi_fmul+0x1de>
 8001010:	2301      	movs	r3, #1
 8001012:	2604      	movs	r6, #4
 8001014:	2500      	movs	r5, #0
 8001016:	469a      	mov	sl, r3
 8001018:	e738      	b.n	8000e8c <__aeabi_fmul+0x38>
 800101a:	2b00      	cmp	r3, #0
 800101c:	d104      	bne.n	8001028 <__aeabi_fmul+0x1d4>
 800101e:	2302      	movs	r3, #2
 8001020:	2608      	movs	r6, #8
 8001022:	25ff      	movs	r5, #255	; 0xff
 8001024:	469a      	mov	sl, r3
 8001026:	e731      	b.n	8000e8c <__aeabi_fmul+0x38>
 8001028:	2303      	movs	r3, #3
 800102a:	260c      	movs	r6, #12
 800102c:	25ff      	movs	r5, #255	; 0xff
 800102e:	469a      	mov	sl, r3
 8001030:	e72c      	b.n	8000e8c <__aeabi_fmul+0x38>
 8001032:	4648      	mov	r0, r9
 8001034:	f002 f8b6 	bl	80031a4 <__clzsi2>
 8001038:	464a      	mov	r2, r9
 800103a:	1f43      	subs	r3, r0, #5
 800103c:	2576      	movs	r5, #118	; 0x76
 800103e:	409a      	lsls	r2, r3
 8001040:	2300      	movs	r3, #0
 8001042:	426d      	negs	r5, r5
 8001044:	4691      	mov	r9, r2
 8001046:	2600      	movs	r6, #0
 8001048:	469a      	mov	sl, r3
 800104a:	1a2d      	subs	r5, r5, r0
 800104c:	e71e      	b.n	8000e8c <__aeabi_fmul+0x38>
 800104e:	0020      	movs	r0, r4
 8001050:	f002 f8a8 	bl	80031a4 <__clzsi2>
 8001054:	4642      	mov	r2, r8
 8001056:	1f43      	subs	r3, r0, #5
 8001058:	409c      	lsls	r4, r3
 800105a:	1a2b      	subs	r3, r5, r0
 800105c:	3b76      	subs	r3, #118	; 0x76
 800105e:	407a      	eors	r2, r7
 8001060:	2000      	movs	r0, #0
 8001062:	b2d2      	uxtb	r2, r2
 8001064:	1c5d      	adds	r5, r3, #1
 8001066:	2e0a      	cmp	r6, #10
 8001068:	dd00      	ble.n	800106c <__aeabi_fmul+0x218>
 800106a:	e726      	b.n	8000eba <__aeabi_fmul+0x66>
 800106c:	e739      	b.n	8000ee2 <__aeabi_fmul+0x8e>
 800106e:	2101      	movs	r1, #1
 8001070:	1acb      	subs	r3, r1, r3
 8001072:	2b1b      	cmp	r3, #27
 8001074:	dd00      	ble.n	8001078 <__aeabi_fmul+0x224>
 8001076:	e73d      	b.n	8000ef4 <__aeabi_fmul+0xa0>
 8001078:	359e      	adds	r5, #158	; 0x9e
 800107a:	0021      	movs	r1, r4
 800107c:	40ac      	lsls	r4, r5
 800107e:	40d9      	lsrs	r1, r3
 8001080:	1e63      	subs	r3, r4, #1
 8001082:	419c      	sbcs	r4, r3
 8001084:	4321      	orrs	r1, r4
 8001086:	074b      	lsls	r3, r1, #29
 8001088:	d004      	beq.n	8001094 <__aeabi_fmul+0x240>
 800108a:	230f      	movs	r3, #15
 800108c:	400b      	ands	r3, r1
 800108e:	2b04      	cmp	r3, #4
 8001090:	d000      	beq.n	8001094 <__aeabi_fmul+0x240>
 8001092:	3104      	adds	r1, #4
 8001094:	014b      	lsls	r3, r1, #5
 8001096:	d504      	bpl.n	80010a2 <__aeabi_fmul+0x24e>
 8001098:	2001      	movs	r0, #1
 800109a:	2100      	movs	r1, #0
 800109c:	e72c      	b.n	8000ef8 <__aeabi_fmul+0xa4>
 800109e:	001d      	movs	r5, r3
 80010a0:	e78f      	b.n	8000fc2 <__aeabi_fmul+0x16e>
 80010a2:	0189      	lsls	r1, r1, #6
 80010a4:	2000      	movs	r0, #0
 80010a6:	0a49      	lsrs	r1, r1, #9
 80010a8:	e726      	b.n	8000ef8 <__aeabi_fmul+0xa4>
 80010aa:	2302      	movs	r3, #2
 80010ac:	2e0f      	cmp	r6, #15
 80010ae:	d10c      	bne.n	80010ca <__aeabi_fmul+0x276>
 80010b0:	2180      	movs	r1, #128	; 0x80
 80010b2:	464b      	mov	r3, r9
 80010b4:	03c9      	lsls	r1, r1, #15
 80010b6:	420b      	tst	r3, r1
 80010b8:	d00d      	beq.n	80010d6 <__aeabi_fmul+0x282>
 80010ba:	420c      	tst	r4, r1
 80010bc:	d10b      	bne.n	80010d6 <__aeabi_fmul+0x282>
 80010be:	4321      	orrs	r1, r4
 80010c0:	0249      	lsls	r1, r1, #9
 80010c2:	003a      	movs	r2, r7
 80010c4:	20ff      	movs	r0, #255	; 0xff
 80010c6:	0a49      	lsrs	r1, r1, #9
 80010c8:	e716      	b.n	8000ef8 <__aeabi_fmul+0xa4>
 80010ca:	2e0b      	cmp	r6, #11
 80010cc:	d000      	beq.n	80010d0 <__aeabi_fmul+0x27c>
 80010ce:	e6f7      	b.n	8000ec0 <__aeabi_fmul+0x6c>
 80010d0:	46a1      	mov	r9, r4
 80010d2:	469a      	mov	sl, r3
 80010d4:	e736      	b.n	8000f44 <__aeabi_fmul+0xf0>
 80010d6:	2180      	movs	r1, #128	; 0x80
 80010d8:	464b      	mov	r3, r9
 80010da:	03c9      	lsls	r1, r1, #15
 80010dc:	4319      	orrs	r1, r3
 80010de:	0249      	lsls	r1, r1, #9
 80010e0:	4642      	mov	r2, r8
 80010e2:	20ff      	movs	r0, #255	; 0xff
 80010e4:	0a49      	lsrs	r1, r1, #9
 80010e6:	e707      	b.n	8000ef8 <__aeabi_fmul+0xa4>
 80010e8:	2303      	movs	r3, #3
 80010ea:	e7df      	b.n	80010ac <__aeabi_fmul+0x258>
 80010ec:	f7ffffff 	.word	0xf7ffffff

080010f0 <__aeabi_fsub>:
 80010f0:	b5f0      	push	{r4, r5, r6, r7, lr}
 80010f2:	46c6      	mov	lr, r8
 80010f4:	0243      	lsls	r3, r0, #9
 80010f6:	0a5b      	lsrs	r3, r3, #9
 80010f8:	0045      	lsls	r5, r0, #1
 80010fa:	00da      	lsls	r2, r3, #3
 80010fc:	0fc4      	lsrs	r4, r0, #31
 80010fe:	0248      	lsls	r0, r1, #9
 8001100:	004f      	lsls	r7, r1, #1
 8001102:	4694      	mov	ip, r2
 8001104:	0a42      	lsrs	r2, r0, #9
 8001106:	001e      	movs	r6, r3
 8001108:	4690      	mov	r8, r2
 800110a:	b500      	push	{lr}
 800110c:	0e2d      	lsrs	r5, r5, #24
 800110e:	0e3f      	lsrs	r7, r7, #24
 8001110:	0fc9      	lsrs	r1, r1, #31
 8001112:	0980      	lsrs	r0, r0, #6
 8001114:	2fff      	cmp	r7, #255	; 0xff
 8001116:	d059      	beq.n	80011cc <__aeabi_fsub+0xdc>
 8001118:	2201      	movs	r2, #1
 800111a:	4051      	eors	r1, r2
 800111c:	428c      	cmp	r4, r1
 800111e:	d039      	beq.n	8001194 <__aeabi_fsub+0xa4>
 8001120:	1bea      	subs	r2, r5, r7
 8001122:	2a00      	cmp	r2, #0
 8001124:	dd58      	ble.n	80011d8 <__aeabi_fsub+0xe8>
 8001126:	2f00      	cmp	r7, #0
 8001128:	d068      	beq.n	80011fc <__aeabi_fsub+0x10c>
 800112a:	2dff      	cmp	r5, #255	; 0xff
 800112c:	d100      	bne.n	8001130 <__aeabi_fsub+0x40>
 800112e:	e0d1      	b.n	80012d4 <__aeabi_fsub+0x1e4>
 8001130:	2380      	movs	r3, #128	; 0x80
 8001132:	04db      	lsls	r3, r3, #19
 8001134:	4318      	orrs	r0, r3
 8001136:	2a1b      	cmp	r2, #27
 8001138:	dc00      	bgt.n	800113c <__aeabi_fsub+0x4c>
 800113a:	e0e3      	b.n	8001304 <__aeabi_fsub+0x214>
 800113c:	2301      	movs	r3, #1
 800113e:	4662      	mov	r2, ip
 8001140:	1ad3      	subs	r3, r2, r3
 8001142:	015a      	lsls	r2, r3, #5
 8001144:	d400      	bmi.n	8001148 <__aeabi_fsub+0x58>
 8001146:	e0ac      	b.n	80012a2 <__aeabi_fsub+0x1b2>
 8001148:	019b      	lsls	r3, r3, #6
 800114a:	099e      	lsrs	r6, r3, #6
 800114c:	0030      	movs	r0, r6
 800114e:	f002 f829 	bl	80031a4 <__clzsi2>
 8001152:	0033      	movs	r3, r6
 8001154:	3805      	subs	r0, #5
 8001156:	4083      	lsls	r3, r0
 8001158:	4285      	cmp	r5, r0
 800115a:	dc00      	bgt.n	800115e <__aeabi_fsub+0x6e>
 800115c:	e0c6      	b.n	80012ec <__aeabi_fsub+0x1fc>
 800115e:	4ab2      	ldr	r2, [pc, #712]	; (8001428 <__aeabi_fsub+0x338>)
 8001160:	1a2d      	subs	r5, r5, r0
 8001162:	4013      	ands	r3, r2
 8001164:	075a      	lsls	r2, r3, #29
 8001166:	d004      	beq.n	8001172 <__aeabi_fsub+0x82>
 8001168:	220f      	movs	r2, #15
 800116a:	401a      	ands	r2, r3
 800116c:	2a04      	cmp	r2, #4
 800116e:	d000      	beq.n	8001172 <__aeabi_fsub+0x82>
 8001170:	3304      	adds	r3, #4
 8001172:	015a      	lsls	r2, r3, #5
 8001174:	d400      	bmi.n	8001178 <__aeabi_fsub+0x88>
 8001176:	e097      	b.n	80012a8 <__aeabi_fsub+0x1b8>
 8001178:	1c6a      	adds	r2, r5, #1
 800117a:	2dfe      	cmp	r5, #254	; 0xfe
 800117c:	d100      	bne.n	8001180 <__aeabi_fsub+0x90>
 800117e:	e084      	b.n	800128a <__aeabi_fsub+0x19a>
 8001180:	019b      	lsls	r3, r3, #6
 8001182:	0a5e      	lsrs	r6, r3, #9
 8001184:	b2d2      	uxtb	r2, r2
 8001186:	05d0      	lsls	r0, r2, #23
 8001188:	4330      	orrs	r0, r6
 800118a:	07e4      	lsls	r4, r4, #31
 800118c:	4320      	orrs	r0, r4
 800118e:	bc80      	pop	{r7}
 8001190:	46b8      	mov	r8, r7
 8001192:	bdf0      	pop	{r4, r5, r6, r7, pc}
 8001194:	1bea      	subs	r2, r5, r7
 8001196:	2a00      	cmp	r2, #0
 8001198:	dd41      	ble.n	800121e <__aeabi_fsub+0x12e>
 800119a:	2f00      	cmp	r7, #0
 800119c:	d06b      	beq.n	8001276 <__aeabi_fsub+0x186>
 800119e:	2dff      	cmp	r5, #255	; 0xff
 80011a0:	d100      	bne.n	80011a4 <__aeabi_fsub+0xb4>
 80011a2:	e097      	b.n	80012d4 <__aeabi_fsub+0x1e4>
 80011a4:	2380      	movs	r3, #128	; 0x80
 80011a6:	04db      	lsls	r3, r3, #19
 80011a8:	4318      	orrs	r0, r3
 80011aa:	2a1b      	cmp	r2, #27
 80011ac:	dc00      	bgt.n	80011b0 <__aeabi_fsub+0xc0>
 80011ae:	e0cc      	b.n	800134a <__aeabi_fsub+0x25a>
 80011b0:	2301      	movs	r3, #1
 80011b2:	4463      	add	r3, ip
 80011b4:	015a      	lsls	r2, r3, #5
 80011b6:	d574      	bpl.n	80012a2 <__aeabi_fsub+0x1b2>
 80011b8:	3501      	adds	r5, #1
 80011ba:	2dff      	cmp	r5, #255	; 0xff
 80011bc:	d065      	beq.n	800128a <__aeabi_fsub+0x19a>
 80011be:	2201      	movs	r2, #1
 80011c0:	499a      	ldr	r1, [pc, #616]	; (800142c <__aeabi_fsub+0x33c>)
 80011c2:	401a      	ands	r2, r3
 80011c4:	085b      	lsrs	r3, r3, #1
 80011c6:	400b      	ands	r3, r1
 80011c8:	4313      	orrs	r3, r2
 80011ca:	e7cb      	b.n	8001164 <__aeabi_fsub+0x74>
 80011cc:	2800      	cmp	r0, #0
 80011ce:	d01f      	beq.n	8001210 <__aeabi_fsub+0x120>
 80011d0:	428c      	cmp	r4, r1
 80011d2:	d022      	beq.n	800121a <__aeabi_fsub+0x12a>
 80011d4:	002a      	movs	r2, r5
 80011d6:	3aff      	subs	r2, #255	; 0xff
 80011d8:	2a00      	cmp	r2, #0
 80011da:	d035      	beq.n	8001248 <__aeabi_fsub+0x158>
 80011dc:	1b7a      	subs	r2, r7, r5
 80011de:	2d00      	cmp	r5, #0
 80011e0:	d000      	beq.n	80011e4 <__aeabi_fsub+0xf4>
 80011e2:	e099      	b.n	8001318 <__aeabi_fsub+0x228>
 80011e4:	4663      	mov	r3, ip
 80011e6:	2b00      	cmp	r3, #0
 80011e8:	d100      	bne.n	80011ec <__aeabi_fsub+0xfc>
 80011ea:	e0dd      	b.n	80013a8 <__aeabi_fsub+0x2b8>
 80011ec:	1e53      	subs	r3, r2, #1
 80011ee:	2a01      	cmp	r2, #1
 80011f0:	d100      	bne.n	80011f4 <__aeabi_fsub+0x104>
 80011f2:	e105      	b.n	8001400 <__aeabi_fsub+0x310>
 80011f4:	2aff      	cmp	r2, #255	; 0xff
 80011f6:	d06b      	beq.n	80012d0 <__aeabi_fsub+0x1e0>
 80011f8:	001a      	movs	r2, r3
 80011fa:	e094      	b.n	8001326 <__aeabi_fsub+0x236>
 80011fc:	2800      	cmp	r0, #0
 80011fe:	d073      	beq.n	80012e8 <__aeabi_fsub+0x1f8>
 8001200:	1e51      	subs	r1, r2, #1
 8001202:	2a01      	cmp	r2, #1
 8001204:	d100      	bne.n	8001208 <__aeabi_fsub+0x118>
 8001206:	e0df      	b.n	80013c8 <__aeabi_fsub+0x2d8>
 8001208:	2aff      	cmp	r2, #255	; 0xff
 800120a:	d063      	beq.n	80012d4 <__aeabi_fsub+0x1e4>
 800120c:	000a      	movs	r2, r1
 800120e:	e792      	b.n	8001136 <__aeabi_fsub+0x46>
 8001210:	2201      	movs	r2, #1
 8001212:	4051      	eors	r1, r2
 8001214:	42a1      	cmp	r1, r4
 8001216:	d000      	beq.n	800121a <__aeabi_fsub+0x12a>
 8001218:	e782      	b.n	8001120 <__aeabi_fsub+0x30>
 800121a:	002a      	movs	r2, r5
 800121c:	3aff      	subs	r2, #255	; 0xff
 800121e:	2a00      	cmp	r2, #0
 8001220:	d036      	beq.n	8001290 <__aeabi_fsub+0x1a0>
 8001222:	1b7a      	subs	r2, r7, r5
 8001224:	2d00      	cmp	r5, #0
 8001226:	d100      	bne.n	800122a <__aeabi_fsub+0x13a>
 8001228:	e0aa      	b.n	8001380 <__aeabi_fsub+0x290>
 800122a:	2fff      	cmp	r7, #255	; 0xff
 800122c:	d100      	bne.n	8001230 <__aeabi_fsub+0x140>
 800122e:	e0da      	b.n	80013e6 <__aeabi_fsub+0x2f6>
 8001230:	2380      	movs	r3, #128	; 0x80
 8001232:	4661      	mov	r1, ip
 8001234:	04db      	lsls	r3, r3, #19
 8001236:	4319      	orrs	r1, r3
 8001238:	468c      	mov	ip, r1
 800123a:	2a1b      	cmp	r2, #27
 800123c:	dc00      	bgt.n	8001240 <__aeabi_fsub+0x150>
 800123e:	e0d4      	b.n	80013ea <__aeabi_fsub+0x2fa>
 8001240:	2301      	movs	r3, #1
 8001242:	003d      	movs	r5, r7
 8001244:	181b      	adds	r3, r3, r0
 8001246:	e7b5      	b.n	80011b4 <__aeabi_fsub+0xc4>
 8001248:	27fe      	movs	r7, #254	; 0xfe
 800124a:	1c6a      	adds	r2, r5, #1
 800124c:	4217      	tst	r7, r2
 800124e:	d171      	bne.n	8001334 <__aeabi_fsub+0x244>
 8001250:	2d00      	cmp	r5, #0
 8001252:	d000      	beq.n	8001256 <__aeabi_fsub+0x166>
 8001254:	e09e      	b.n	8001394 <__aeabi_fsub+0x2a4>
 8001256:	4663      	mov	r3, ip
 8001258:	2b00      	cmp	r3, #0
 800125a:	d100      	bne.n	800125e <__aeabi_fsub+0x16e>
 800125c:	e0d5      	b.n	800140a <__aeabi_fsub+0x31a>
 800125e:	2200      	movs	r2, #0
 8001260:	2800      	cmp	r0, #0
 8001262:	d100      	bne.n	8001266 <__aeabi_fsub+0x176>
 8001264:	e78f      	b.n	8001186 <__aeabi_fsub+0x96>
 8001266:	1a1b      	subs	r3, r3, r0
 8001268:	015e      	lsls	r6, r3, #5
 800126a:	d400      	bmi.n	800126e <__aeabi_fsub+0x17e>
 800126c:	e0d6      	b.n	800141c <__aeabi_fsub+0x32c>
 800126e:	4663      	mov	r3, ip
 8001270:	000c      	movs	r4, r1
 8001272:	1ac3      	subs	r3, r0, r3
 8001274:	e776      	b.n	8001164 <__aeabi_fsub+0x74>
 8001276:	2800      	cmp	r0, #0
 8001278:	d036      	beq.n	80012e8 <__aeabi_fsub+0x1f8>
 800127a:	1e51      	subs	r1, r2, #1
 800127c:	2a01      	cmp	r2, #1
 800127e:	d100      	bne.n	8001282 <__aeabi_fsub+0x192>
 8001280:	e09a      	b.n	80013b8 <__aeabi_fsub+0x2c8>
 8001282:	2aff      	cmp	r2, #255	; 0xff
 8001284:	d026      	beq.n	80012d4 <__aeabi_fsub+0x1e4>
 8001286:	000a      	movs	r2, r1
 8001288:	e78f      	b.n	80011aa <__aeabi_fsub+0xba>
 800128a:	22ff      	movs	r2, #255	; 0xff
 800128c:	2600      	movs	r6, #0
 800128e:	e77a      	b.n	8001186 <__aeabi_fsub+0x96>
 8001290:	27fe      	movs	r7, #254	; 0xfe
 8001292:	1c6a      	adds	r2, r5, #1
 8001294:	4217      	tst	r7, r2
 8001296:	d062      	beq.n	800135e <__aeabi_fsub+0x26e>
 8001298:	2aff      	cmp	r2, #255	; 0xff
 800129a:	d0f6      	beq.n	800128a <__aeabi_fsub+0x19a>
 800129c:	0015      	movs	r5, r2
 800129e:	4460      	add	r0, ip
 80012a0:	0843      	lsrs	r3, r0, #1
 80012a2:	075a      	lsls	r2, r3, #29
 80012a4:	d000      	beq.n	80012a8 <__aeabi_fsub+0x1b8>
 80012a6:	e75f      	b.n	8001168 <__aeabi_fsub+0x78>
 80012a8:	08db      	lsrs	r3, r3, #3
 80012aa:	2dff      	cmp	r5, #255	; 0xff
 80012ac:	d012      	beq.n	80012d4 <__aeabi_fsub+0x1e4>
 80012ae:	025b      	lsls	r3, r3, #9
 80012b0:	0a5e      	lsrs	r6, r3, #9
 80012b2:	b2ea      	uxtb	r2, r5
 80012b4:	e767      	b.n	8001186 <__aeabi_fsub+0x96>
 80012b6:	4662      	mov	r2, ip
 80012b8:	2a00      	cmp	r2, #0
 80012ba:	d100      	bne.n	80012be <__aeabi_fsub+0x1ce>
 80012bc:	e093      	b.n	80013e6 <__aeabi_fsub+0x2f6>
 80012be:	2800      	cmp	r0, #0
 80012c0:	d008      	beq.n	80012d4 <__aeabi_fsub+0x1e4>
 80012c2:	2280      	movs	r2, #128	; 0x80
 80012c4:	03d2      	lsls	r2, r2, #15
 80012c6:	4213      	tst	r3, r2
 80012c8:	d004      	beq.n	80012d4 <__aeabi_fsub+0x1e4>
 80012ca:	4640      	mov	r0, r8
 80012cc:	4210      	tst	r0, r2
 80012ce:	d101      	bne.n	80012d4 <__aeabi_fsub+0x1e4>
 80012d0:	000c      	movs	r4, r1
 80012d2:	4643      	mov	r3, r8
 80012d4:	2b00      	cmp	r3, #0
 80012d6:	d0d8      	beq.n	800128a <__aeabi_fsub+0x19a>
 80012d8:	2680      	movs	r6, #128	; 0x80
 80012da:	03f6      	lsls	r6, r6, #15
 80012dc:	431e      	orrs	r6, r3
 80012de:	0276      	lsls	r6, r6, #9
 80012e0:	22ff      	movs	r2, #255	; 0xff
 80012e2:	0a76      	lsrs	r6, r6, #9
 80012e4:	e74f      	b.n	8001186 <__aeabi_fsub+0x96>
 80012e6:	4643      	mov	r3, r8
 80012e8:	0015      	movs	r5, r2
 80012ea:	e7de      	b.n	80012aa <__aeabi_fsub+0x1ba>
 80012ec:	2220      	movs	r2, #32
 80012ee:	1b40      	subs	r0, r0, r5
 80012f0:	3001      	adds	r0, #1
 80012f2:	1a12      	subs	r2, r2, r0
 80012f4:	0019      	movs	r1, r3
 80012f6:	4093      	lsls	r3, r2
 80012f8:	40c1      	lsrs	r1, r0
 80012fa:	1e5a      	subs	r2, r3, #1
 80012fc:	4193      	sbcs	r3, r2
 80012fe:	2500      	movs	r5, #0
 8001300:	430b      	orrs	r3, r1
 8001302:	e72f      	b.n	8001164 <__aeabi_fsub+0x74>
 8001304:	2320      	movs	r3, #32
 8001306:	1a9b      	subs	r3, r3, r2
 8001308:	0001      	movs	r1, r0
 800130a:	4098      	lsls	r0, r3
 800130c:	0003      	movs	r3, r0
 800130e:	40d1      	lsrs	r1, r2
 8001310:	1e5a      	subs	r2, r3, #1
 8001312:	4193      	sbcs	r3, r2
 8001314:	430b      	orrs	r3, r1
 8001316:	e712      	b.n	800113e <__aeabi_fsub+0x4e>
 8001318:	2fff      	cmp	r7, #255	; 0xff
 800131a:	d0d9      	beq.n	80012d0 <__aeabi_fsub+0x1e0>
 800131c:	2380      	movs	r3, #128	; 0x80
 800131e:	4664      	mov	r4, ip
 8001320:	04db      	lsls	r3, r3, #19
 8001322:	431c      	orrs	r4, r3
 8001324:	46a4      	mov	ip, r4
 8001326:	2a1b      	cmp	r2, #27
 8001328:	dd52      	ble.n	80013d0 <__aeabi_fsub+0x2e0>
 800132a:	2301      	movs	r3, #1
 800132c:	000c      	movs	r4, r1
 800132e:	003d      	movs	r5, r7
 8001330:	1ac3      	subs	r3, r0, r3
 8001332:	e706      	b.n	8001142 <__aeabi_fsub+0x52>
 8001334:	4663      	mov	r3, ip
 8001336:	1a1e      	subs	r6, r3, r0
 8001338:	0173      	lsls	r3, r6, #5
 800133a:	d439      	bmi.n	80013b0 <__aeabi_fsub+0x2c0>
 800133c:	2e00      	cmp	r6, #0
 800133e:	d000      	beq.n	8001342 <__aeabi_fsub+0x252>
 8001340:	e704      	b.n	800114c <__aeabi_fsub+0x5c>
 8001342:	2400      	movs	r4, #0
 8001344:	2200      	movs	r2, #0
 8001346:	2600      	movs	r6, #0
 8001348:	e71d      	b.n	8001186 <__aeabi_fsub+0x96>
 800134a:	2320      	movs	r3, #32
 800134c:	1a9b      	subs	r3, r3, r2
 800134e:	0001      	movs	r1, r0
 8001350:	4098      	lsls	r0, r3
 8001352:	0003      	movs	r3, r0
 8001354:	40d1      	lsrs	r1, r2
 8001356:	1e5a      	subs	r2, r3, #1
 8001358:	4193      	sbcs	r3, r2
 800135a:	430b      	orrs	r3, r1
 800135c:	e729      	b.n	80011b2 <__aeabi_fsub+0xc2>
 800135e:	2d00      	cmp	r5, #0
 8001360:	d1a9      	bne.n	80012b6 <__aeabi_fsub+0x1c6>
 8001362:	4663      	mov	r3, ip
 8001364:	2b00      	cmp	r3, #0
 8001366:	d056      	beq.n	8001416 <__aeabi_fsub+0x326>
 8001368:	2200      	movs	r2, #0
 800136a:	2800      	cmp	r0, #0
 800136c:	d100      	bne.n	8001370 <__aeabi_fsub+0x280>
 800136e:	e70a      	b.n	8001186 <__aeabi_fsub+0x96>
 8001370:	0003      	movs	r3, r0
 8001372:	4463      	add	r3, ip
 8001374:	015a      	lsls	r2, r3, #5
 8001376:	d594      	bpl.n	80012a2 <__aeabi_fsub+0x1b2>
 8001378:	4a2b      	ldr	r2, [pc, #172]	; (8001428 <__aeabi_fsub+0x338>)
 800137a:	3501      	adds	r5, #1
 800137c:	4013      	ands	r3, r2
 800137e:	e790      	b.n	80012a2 <__aeabi_fsub+0x1b2>
 8001380:	4663      	mov	r3, ip
 8001382:	2b00      	cmp	r3, #0
 8001384:	d0af      	beq.n	80012e6 <__aeabi_fsub+0x1f6>
 8001386:	1e53      	subs	r3, r2, #1
 8001388:	2a01      	cmp	r2, #1
 800138a:	d015      	beq.n	80013b8 <__aeabi_fsub+0x2c8>
 800138c:	2aff      	cmp	r2, #255	; 0xff
 800138e:	d02a      	beq.n	80013e6 <__aeabi_fsub+0x2f6>
 8001390:	001a      	movs	r2, r3
 8001392:	e752      	b.n	800123a <__aeabi_fsub+0x14a>
 8001394:	4662      	mov	r2, ip
 8001396:	2a00      	cmp	r2, #0
 8001398:	d191      	bne.n	80012be <__aeabi_fsub+0x1ce>
 800139a:	2800      	cmp	r0, #0
 800139c:	d198      	bne.n	80012d0 <__aeabi_fsub+0x1e0>
 800139e:	2680      	movs	r6, #128	; 0x80
 80013a0:	2400      	movs	r4, #0
 80013a2:	22ff      	movs	r2, #255	; 0xff
 80013a4:	03f6      	lsls	r6, r6, #15
 80013a6:	e6ee      	b.n	8001186 <__aeabi_fsub+0x96>
 80013a8:	000c      	movs	r4, r1
 80013aa:	4643      	mov	r3, r8
 80013ac:	0015      	movs	r5, r2
 80013ae:	e77c      	b.n	80012aa <__aeabi_fsub+0x1ba>
 80013b0:	4663      	mov	r3, ip
 80013b2:	000c      	movs	r4, r1
 80013b4:	1ac6      	subs	r6, r0, r3
 80013b6:	e6c9      	b.n	800114c <__aeabi_fsub+0x5c>
 80013b8:	0003      	movs	r3, r0
 80013ba:	4463      	add	r3, ip
 80013bc:	2501      	movs	r5, #1
 80013be:	015a      	lsls	r2, r3, #5
 80013c0:	d400      	bmi.n	80013c4 <__aeabi_fsub+0x2d4>
 80013c2:	e76e      	b.n	80012a2 <__aeabi_fsub+0x1b2>
 80013c4:	2502      	movs	r5, #2
 80013c6:	e6fa      	b.n	80011be <__aeabi_fsub+0xce>
 80013c8:	4663      	mov	r3, ip
 80013ca:	2501      	movs	r5, #1
 80013cc:	1a1b      	subs	r3, r3, r0
 80013ce:	e6b8      	b.n	8001142 <__aeabi_fsub+0x52>
 80013d0:	4664      	mov	r4, ip
 80013d2:	2320      	movs	r3, #32
 80013d4:	40d4      	lsrs	r4, r2
 80013d6:	1a9b      	subs	r3, r3, r2
 80013d8:	4662      	mov	r2, ip
 80013da:	409a      	lsls	r2, r3
 80013dc:	0013      	movs	r3, r2
 80013de:	1e5a      	subs	r2, r3, #1
 80013e0:	4193      	sbcs	r3, r2
 80013e2:	4323      	orrs	r3, r4
 80013e4:	e7a2      	b.n	800132c <__aeabi_fsub+0x23c>
 80013e6:	4643      	mov	r3, r8
 80013e8:	e774      	b.n	80012d4 <__aeabi_fsub+0x1e4>
 80013ea:	4661      	mov	r1, ip
 80013ec:	2320      	movs	r3, #32
 80013ee:	40d1      	lsrs	r1, r2
 80013f0:	1a9b      	subs	r3, r3, r2
 80013f2:	4662      	mov	r2, ip
 80013f4:	409a      	lsls	r2, r3
 80013f6:	0013      	movs	r3, r2
 80013f8:	1e5a      	subs	r2, r3, #1
 80013fa:	4193      	sbcs	r3, r2
 80013fc:	430b      	orrs	r3, r1
 80013fe:	e720      	b.n	8001242 <__aeabi_fsub+0x152>
 8001400:	4663      	mov	r3, ip
 8001402:	000c      	movs	r4, r1
 8001404:	2501      	movs	r5, #1
 8001406:	1ac3      	subs	r3, r0, r3
 8001408:	e69b      	b.n	8001142 <__aeabi_fsub+0x52>
 800140a:	2800      	cmp	r0, #0
 800140c:	d099      	beq.n	8001342 <__aeabi_fsub+0x252>
 800140e:	000c      	movs	r4, r1
 8001410:	4646      	mov	r6, r8
 8001412:	2200      	movs	r2, #0
 8001414:	e6b7      	b.n	8001186 <__aeabi_fsub+0x96>
 8001416:	4646      	mov	r6, r8
 8001418:	2200      	movs	r2, #0
 800141a:	e6b4      	b.n	8001186 <__aeabi_fsub+0x96>
 800141c:	2b00      	cmp	r3, #0
 800141e:	d000      	beq.n	8001422 <__aeabi_fsub+0x332>
 8001420:	e73f      	b.n	80012a2 <__aeabi_fsub+0x1b2>
 8001422:	2400      	movs	r4, #0
 8001424:	2600      	movs	r6, #0
 8001426:	e6ae      	b.n	8001186 <__aeabi_fsub+0x96>
 8001428:	fbffffff 	.word	0xfbffffff
 800142c:	7dffffff 	.word	0x7dffffff

08001430 <__aeabi_f2iz>:
 8001430:	0241      	lsls	r1, r0, #9
 8001432:	0042      	lsls	r2, r0, #1
 8001434:	0fc3      	lsrs	r3, r0, #31
 8001436:	0a49      	lsrs	r1, r1, #9
 8001438:	2000      	movs	r0, #0
 800143a:	0e12      	lsrs	r2, r2, #24
 800143c:	2a7e      	cmp	r2, #126	; 0x7e
 800143e:	dd03      	ble.n	8001448 <__aeabi_f2iz+0x18>
 8001440:	2a9d      	cmp	r2, #157	; 0x9d
 8001442:	dd02      	ble.n	800144a <__aeabi_f2iz+0x1a>
 8001444:	4a09      	ldr	r2, [pc, #36]	; (800146c <__aeabi_f2iz+0x3c>)
 8001446:	1898      	adds	r0, r3, r2
 8001448:	4770      	bx	lr
 800144a:	2080      	movs	r0, #128	; 0x80
 800144c:	0400      	lsls	r0, r0, #16
 800144e:	4301      	orrs	r1, r0
 8001450:	2a95      	cmp	r2, #149	; 0x95
 8001452:	dc07      	bgt.n	8001464 <__aeabi_f2iz+0x34>
 8001454:	2096      	movs	r0, #150	; 0x96
 8001456:	1a82      	subs	r2, r0, r2
 8001458:	40d1      	lsrs	r1, r2
 800145a:	4248      	negs	r0, r1
 800145c:	2b00      	cmp	r3, #0
 800145e:	d1f3      	bne.n	8001448 <__aeabi_f2iz+0x18>
 8001460:	0008      	movs	r0, r1
 8001462:	e7f1      	b.n	8001448 <__aeabi_f2iz+0x18>
 8001464:	3a96      	subs	r2, #150	; 0x96
 8001466:	4091      	lsls	r1, r2
 8001468:	e7f7      	b.n	800145a <__aeabi_f2iz+0x2a>
 800146a:	46c0      	nop			; (mov r8, r8)
 800146c:	7fffffff 	.word	0x7fffffff

08001470 <__aeabi_i2f>:
 8001470:	b570      	push	{r4, r5, r6, lr}
 8001472:	2800      	cmp	r0, #0
 8001474:	d013      	beq.n	800149e <__aeabi_i2f+0x2e>
 8001476:	17c3      	asrs	r3, r0, #31
 8001478:	18c5      	adds	r5, r0, r3
 800147a:	405d      	eors	r5, r3
 800147c:	0fc4      	lsrs	r4, r0, #31
 800147e:	0028      	movs	r0, r5
 8001480:	f001 fe90 	bl	80031a4 <__clzsi2>
 8001484:	239e      	movs	r3, #158	; 0x9e
 8001486:	0001      	movs	r1, r0
 8001488:	1a1b      	subs	r3, r3, r0
 800148a:	2b96      	cmp	r3, #150	; 0x96
 800148c:	dc0f      	bgt.n	80014ae <__aeabi_i2f+0x3e>
 800148e:	2808      	cmp	r0, #8
 8001490:	d031      	beq.n	80014f6 <__aeabi_i2f+0x86>
 8001492:	3908      	subs	r1, #8
 8001494:	408d      	lsls	r5, r1
 8001496:	026d      	lsls	r5, r5, #9
 8001498:	0a6d      	lsrs	r5, r5, #9
 800149a:	b2d8      	uxtb	r0, r3
 800149c:	e002      	b.n	80014a4 <__aeabi_i2f+0x34>
 800149e:	2400      	movs	r4, #0
 80014a0:	2000      	movs	r0, #0
 80014a2:	2500      	movs	r5, #0
 80014a4:	05c0      	lsls	r0, r0, #23
 80014a6:	4328      	orrs	r0, r5
 80014a8:	07e4      	lsls	r4, r4, #31
 80014aa:	4320      	orrs	r0, r4
 80014ac:	bd70      	pop	{r4, r5, r6, pc}
 80014ae:	2b99      	cmp	r3, #153	; 0x99
 80014b0:	dd0c      	ble.n	80014cc <__aeabi_i2f+0x5c>
 80014b2:	2205      	movs	r2, #5
 80014b4:	1a12      	subs	r2, r2, r0
 80014b6:	0028      	movs	r0, r5
 80014b8:	40d0      	lsrs	r0, r2
 80014ba:	0002      	movs	r2, r0
 80014bc:	0008      	movs	r0, r1
 80014be:	301b      	adds	r0, #27
 80014c0:	4085      	lsls	r5, r0
 80014c2:	0028      	movs	r0, r5
 80014c4:	1e45      	subs	r5, r0, #1
 80014c6:	41a8      	sbcs	r0, r5
 80014c8:	4302      	orrs	r2, r0
 80014ca:	0015      	movs	r5, r2
 80014cc:	2905      	cmp	r1, #5
 80014ce:	dc16      	bgt.n	80014fe <__aeabi_i2f+0x8e>
 80014d0:	002a      	movs	r2, r5
 80014d2:	480f      	ldr	r0, [pc, #60]	; (8001510 <__aeabi_i2f+0xa0>)
 80014d4:	4002      	ands	r2, r0
 80014d6:	076e      	lsls	r6, r5, #29
 80014d8:	d009      	beq.n	80014ee <__aeabi_i2f+0x7e>
 80014da:	260f      	movs	r6, #15
 80014dc:	4035      	ands	r5, r6
 80014de:	2d04      	cmp	r5, #4
 80014e0:	d005      	beq.n	80014ee <__aeabi_i2f+0x7e>
 80014e2:	3204      	adds	r2, #4
 80014e4:	0155      	lsls	r5, r2, #5
 80014e6:	d502      	bpl.n	80014ee <__aeabi_i2f+0x7e>
 80014e8:	239f      	movs	r3, #159	; 0x9f
 80014ea:	4002      	ands	r2, r0
 80014ec:	1a5b      	subs	r3, r3, r1
 80014ee:	0192      	lsls	r2, r2, #6
 80014f0:	0a55      	lsrs	r5, r2, #9
 80014f2:	b2d8      	uxtb	r0, r3
 80014f4:	e7d6      	b.n	80014a4 <__aeabi_i2f+0x34>
 80014f6:	026d      	lsls	r5, r5, #9
 80014f8:	2096      	movs	r0, #150	; 0x96
 80014fa:	0a6d      	lsrs	r5, r5, #9
 80014fc:	e7d2      	b.n	80014a4 <__aeabi_i2f+0x34>
 80014fe:	1f4a      	subs	r2, r1, #5
 8001500:	4095      	lsls	r5, r2
 8001502:	002a      	movs	r2, r5
 8001504:	4802      	ldr	r0, [pc, #8]	; (8001510 <__aeabi_i2f+0xa0>)
 8001506:	4002      	ands	r2, r0
 8001508:	076e      	lsls	r6, r5, #29
 800150a:	d0f0      	beq.n	80014ee <__aeabi_i2f+0x7e>
 800150c:	e7e5      	b.n	80014da <__aeabi_i2f+0x6a>
 800150e:	46c0      	nop			; (mov r8, r8)
 8001510:	fbffffff 	.word	0xfbffffff

08001514 <__aeabi_dadd>:
 8001514:	b5f0      	push	{r4, r5, r6, r7, lr}
 8001516:	464f      	mov	r7, r9
 8001518:	4646      	mov	r6, r8
 800151a:	46d6      	mov	lr, sl
 800151c:	0004      	movs	r4, r0
 800151e:	b5c0      	push	{r6, r7, lr}
 8001520:	001f      	movs	r7, r3
 8001522:	030b      	lsls	r3, r1, #12
 8001524:	0010      	movs	r0, r2
 8001526:	004e      	lsls	r6, r1, #1
 8001528:	0a5b      	lsrs	r3, r3, #9
 800152a:	0fcd      	lsrs	r5, r1, #31
 800152c:	0f61      	lsrs	r1, r4, #29
 800152e:	007a      	lsls	r2, r7, #1
 8001530:	4319      	orrs	r1, r3
 8001532:	00e3      	lsls	r3, r4, #3
 8001534:	033c      	lsls	r4, r7, #12
 8001536:	0fff      	lsrs	r7, r7, #31
 8001538:	46bc      	mov	ip, r7
 800153a:	0a64      	lsrs	r4, r4, #9
 800153c:	0f47      	lsrs	r7, r0, #29
 800153e:	4327      	orrs	r7, r4
 8001540:	0d76      	lsrs	r6, r6, #21
 8001542:	0d52      	lsrs	r2, r2, #21
 8001544:	00c0      	lsls	r0, r0, #3
 8001546:	46b9      	mov	r9, r7
 8001548:	4680      	mov	r8, r0
 800154a:	1ab7      	subs	r7, r6, r2
 800154c:	4565      	cmp	r5, ip
 800154e:	d100      	bne.n	8001552 <__aeabi_dadd+0x3e>
 8001550:	e09b      	b.n	800168a <__aeabi_dadd+0x176>
 8001552:	2f00      	cmp	r7, #0
 8001554:	dc00      	bgt.n	8001558 <__aeabi_dadd+0x44>
 8001556:	e084      	b.n	8001662 <__aeabi_dadd+0x14e>
 8001558:	2a00      	cmp	r2, #0
 800155a:	d100      	bne.n	800155e <__aeabi_dadd+0x4a>
 800155c:	e0be      	b.n	80016dc <__aeabi_dadd+0x1c8>
 800155e:	4ac8      	ldr	r2, [pc, #800]	; (8001880 <__aeabi_dadd+0x36c>)
 8001560:	4296      	cmp	r6, r2
 8001562:	d100      	bne.n	8001566 <__aeabi_dadd+0x52>
 8001564:	e124      	b.n	80017b0 <__aeabi_dadd+0x29c>
 8001566:	2280      	movs	r2, #128	; 0x80
 8001568:	464c      	mov	r4, r9
 800156a:	0412      	lsls	r2, r2, #16
 800156c:	4314      	orrs	r4, r2
 800156e:	46a1      	mov	r9, r4
 8001570:	2f38      	cmp	r7, #56	; 0x38
 8001572:	dd00      	ble.n	8001576 <__aeabi_dadd+0x62>
 8001574:	e167      	b.n	8001846 <__aeabi_dadd+0x332>
 8001576:	2f1f      	cmp	r7, #31
 8001578:	dd00      	ble.n	800157c <__aeabi_dadd+0x68>
 800157a:	e1d6      	b.n	800192a <__aeabi_dadd+0x416>
 800157c:	2220      	movs	r2, #32
 800157e:	464c      	mov	r4, r9
 8001580:	1bd2      	subs	r2, r2, r7
 8001582:	4094      	lsls	r4, r2
 8001584:	46a2      	mov	sl, r4
 8001586:	4644      	mov	r4, r8
 8001588:	40fc      	lsrs	r4, r7
 800158a:	0020      	movs	r0, r4
 800158c:	4654      	mov	r4, sl
 800158e:	4304      	orrs	r4, r0
 8001590:	4640      	mov	r0, r8
 8001592:	4090      	lsls	r0, r2
 8001594:	1e42      	subs	r2, r0, #1
 8001596:	4190      	sbcs	r0, r2
 8001598:	464a      	mov	r2, r9
 800159a:	40fa      	lsrs	r2, r7
 800159c:	4304      	orrs	r4, r0
 800159e:	1a89      	subs	r1, r1, r2
 80015a0:	1b1c      	subs	r4, r3, r4
 80015a2:	42a3      	cmp	r3, r4
 80015a4:	4192      	sbcs	r2, r2
 80015a6:	4252      	negs	r2, r2
 80015a8:	1a8b      	subs	r3, r1, r2
 80015aa:	469a      	mov	sl, r3
 80015ac:	4653      	mov	r3, sl
 80015ae:	021b      	lsls	r3, r3, #8
 80015b0:	d400      	bmi.n	80015b4 <__aeabi_dadd+0xa0>
 80015b2:	e0d4      	b.n	800175e <__aeabi_dadd+0x24a>
 80015b4:	4653      	mov	r3, sl
 80015b6:	025a      	lsls	r2, r3, #9
 80015b8:	0a53      	lsrs	r3, r2, #9
 80015ba:	469a      	mov	sl, r3
 80015bc:	4653      	mov	r3, sl
 80015be:	2b00      	cmp	r3, #0
 80015c0:	d100      	bne.n	80015c4 <__aeabi_dadd+0xb0>
 80015c2:	e104      	b.n	80017ce <__aeabi_dadd+0x2ba>
 80015c4:	4650      	mov	r0, sl
 80015c6:	f001 fded 	bl	80031a4 <__clzsi2>
 80015ca:	0003      	movs	r3, r0
 80015cc:	3b08      	subs	r3, #8
 80015ce:	2220      	movs	r2, #32
 80015d0:	0020      	movs	r0, r4
 80015d2:	1ad2      	subs	r2, r2, r3
 80015d4:	4651      	mov	r1, sl
 80015d6:	40d0      	lsrs	r0, r2
 80015d8:	4099      	lsls	r1, r3
 80015da:	0002      	movs	r2, r0
 80015dc:	409c      	lsls	r4, r3
 80015de:	430a      	orrs	r2, r1
 80015e0:	42b3      	cmp	r3, r6
 80015e2:	da00      	bge.n	80015e6 <__aeabi_dadd+0xd2>
 80015e4:	e102      	b.n	80017ec <__aeabi_dadd+0x2d8>
 80015e6:	1b9b      	subs	r3, r3, r6
 80015e8:	1c59      	adds	r1, r3, #1
 80015ea:	291f      	cmp	r1, #31
 80015ec:	dd00      	ble.n	80015f0 <__aeabi_dadd+0xdc>
 80015ee:	e0a7      	b.n	8001740 <__aeabi_dadd+0x22c>
 80015f0:	2320      	movs	r3, #32
 80015f2:	0010      	movs	r0, r2
 80015f4:	0026      	movs	r6, r4
 80015f6:	1a5b      	subs	r3, r3, r1
 80015f8:	409c      	lsls	r4, r3
 80015fa:	4098      	lsls	r0, r3
 80015fc:	40ce      	lsrs	r6, r1
 80015fe:	40ca      	lsrs	r2, r1
 8001600:	1e63      	subs	r3, r4, #1
 8001602:	419c      	sbcs	r4, r3
 8001604:	4330      	orrs	r0, r6
 8001606:	4692      	mov	sl, r2
 8001608:	2600      	movs	r6, #0
 800160a:	4304      	orrs	r4, r0
 800160c:	0763      	lsls	r3, r4, #29
 800160e:	d009      	beq.n	8001624 <__aeabi_dadd+0x110>
 8001610:	230f      	movs	r3, #15
 8001612:	4023      	ands	r3, r4
 8001614:	2b04      	cmp	r3, #4
 8001616:	d005      	beq.n	8001624 <__aeabi_dadd+0x110>
 8001618:	1d23      	adds	r3, r4, #4
 800161a:	42a3      	cmp	r3, r4
 800161c:	41a4      	sbcs	r4, r4
 800161e:	4264      	negs	r4, r4
 8001620:	44a2      	add	sl, r4
 8001622:	001c      	movs	r4, r3
 8001624:	4653      	mov	r3, sl
 8001626:	021b      	lsls	r3, r3, #8
 8001628:	d400      	bmi.n	800162c <__aeabi_dadd+0x118>
 800162a:	e09b      	b.n	8001764 <__aeabi_dadd+0x250>
 800162c:	4b94      	ldr	r3, [pc, #592]	; (8001880 <__aeabi_dadd+0x36c>)
 800162e:	3601      	adds	r6, #1
 8001630:	429e      	cmp	r6, r3
 8001632:	d100      	bne.n	8001636 <__aeabi_dadd+0x122>
 8001634:	e0b8      	b.n	80017a8 <__aeabi_dadd+0x294>
 8001636:	4653      	mov	r3, sl
 8001638:	4992      	ldr	r1, [pc, #584]	; (8001884 <__aeabi_dadd+0x370>)
 800163a:	08e4      	lsrs	r4, r4, #3
 800163c:	400b      	ands	r3, r1
 800163e:	0019      	movs	r1, r3
 8001640:	075b      	lsls	r3, r3, #29
 8001642:	4323      	orrs	r3, r4
 8001644:	0572      	lsls	r2, r6, #21
 8001646:	024c      	lsls	r4, r1, #9
 8001648:	0b24      	lsrs	r4, r4, #12
 800164a:	0d52      	lsrs	r2, r2, #21
 800164c:	0512      	lsls	r2, r2, #20
 800164e:	07ed      	lsls	r5, r5, #31
 8001650:	4322      	orrs	r2, r4
 8001652:	432a      	orrs	r2, r5
 8001654:	0018      	movs	r0, r3
 8001656:	0011      	movs	r1, r2
 8001658:	bce0      	pop	{r5, r6, r7}
 800165a:	46ba      	mov	sl, r7
 800165c:	46b1      	mov	r9, r6
 800165e:	46a8      	mov	r8, r5
 8001660:	bdf0      	pop	{r4, r5, r6, r7, pc}
 8001662:	2f00      	cmp	r7, #0
 8001664:	d048      	beq.n	80016f8 <__aeabi_dadd+0x1e4>
 8001666:	1b97      	subs	r7, r2, r6
 8001668:	2e00      	cmp	r6, #0
 800166a:	d000      	beq.n	800166e <__aeabi_dadd+0x15a>
 800166c:	e10e      	b.n	800188c <__aeabi_dadd+0x378>
 800166e:	000c      	movs	r4, r1
 8001670:	431c      	orrs	r4, r3
 8001672:	d100      	bne.n	8001676 <__aeabi_dadd+0x162>
 8001674:	e1b7      	b.n	80019e6 <__aeabi_dadd+0x4d2>
 8001676:	1e7c      	subs	r4, r7, #1
 8001678:	2f01      	cmp	r7, #1
 800167a:	d100      	bne.n	800167e <__aeabi_dadd+0x16a>
 800167c:	e226      	b.n	8001acc <__aeabi_dadd+0x5b8>
 800167e:	4d80      	ldr	r5, [pc, #512]	; (8001880 <__aeabi_dadd+0x36c>)
 8001680:	42af      	cmp	r7, r5
 8001682:	d100      	bne.n	8001686 <__aeabi_dadd+0x172>
 8001684:	e1d5      	b.n	8001a32 <__aeabi_dadd+0x51e>
 8001686:	0027      	movs	r7, r4
 8001688:	e107      	b.n	800189a <__aeabi_dadd+0x386>
 800168a:	2f00      	cmp	r7, #0
 800168c:	dc00      	bgt.n	8001690 <__aeabi_dadd+0x17c>
 800168e:	e0b2      	b.n	80017f6 <__aeabi_dadd+0x2e2>
 8001690:	2a00      	cmp	r2, #0
 8001692:	d047      	beq.n	8001724 <__aeabi_dadd+0x210>
 8001694:	4a7a      	ldr	r2, [pc, #488]	; (8001880 <__aeabi_dadd+0x36c>)
 8001696:	4296      	cmp	r6, r2
 8001698:	d100      	bne.n	800169c <__aeabi_dadd+0x188>
 800169a:	e089      	b.n	80017b0 <__aeabi_dadd+0x29c>
 800169c:	2280      	movs	r2, #128	; 0x80
 800169e:	464c      	mov	r4, r9
 80016a0:	0412      	lsls	r2, r2, #16
 80016a2:	4314      	orrs	r4, r2
 80016a4:	46a1      	mov	r9, r4
 80016a6:	2f38      	cmp	r7, #56	; 0x38
 80016a8:	dc6b      	bgt.n	8001782 <__aeabi_dadd+0x26e>
 80016aa:	2f1f      	cmp	r7, #31
 80016ac:	dc00      	bgt.n	80016b0 <__aeabi_dadd+0x19c>
 80016ae:	e16e      	b.n	800198e <__aeabi_dadd+0x47a>
 80016b0:	003a      	movs	r2, r7
 80016b2:	4648      	mov	r0, r9
 80016b4:	3a20      	subs	r2, #32
 80016b6:	40d0      	lsrs	r0, r2
 80016b8:	4684      	mov	ip, r0
 80016ba:	2f20      	cmp	r7, #32
 80016bc:	d007      	beq.n	80016ce <__aeabi_dadd+0x1ba>
 80016be:	2240      	movs	r2, #64	; 0x40
 80016c0:	4648      	mov	r0, r9
 80016c2:	1bd2      	subs	r2, r2, r7
 80016c4:	4090      	lsls	r0, r2
 80016c6:	0002      	movs	r2, r0
 80016c8:	4640      	mov	r0, r8
 80016ca:	4310      	orrs	r0, r2
 80016cc:	4680      	mov	r8, r0
 80016ce:	4640      	mov	r0, r8
 80016d0:	1e42      	subs	r2, r0, #1
 80016d2:	4190      	sbcs	r0, r2
 80016d4:	4662      	mov	r2, ip
 80016d6:	0004      	movs	r4, r0
 80016d8:	4314      	orrs	r4, r2
 80016da:	e057      	b.n	800178c <__aeabi_dadd+0x278>
 80016dc:	464a      	mov	r2, r9
 80016de:	4302      	orrs	r2, r0
 80016e0:	d100      	bne.n	80016e4 <__aeabi_dadd+0x1d0>
 80016e2:	e103      	b.n	80018ec <__aeabi_dadd+0x3d8>
 80016e4:	1e7a      	subs	r2, r7, #1
 80016e6:	2f01      	cmp	r7, #1
 80016e8:	d100      	bne.n	80016ec <__aeabi_dadd+0x1d8>
 80016ea:	e193      	b.n	8001a14 <__aeabi_dadd+0x500>
 80016ec:	4c64      	ldr	r4, [pc, #400]	; (8001880 <__aeabi_dadd+0x36c>)
 80016ee:	42a7      	cmp	r7, r4
 80016f0:	d100      	bne.n	80016f4 <__aeabi_dadd+0x1e0>
 80016f2:	e18a      	b.n	8001a0a <__aeabi_dadd+0x4f6>
 80016f4:	0017      	movs	r7, r2
 80016f6:	e73b      	b.n	8001570 <__aeabi_dadd+0x5c>
 80016f8:	4c63      	ldr	r4, [pc, #396]	; (8001888 <__aeabi_dadd+0x374>)
 80016fa:	1c72      	adds	r2, r6, #1
 80016fc:	4222      	tst	r2, r4
 80016fe:	d000      	beq.n	8001702 <__aeabi_dadd+0x1ee>
 8001700:	e0e0      	b.n	80018c4 <__aeabi_dadd+0x3b0>
 8001702:	000a      	movs	r2, r1
 8001704:	431a      	orrs	r2, r3
 8001706:	2e00      	cmp	r6, #0
 8001708:	d000      	beq.n	800170c <__aeabi_dadd+0x1f8>
 800170a:	e174      	b.n	80019f6 <__aeabi_dadd+0x4e2>
 800170c:	2a00      	cmp	r2, #0
 800170e:	d100      	bne.n	8001712 <__aeabi_dadd+0x1fe>
 8001710:	e1d0      	b.n	8001ab4 <__aeabi_dadd+0x5a0>
 8001712:	464a      	mov	r2, r9
 8001714:	4302      	orrs	r2, r0
 8001716:	d000      	beq.n	800171a <__aeabi_dadd+0x206>
 8001718:	e1e3      	b.n	8001ae2 <__aeabi_dadd+0x5ce>
 800171a:	074a      	lsls	r2, r1, #29
 800171c:	08db      	lsrs	r3, r3, #3
 800171e:	4313      	orrs	r3, r2
 8001720:	08c9      	lsrs	r1, r1, #3
 8001722:	e029      	b.n	8001778 <__aeabi_dadd+0x264>
 8001724:	464a      	mov	r2, r9
 8001726:	4302      	orrs	r2, r0
 8001728:	d100      	bne.n	800172c <__aeabi_dadd+0x218>
 800172a:	e17d      	b.n	8001a28 <__aeabi_dadd+0x514>
 800172c:	1e7a      	subs	r2, r7, #1
 800172e:	2f01      	cmp	r7, #1
 8001730:	d100      	bne.n	8001734 <__aeabi_dadd+0x220>
 8001732:	e0e0      	b.n	80018f6 <__aeabi_dadd+0x3e2>
 8001734:	4c52      	ldr	r4, [pc, #328]	; (8001880 <__aeabi_dadd+0x36c>)
 8001736:	42a7      	cmp	r7, r4
 8001738:	d100      	bne.n	800173c <__aeabi_dadd+0x228>
 800173a:	e166      	b.n	8001a0a <__aeabi_dadd+0x4f6>
 800173c:	0017      	movs	r7, r2
 800173e:	e7b2      	b.n	80016a6 <__aeabi_dadd+0x192>
 8001740:	0010      	movs	r0, r2
 8001742:	3b1f      	subs	r3, #31
 8001744:	40d8      	lsrs	r0, r3
 8001746:	2920      	cmp	r1, #32
 8001748:	d003      	beq.n	8001752 <__aeabi_dadd+0x23e>
 800174a:	2340      	movs	r3, #64	; 0x40
 800174c:	1a5b      	subs	r3, r3, r1
 800174e:	409a      	lsls	r2, r3
 8001750:	4314      	orrs	r4, r2
 8001752:	1e63      	subs	r3, r4, #1
 8001754:	419c      	sbcs	r4, r3
 8001756:	2300      	movs	r3, #0
 8001758:	2600      	movs	r6, #0
 800175a:	469a      	mov	sl, r3
 800175c:	4304      	orrs	r4, r0
 800175e:	0763      	lsls	r3, r4, #29
 8001760:	d000      	beq.n	8001764 <__aeabi_dadd+0x250>
 8001762:	e755      	b.n	8001610 <__aeabi_dadd+0xfc>
 8001764:	4652      	mov	r2, sl
 8001766:	08e3      	lsrs	r3, r4, #3
 8001768:	0752      	lsls	r2, r2, #29
 800176a:	4313      	orrs	r3, r2
 800176c:	4652      	mov	r2, sl
 800176e:	0037      	movs	r7, r6
 8001770:	08d1      	lsrs	r1, r2, #3
 8001772:	4a43      	ldr	r2, [pc, #268]	; (8001880 <__aeabi_dadd+0x36c>)
 8001774:	4297      	cmp	r7, r2
 8001776:	d01f      	beq.n	80017b8 <__aeabi_dadd+0x2a4>
 8001778:	0309      	lsls	r1, r1, #12
 800177a:	057a      	lsls	r2, r7, #21
 800177c:	0b0c      	lsrs	r4, r1, #12
 800177e:	0d52      	lsrs	r2, r2, #21
 8001780:	e764      	b.n	800164c <__aeabi_dadd+0x138>
 8001782:	4642      	mov	r2, r8
 8001784:	464c      	mov	r4, r9
 8001786:	4314      	orrs	r4, r2
 8001788:	1e62      	subs	r2, r4, #1
 800178a:	4194      	sbcs	r4, r2
 800178c:	18e4      	adds	r4, r4, r3
 800178e:	429c      	cmp	r4, r3
 8001790:	4192      	sbcs	r2, r2
 8001792:	4252      	negs	r2, r2
 8001794:	4692      	mov	sl, r2
 8001796:	448a      	add	sl, r1
 8001798:	4653      	mov	r3, sl
 800179a:	021b      	lsls	r3, r3, #8
 800179c:	d5df      	bpl.n	800175e <__aeabi_dadd+0x24a>
 800179e:	4b38      	ldr	r3, [pc, #224]	; (8001880 <__aeabi_dadd+0x36c>)
 80017a0:	3601      	adds	r6, #1
 80017a2:	429e      	cmp	r6, r3
 80017a4:	d000      	beq.n	80017a8 <__aeabi_dadd+0x294>
 80017a6:	e0b3      	b.n	8001910 <__aeabi_dadd+0x3fc>
 80017a8:	0032      	movs	r2, r6
 80017aa:	2400      	movs	r4, #0
 80017ac:	2300      	movs	r3, #0
 80017ae:	e74d      	b.n	800164c <__aeabi_dadd+0x138>
 80017b0:	074a      	lsls	r2, r1, #29
 80017b2:	08db      	lsrs	r3, r3, #3
 80017b4:	4313      	orrs	r3, r2
 80017b6:	08c9      	lsrs	r1, r1, #3
 80017b8:	001a      	movs	r2, r3
 80017ba:	430a      	orrs	r2, r1
 80017bc:	d100      	bne.n	80017c0 <__aeabi_dadd+0x2ac>
 80017be:	e200      	b.n	8001bc2 <__aeabi_dadd+0x6ae>
 80017c0:	2480      	movs	r4, #128	; 0x80
 80017c2:	0324      	lsls	r4, r4, #12
 80017c4:	430c      	orrs	r4, r1
 80017c6:	0324      	lsls	r4, r4, #12
 80017c8:	4a2d      	ldr	r2, [pc, #180]	; (8001880 <__aeabi_dadd+0x36c>)
 80017ca:	0b24      	lsrs	r4, r4, #12
 80017cc:	e73e      	b.n	800164c <__aeabi_dadd+0x138>
 80017ce:	0020      	movs	r0, r4
 80017d0:	f001 fce8 	bl	80031a4 <__clzsi2>
 80017d4:	0003      	movs	r3, r0
 80017d6:	3318      	adds	r3, #24
 80017d8:	2b1f      	cmp	r3, #31
 80017da:	dc00      	bgt.n	80017de <__aeabi_dadd+0x2ca>
 80017dc:	e6f7      	b.n	80015ce <__aeabi_dadd+0xba>
 80017de:	0022      	movs	r2, r4
 80017e0:	3808      	subs	r0, #8
 80017e2:	4082      	lsls	r2, r0
 80017e4:	2400      	movs	r4, #0
 80017e6:	42b3      	cmp	r3, r6
 80017e8:	db00      	blt.n	80017ec <__aeabi_dadd+0x2d8>
 80017ea:	e6fc      	b.n	80015e6 <__aeabi_dadd+0xd2>
 80017ec:	1af6      	subs	r6, r6, r3
 80017ee:	4b25      	ldr	r3, [pc, #148]	; (8001884 <__aeabi_dadd+0x370>)
 80017f0:	401a      	ands	r2, r3
 80017f2:	4692      	mov	sl, r2
 80017f4:	e70a      	b.n	800160c <__aeabi_dadd+0xf8>
 80017f6:	2f00      	cmp	r7, #0
 80017f8:	d02b      	beq.n	8001852 <__aeabi_dadd+0x33e>
 80017fa:	1b97      	subs	r7, r2, r6
 80017fc:	2e00      	cmp	r6, #0
 80017fe:	d100      	bne.n	8001802 <__aeabi_dadd+0x2ee>
 8001800:	e0b8      	b.n	8001974 <__aeabi_dadd+0x460>
 8001802:	4c1f      	ldr	r4, [pc, #124]	; (8001880 <__aeabi_dadd+0x36c>)
 8001804:	42a2      	cmp	r2, r4
 8001806:	d100      	bne.n	800180a <__aeabi_dadd+0x2f6>
 8001808:	e11c      	b.n	8001a44 <__aeabi_dadd+0x530>
 800180a:	2480      	movs	r4, #128	; 0x80
 800180c:	0424      	lsls	r4, r4, #16
 800180e:	4321      	orrs	r1, r4
 8001810:	2f38      	cmp	r7, #56	; 0x38
 8001812:	dd00      	ble.n	8001816 <__aeabi_dadd+0x302>
 8001814:	e11e      	b.n	8001a54 <__aeabi_dadd+0x540>
 8001816:	2f1f      	cmp	r7, #31
 8001818:	dd00      	ble.n	800181c <__aeabi_dadd+0x308>
 800181a:	e19e      	b.n	8001b5a <__aeabi_dadd+0x646>
 800181c:	2620      	movs	r6, #32
 800181e:	000c      	movs	r4, r1
 8001820:	1bf6      	subs	r6, r6, r7
 8001822:	0018      	movs	r0, r3
 8001824:	40b3      	lsls	r3, r6
 8001826:	40b4      	lsls	r4, r6
 8001828:	40f8      	lsrs	r0, r7
 800182a:	1e5e      	subs	r6, r3, #1
 800182c:	41b3      	sbcs	r3, r6
 800182e:	40f9      	lsrs	r1, r7
 8001830:	4304      	orrs	r4, r0
 8001832:	431c      	orrs	r4, r3
 8001834:	4489      	add	r9, r1
 8001836:	4444      	add	r4, r8
 8001838:	4544      	cmp	r4, r8
 800183a:	419b      	sbcs	r3, r3
 800183c:	425b      	negs	r3, r3
 800183e:	444b      	add	r3, r9
 8001840:	469a      	mov	sl, r3
 8001842:	0016      	movs	r6, r2
 8001844:	e7a8      	b.n	8001798 <__aeabi_dadd+0x284>
 8001846:	4642      	mov	r2, r8
 8001848:	464c      	mov	r4, r9
 800184a:	4314      	orrs	r4, r2
 800184c:	1e62      	subs	r2, r4, #1
 800184e:	4194      	sbcs	r4, r2
 8001850:	e6a6      	b.n	80015a0 <__aeabi_dadd+0x8c>
 8001852:	4c0d      	ldr	r4, [pc, #52]	; (8001888 <__aeabi_dadd+0x374>)
 8001854:	1c72      	adds	r2, r6, #1
 8001856:	4222      	tst	r2, r4
 8001858:	d000      	beq.n	800185c <__aeabi_dadd+0x348>
 800185a:	e0a8      	b.n	80019ae <__aeabi_dadd+0x49a>
 800185c:	000a      	movs	r2, r1
 800185e:	431a      	orrs	r2, r3
 8001860:	2e00      	cmp	r6, #0
 8001862:	d000      	beq.n	8001866 <__aeabi_dadd+0x352>
 8001864:	e10a      	b.n	8001a7c <__aeabi_dadd+0x568>
 8001866:	2a00      	cmp	r2, #0
 8001868:	d100      	bne.n	800186c <__aeabi_dadd+0x358>
 800186a:	e15e      	b.n	8001b2a <__aeabi_dadd+0x616>
 800186c:	464a      	mov	r2, r9
 800186e:	4302      	orrs	r2, r0
 8001870:	d000      	beq.n	8001874 <__aeabi_dadd+0x360>
 8001872:	e161      	b.n	8001b38 <__aeabi_dadd+0x624>
 8001874:	074a      	lsls	r2, r1, #29
 8001876:	08db      	lsrs	r3, r3, #3
 8001878:	4313      	orrs	r3, r2
 800187a:	08c9      	lsrs	r1, r1, #3
 800187c:	e77c      	b.n	8001778 <__aeabi_dadd+0x264>
 800187e:	46c0      	nop			; (mov r8, r8)
 8001880:	000007ff 	.word	0x000007ff
 8001884:	ff7fffff 	.word	0xff7fffff
 8001888:	000007fe 	.word	0x000007fe
 800188c:	4ccf      	ldr	r4, [pc, #828]	; (8001bcc <__aeabi_dadd+0x6b8>)
 800188e:	42a2      	cmp	r2, r4
 8001890:	d100      	bne.n	8001894 <__aeabi_dadd+0x380>
 8001892:	e0ce      	b.n	8001a32 <__aeabi_dadd+0x51e>
 8001894:	2480      	movs	r4, #128	; 0x80
 8001896:	0424      	lsls	r4, r4, #16
 8001898:	4321      	orrs	r1, r4
 800189a:	2f38      	cmp	r7, #56	; 0x38
 800189c:	dc5b      	bgt.n	8001956 <__aeabi_dadd+0x442>
 800189e:	2f1f      	cmp	r7, #31
 80018a0:	dd00      	ble.n	80018a4 <__aeabi_dadd+0x390>
 80018a2:	e0dc      	b.n	8001a5e <__aeabi_dadd+0x54a>
 80018a4:	2520      	movs	r5, #32
 80018a6:	000c      	movs	r4, r1
 80018a8:	1bed      	subs	r5, r5, r7
 80018aa:	001e      	movs	r6, r3
 80018ac:	40ab      	lsls	r3, r5
 80018ae:	40ac      	lsls	r4, r5
 80018b0:	40fe      	lsrs	r6, r7
 80018b2:	1e5d      	subs	r5, r3, #1
 80018b4:	41ab      	sbcs	r3, r5
 80018b6:	4334      	orrs	r4, r6
 80018b8:	40f9      	lsrs	r1, r7
 80018ba:	431c      	orrs	r4, r3
 80018bc:	464b      	mov	r3, r9
 80018be:	1a5b      	subs	r3, r3, r1
 80018c0:	4699      	mov	r9, r3
 80018c2:	e04c      	b.n	800195e <__aeabi_dadd+0x44a>
 80018c4:	464a      	mov	r2, r9
 80018c6:	1a1c      	subs	r4, r3, r0
 80018c8:	1a88      	subs	r0, r1, r2
 80018ca:	42a3      	cmp	r3, r4
 80018cc:	4192      	sbcs	r2, r2
 80018ce:	4252      	negs	r2, r2
 80018d0:	4692      	mov	sl, r2
 80018d2:	0002      	movs	r2, r0
 80018d4:	4650      	mov	r0, sl
 80018d6:	1a12      	subs	r2, r2, r0
 80018d8:	4692      	mov	sl, r2
 80018da:	0212      	lsls	r2, r2, #8
 80018dc:	d478      	bmi.n	80019d0 <__aeabi_dadd+0x4bc>
 80018de:	4653      	mov	r3, sl
 80018e0:	4323      	orrs	r3, r4
 80018e2:	d000      	beq.n	80018e6 <__aeabi_dadd+0x3d2>
 80018e4:	e66a      	b.n	80015bc <__aeabi_dadd+0xa8>
 80018e6:	2100      	movs	r1, #0
 80018e8:	2500      	movs	r5, #0
 80018ea:	e745      	b.n	8001778 <__aeabi_dadd+0x264>
 80018ec:	074a      	lsls	r2, r1, #29
 80018ee:	08db      	lsrs	r3, r3, #3
 80018f0:	4313      	orrs	r3, r2
 80018f2:	08c9      	lsrs	r1, r1, #3
 80018f4:	e73d      	b.n	8001772 <__aeabi_dadd+0x25e>
 80018f6:	181c      	adds	r4, r3, r0
 80018f8:	429c      	cmp	r4, r3
 80018fa:	419b      	sbcs	r3, r3
 80018fc:	4449      	add	r1, r9
 80018fe:	468a      	mov	sl, r1
 8001900:	425b      	negs	r3, r3
 8001902:	449a      	add	sl, r3
 8001904:	4653      	mov	r3, sl
 8001906:	2601      	movs	r6, #1
 8001908:	021b      	lsls	r3, r3, #8
 800190a:	d400      	bmi.n	800190e <__aeabi_dadd+0x3fa>
 800190c:	e727      	b.n	800175e <__aeabi_dadd+0x24a>
 800190e:	2602      	movs	r6, #2
 8001910:	4652      	mov	r2, sl
 8001912:	4baf      	ldr	r3, [pc, #700]	; (8001bd0 <__aeabi_dadd+0x6bc>)
 8001914:	2101      	movs	r1, #1
 8001916:	401a      	ands	r2, r3
 8001918:	0013      	movs	r3, r2
 800191a:	4021      	ands	r1, r4
 800191c:	0862      	lsrs	r2, r4, #1
 800191e:	430a      	orrs	r2, r1
 8001920:	07dc      	lsls	r4, r3, #31
 8001922:	085b      	lsrs	r3, r3, #1
 8001924:	469a      	mov	sl, r3
 8001926:	4314      	orrs	r4, r2
 8001928:	e670      	b.n	800160c <__aeabi_dadd+0xf8>
 800192a:	003a      	movs	r2, r7
 800192c:	464c      	mov	r4, r9
 800192e:	3a20      	subs	r2, #32
 8001930:	40d4      	lsrs	r4, r2
 8001932:	46a4      	mov	ip, r4
 8001934:	2f20      	cmp	r7, #32
 8001936:	d007      	beq.n	8001948 <__aeabi_dadd+0x434>
 8001938:	2240      	movs	r2, #64	; 0x40
 800193a:	4648      	mov	r0, r9
 800193c:	1bd2      	subs	r2, r2, r7
 800193e:	4090      	lsls	r0, r2
 8001940:	0002      	movs	r2, r0
 8001942:	4640      	mov	r0, r8
 8001944:	4310      	orrs	r0, r2
 8001946:	4680      	mov	r8, r0
 8001948:	4640      	mov	r0, r8
 800194a:	1e42      	subs	r2, r0, #1
 800194c:	4190      	sbcs	r0, r2
 800194e:	4662      	mov	r2, ip
 8001950:	0004      	movs	r4, r0
 8001952:	4314      	orrs	r4, r2
 8001954:	e624      	b.n	80015a0 <__aeabi_dadd+0x8c>
 8001956:	4319      	orrs	r1, r3
 8001958:	000c      	movs	r4, r1
 800195a:	1e63      	subs	r3, r4, #1
 800195c:	419c      	sbcs	r4, r3
 800195e:	4643      	mov	r3, r8
 8001960:	1b1c      	subs	r4, r3, r4
 8001962:	45a0      	cmp	r8, r4
 8001964:	419b      	sbcs	r3, r3
 8001966:	4649      	mov	r1, r9
 8001968:	425b      	negs	r3, r3
 800196a:	1acb      	subs	r3, r1, r3
 800196c:	469a      	mov	sl, r3
 800196e:	4665      	mov	r5, ip
 8001970:	0016      	movs	r6, r2
 8001972:	e61b      	b.n	80015ac <__aeabi_dadd+0x98>
 8001974:	000c      	movs	r4, r1
 8001976:	431c      	orrs	r4, r3
 8001978:	d100      	bne.n	800197c <__aeabi_dadd+0x468>
 800197a:	e0c7      	b.n	8001b0c <__aeabi_dadd+0x5f8>
 800197c:	1e7c      	subs	r4, r7, #1
 800197e:	2f01      	cmp	r7, #1
 8001980:	d100      	bne.n	8001984 <__aeabi_dadd+0x470>
 8001982:	e0f9      	b.n	8001b78 <__aeabi_dadd+0x664>
 8001984:	4e91      	ldr	r6, [pc, #580]	; (8001bcc <__aeabi_dadd+0x6b8>)
 8001986:	42b7      	cmp	r7, r6
 8001988:	d05c      	beq.n	8001a44 <__aeabi_dadd+0x530>
 800198a:	0027      	movs	r7, r4
 800198c:	e740      	b.n	8001810 <__aeabi_dadd+0x2fc>
 800198e:	2220      	movs	r2, #32
 8001990:	464c      	mov	r4, r9
 8001992:	4640      	mov	r0, r8
 8001994:	1bd2      	subs	r2, r2, r7
 8001996:	4094      	lsls	r4, r2
 8001998:	40f8      	lsrs	r0, r7
 800199a:	4304      	orrs	r4, r0
 800199c:	4640      	mov	r0, r8
 800199e:	4090      	lsls	r0, r2
 80019a0:	1e42      	subs	r2, r0, #1
 80019a2:	4190      	sbcs	r0, r2
 80019a4:	464a      	mov	r2, r9
 80019a6:	40fa      	lsrs	r2, r7
 80019a8:	4304      	orrs	r4, r0
 80019aa:	1889      	adds	r1, r1, r2
 80019ac:	e6ee      	b.n	800178c <__aeabi_dadd+0x278>
 80019ae:	4c87      	ldr	r4, [pc, #540]	; (8001bcc <__aeabi_dadd+0x6b8>)
 80019b0:	42a2      	cmp	r2, r4
 80019b2:	d100      	bne.n	80019b6 <__aeabi_dadd+0x4a2>
 80019b4:	e6f9      	b.n	80017aa <__aeabi_dadd+0x296>
 80019b6:	1818      	adds	r0, r3, r0
 80019b8:	4298      	cmp	r0, r3
 80019ba:	419b      	sbcs	r3, r3
 80019bc:	4449      	add	r1, r9
 80019be:	425b      	negs	r3, r3
 80019c0:	18cb      	adds	r3, r1, r3
 80019c2:	07dc      	lsls	r4, r3, #31
 80019c4:	0840      	lsrs	r0, r0, #1
 80019c6:	085b      	lsrs	r3, r3, #1
 80019c8:	469a      	mov	sl, r3
 80019ca:	0016      	movs	r6, r2
 80019cc:	4304      	orrs	r4, r0
 80019ce:	e6c6      	b.n	800175e <__aeabi_dadd+0x24a>
 80019d0:	4642      	mov	r2, r8
 80019d2:	1ad4      	subs	r4, r2, r3
 80019d4:	45a0      	cmp	r8, r4
 80019d6:	4180      	sbcs	r0, r0
 80019d8:	464b      	mov	r3, r9
 80019da:	4240      	negs	r0, r0
 80019dc:	1a59      	subs	r1, r3, r1
 80019de:	1a0b      	subs	r3, r1, r0
 80019e0:	469a      	mov	sl, r3
 80019e2:	4665      	mov	r5, ip
 80019e4:	e5ea      	b.n	80015bc <__aeabi_dadd+0xa8>
 80019e6:	464b      	mov	r3, r9
 80019e8:	464a      	mov	r2, r9
 80019ea:	08c0      	lsrs	r0, r0, #3
 80019ec:	075b      	lsls	r3, r3, #29
 80019ee:	4665      	mov	r5, ip
 80019f0:	4303      	orrs	r3, r0
 80019f2:	08d1      	lsrs	r1, r2, #3
 80019f4:	e6bd      	b.n	8001772 <__aeabi_dadd+0x25e>
 80019f6:	2a00      	cmp	r2, #0
 80019f8:	d000      	beq.n	80019fc <__aeabi_dadd+0x4e8>
 80019fa:	e08e      	b.n	8001b1a <__aeabi_dadd+0x606>
 80019fc:	464b      	mov	r3, r9
 80019fe:	4303      	orrs	r3, r0
 8001a00:	d117      	bne.n	8001a32 <__aeabi_dadd+0x51e>
 8001a02:	2180      	movs	r1, #128	; 0x80
 8001a04:	2500      	movs	r5, #0
 8001a06:	0309      	lsls	r1, r1, #12
 8001a08:	e6da      	b.n	80017c0 <__aeabi_dadd+0x2ac>
 8001a0a:	074a      	lsls	r2, r1, #29
 8001a0c:	08db      	lsrs	r3, r3, #3
 8001a0e:	4313      	orrs	r3, r2
 8001a10:	08c9      	lsrs	r1, r1, #3
 8001a12:	e6d1      	b.n	80017b8 <__aeabi_dadd+0x2a4>
 8001a14:	1a1c      	subs	r4, r3, r0
 8001a16:	464a      	mov	r2, r9
 8001a18:	42a3      	cmp	r3, r4
 8001a1a:	419b      	sbcs	r3, r3
 8001a1c:	1a89      	subs	r1, r1, r2
 8001a1e:	425b      	negs	r3, r3
 8001a20:	1acb      	subs	r3, r1, r3
 8001a22:	469a      	mov	sl, r3
 8001a24:	2601      	movs	r6, #1
 8001a26:	e5c1      	b.n	80015ac <__aeabi_dadd+0x98>
 8001a28:	074a      	lsls	r2, r1, #29
 8001a2a:	08db      	lsrs	r3, r3, #3
 8001a2c:	4313      	orrs	r3, r2
 8001a2e:	08c9      	lsrs	r1, r1, #3
 8001a30:	e69f      	b.n	8001772 <__aeabi_dadd+0x25e>
 8001a32:	4643      	mov	r3, r8
 8001a34:	08d8      	lsrs	r0, r3, #3
 8001a36:	464b      	mov	r3, r9
 8001a38:	464a      	mov	r2, r9
 8001a3a:	075b      	lsls	r3, r3, #29
 8001a3c:	4665      	mov	r5, ip
 8001a3e:	4303      	orrs	r3, r0
 8001a40:	08d1      	lsrs	r1, r2, #3
 8001a42:	e6b9      	b.n	80017b8 <__aeabi_dadd+0x2a4>
 8001a44:	4643      	mov	r3, r8
 8001a46:	08d8      	lsrs	r0, r3, #3
 8001a48:	464b      	mov	r3, r9
 8001a4a:	464a      	mov	r2, r9
 8001a4c:	075b      	lsls	r3, r3, #29
 8001a4e:	4303      	orrs	r3, r0
 8001a50:	08d1      	lsrs	r1, r2, #3
 8001a52:	e6b1      	b.n	80017b8 <__aeabi_dadd+0x2a4>
 8001a54:	4319      	orrs	r1, r3
 8001a56:	000c      	movs	r4, r1
 8001a58:	1e63      	subs	r3, r4, #1
 8001a5a:	419c      	sbcs	r4, r3
 8001a5c:	e6eb      	b.n	8001836 <__aeabi_dadd+0x322>
 8001a5e:	003c      	movs	r4, r7
 8001a60:	000d      	movs	r5, r1
 8001a62:	3c20      	subs	r4, #32
 8001a64:	40e5      	lsrs	r5, r4
 8001a66:	2f20      	cmp	r7, #32
 8001a68:	d003      	beq.n	8001a72 <__aeabi_dadd+0x55e>
 8001a6a:	2440      	movs	r4, #64	; 0x40
 8001a6c:	1be4      	subs	r4, r4, r7
 8001a6e:	40a1      	lsls	r1, r4
 8001a70:	430b      	orrs	r3, r1
 8001a72:	001c      	movs	r4, r3
 8001a74:	1e63      	subs	r3, r4, #1
 8001a76:	419c      	sbcs	r4, r3
 8001a78:	432c      	orrs	r4, r5
 8001a7a:	e770      	b.n	800195e <__aeabi_dadd+0x44a>
 8001a7c:	2a00      	cmp	r2, #0
 8001a7e:	d0e1      	beq.n	8001a44 <__aeabi_dadd+0x530>
 8001a80:	464a      	mov	r2, r9
 8001a82:	4302      	orrs	r2, r0
 8001a84:	d0c1      	beq.n	8001a0a <__aeabi_dadd+0x4f6>
 8001a86:	074a      	lsls	r2, r1, #29
 8001a88:	08db      	lsrs	r3, r3, #3
 8001a8a:	4313      	orrs	r3, r2
 8001a8c:	2280      	movs	r2, #128	; 0x80
 8001a8e:	08c9      	lsrs	r1, r1, #3
 8001a90:	0312      	lsls	r2, r2, #12
 8001a92:	4211      	tst	r1, r2
 8001a94:	d008      	beq.n	8001aa8 <__aeabi_dadd+0x594>
 8001a96:	4648      	mov	r0, r9
 8001a98:	08c4      	lsrs	r4, r0, #3
 8001a9a:	4214      	tst	r4, r2
 8001a9c:	d104      	bne.n	8001aa8 <__aeabi_dadd+0x594>
 8001a9e:	4643      	mov	r3, r8
 8001aa0:	0021      	movs	r1, r4
 8001aa2:	08db      	lsrs	r3, r3, #3
 8001aa4:	0742      	lsls	r2, r0, #29
 8001aa6:	4313      	orrs	r3, r2
 8001aa8:	0f5a      	lsrs	r2, r3, #29
 8001aaa:	00db      	lsls	r3, r3, #3
 8001aac:	0752      	lsls	r2, r2, #29
 8001aae:	08db      	lsrs	r3, r3, #3
 8001ab0:	4313      	orrs	r3, r2
 8001ab2:	e681      	b.n	80017b8 <__aeabi_dadd+0x2a4>
 8001ab4:	464b      	mov	r3, r9
 8001ab6:	4303      	orrs	r3, r0
 8001ab8:	d100      	bne.n	8001abc <__aeabi_dadd+0x5a8>
 8001aba:	e714      	b.n	80018e6 <__aeabi_dadd+0x3d2>
 8001abc:	464b      	mov	r3, r9
 8001abe:	464a      	mov	r2, r9
 8001ac0:	08c0      	lsrs	r0, r0, #3
 8001ac2:	075b      	lsls	r3, r3, #29
 8001ac4:	4665      	mov	r5, ip
 8001ac6:	4303      	orrs	r3, r0
 8001ac8:	08d1      	lsrs	r1, r2, #3
 8001aca:	e655      	b.n	8001778 <__aeabi_dadd+0x264>
 8001acc:	1ac4      	subs	r4, r0, r3
 8001ace:	45a0      	cmp	r8, r4
 8001ad0:	4180      	sbcs	r0, r0
 8001ad2:	464b      	mov	r3, r9
 8001ad4:	4240      	negs	r0, r0
 8001ad6:	1a59      	subs	r1, r3, r1
 8001ad8:	1a0b      	subs	r3, r1, r0
 8001ada:	469a      	mov	sl, r3
 8001adc:	4665      	mov	r5, ip
 8001ade:	2601      	movs	r6, #1
 8001ae0:	e564      	b.n	80015ac <__aeabi_dadd+0x98>
 8001ae2:	1a1c      	subs	r4, r3, r0
 8001ae4:	464a      	mov	r2, r9
 8001ae6:	42a3      	cmp	r3, r4
 8001ae8:	4180      	sbcs	r0, r0
 8001aea:	1a8a      	subs	r2, r1, r2
 8001aec:	4240      	negs	r0, r0
 8001aee:	1a12      	subs	r2, r2, r0
 8001af0:	4692      	mov	sl, r2
 8001af2:	0212      	lsls	r2, r2, #8
 8001af4:	d549      	bpl.n	8001b8a <__aeabi_dadd+0x676>
 8001af6:	4642      	mov	r2, r8
 8001af8:	1ad4      	subs	r4, r2, r3
 8001afa:	45a0      	cmp	r8, r4
 8001afc:	4180      	sbcs	r0, r0
 8001afe:	464b      	mov	r3, r9
 8001b00:	4240      	negs	r0, r0
 8001b02:	1a59      	subs	r1, r3, r1
 8001b04:	1a0b      	subs	r3, r1, r0
 8001b06:	469a      	mov	sl, r3
 8001b08:	4665      	mov	r5, ip
 8001b0a:	e57f      	b.n	800160c <__aeabi_dadd+0xf8>
 8001b0c:	464b      	mov	r3, r9
 8001b0e:	464a      	mov	r2, r9
 8001b10:	08c0      	lsrs	r0, r0, #3
 8001b12:	075b      	lsls	r3, r3, #29
 8001b14:	4303      	orrs	r3, r0
 8001b16:	08d1      	lsrs	r1, r2, #3
 8001b18:	e62b      	b.n	8001772 <__aeabi_dadd+0x25e>
 8001b1a:	464a      	mov	r2, r9
 8001b1c:	08db      	lsrs	r3, r3, #3
 8001b1e:	4302      	orrs	r2, r0
 8001b20:	d138      	bne.n	8001b94 <__aeabi_dadd+0x680>
 8001b22:	074a      	lsls	r2, r1, #29
 8001b24:	4313      	orrs	r3, r2
 8001b26:	08c9      	lsrs	r1, r1, #3
 8001b28:	e646      	b.n	80017b8 <__aeabi_dadd+0x2a4>
 8001b2a:	464b      	mov	r3, r9
 8001b2c:	464a      	mov	r2, r9
 8001b2e:	08c0      	lsrs	r0, r0, #3
 8001b30:	075b      	lsls	r3, r3, #29
 8001b32:	4303      	orrs	r3, r0
 8001b34:	08d1      	lsrs	r1, r2, #3
 8001b36:	e61f      	b.n	8001778 <__aeabi_dadd+0x264>
 8001b38:	181c      	adds	r4, r3, r0
 8001b3a:	429c      	cmp	r4, r3
 8001b3c:	419b      	sbcs	r3, r3
 8001b3e:	4449      	add	r1, r9
 8001b40:	468a      	mov	sl, r1
 8001b42:	425b      	negs	r3, r3
 8001b44:	449a      	add	sl, r3
 8001b46:	4653      	mov	r3, sl
 8001b48:	021b      	lsls	r3, r3, #8
 8001b4a:	d400      	bmi.n	8001b4e <__aeabi_dadd+0x63a>
 8001b4c:	e607      	b.n	800175e <__aeabi_dadd+0x24a>
 8001b4e:	4652      	mov	r2, sl
 8001b50:	4b1f      	ldr	r3, [pc, #124]	; (8001bd0 <__aeabi_dadd+0x6bc>)
 8001b52:	2601      	movs	r6, #1
 8001b54:	401a      	ands	r2, r3
 8001b56:	4692      	mov	sl, r2
 8001b58:	e601      	b.n	800175e <__aeabi_dadd+0x24a>
 8001b5a:	003c      	movs	r4, r7
 8001b5c:	000e      	movs	r6, r1
 8001b5e:	3c20      	subs	r4, #32
 8001b60:	40e6      	lsrs	r6, r4
 8001b62:	2f20      	cmp	r7, #32
 8001b64:	d003      	beq.n	8001b6e <__aeabi_dadd+0x65a>
 8001b66:	2440      	movs	r4, #64	; 0x40
 8001b68:	1be4      	subs	r4, r4, r7
 8001b6a:	40a1      	lsls	r1, r4
 8001b6c:	430b      	orrs	r3, r1
 8001b6e:	001c      	movs	r4, r3
 8001b70:	1e63      	subs	r3, r4, #1
 8001b72:	419c      	sbcs	r4, r3
 8001b74:	4334      	orrs	r4, r6
 8001b76:	e65e      	b.n	8001836 <__aeabi_dadd+0x322>
 8001b78:	4443      	add	r3, r8
 8001b7a:	4283      	cmp	r3, r0
 8001b7c:	4180      	sbcs	r0, r0
 8001b7e:	4449      	add	r1, r9
 8001b80:	468a      	mov	sl, r1
 8001b82:	4240      	negs	r0, r0
 8001b84:	001c      	movs	r4, r3
 8001b86:	4482      	add	sl, r0
 8001b88:	e6bc      	b.n	8001904 <__aeabi_dadd+0x3f0>
 8001b8a:	4653      	mov	r3, sl
 8001b8c:	4323      	orrs	r3, r4
 8001b8e:	d100      	bne.n	8001b92 <__aeabi_dadd+0x67e>
 8001b90:	e6a9      	b.n	80018e6 <__aeabi_dadd+0x3d2>
 8001b92:	e5e4      	b.n	800175e <__aeabi_dadd+0x24a>
 8001b94:	074a      	lsls	r2, r1, #29
 8001b96:	4313      	orrs	r3, r2
 8001b98:	2280      	movs	r2, #128	; 0x80
 8001b9a:	08c9      	lsrs	r1, r1, #3
 8001b9c:	0312      	lsls	r2, r2, #12
 8001b9e:	4211      	tst	r1, r2
 8001ba0:	d009      	beq.n	8001bb6 <__aeabi_dadd+0x6a2>
 8001ba2:	4648      	mov	r0, r9
 8001ba4:	08c4      	lsrs	r4, r0, #3
 8001ba6:	4214      	tst	r4, r2
 8001ba8:	d105      	bne.n	8001bb6 <__aeabi_dadd+0x6a2>
 8001baa:	4643      	mov	r3, r8
 8001bac:	4665      	mov	r5, ip
 8001bae:	0021      	movs	r1, r4
 8001bb0:	08db      	lsrs	r3, r3, #3
 8001bb2:	0742      	lsls	r2, r0, #29
 8001bb4:	4313      	orrs	r3, r2
 8001bb6:	0f5a      	lsrs	r2, r3, #29
 8001bb8:	00db      	lsls	r3, r3, #3
 8001bba:	08db      	lsrs	r3, r3, #3
 8001bbc:	0752      	lsls	r2, r2, #29
 8001bbe:	4313      	orrs	r3, r2
 8001bc0:	e5fa      	b.n	80017b8 <__aeabi_dadd+0x2a4>
 8001bc2:	2300      	movs	r3, #0
 8001bc4:	4a01      	ldr	r2, [pc, #4]	; (8001bcc <__aeabi_dadd+0x6b8>)
 8001bc6:	001c      	movs	r4, r3
 8001bc8:	e540      	b.n	800164c <__aeabi_dadd+0x138>
 8001bca:	46c0      	nop			; (mov r8, r8)
 8001bcc:	000007ff 	.word	0x000007ff
 8001bd0:	ff7fffff 	.word	0xff7fffff

08001bd4 <__aeabi_ddiv>:
 8001bd4:	b5f0      	push	{r4, r5, r6, r7, lr}
 8001bd6:	4657      	mov	r7, sl
 8001bd8:	464e      	mov	r6, r9
 8001bda:	4645      	mov	r5, r8
 8001bdc:	46de      	mov	lr, fp
 8001bde:	b5e0      	push	{r5, r6, r7, lr}
 8001be0:	030c      	lsls	r4, r1, #12
 8001be2:	001f      	movs	r7, r3
 8001be4:	004b      	lsls	r3, r1, #1
 8001be6:	4681      	mov	r9, r0
 8001be8:	4692      	mov	sl, r2
 8001bea:	0005      	movs	r5, r0
 8001bec:	b085      	sub	sp, #20
 8001bee:	0b24      	lsrs	r4, r4, #12
 8001bf0:	0d5b      	lsrs	r3, r3, #21
 8001bf2:	0fce      	lsrs	r6, r1, #31
 8001bf4:	2b00      	cmp	r3, #0
 8001bf6:	d100      	bne.n	8001bfa <__aeabi_ddiv+0x26>
 8001bf8:	e152      	b.n	8001ea0 <__aeabi_ddiv+0x2cc>
 8001bfa:	4ad2      	ldr	r2, [pc, #840]	; (8001f44 <__aeabi_ddiv+0x370>)
 8001bfc:	4293      	cmp	r3, r2
 8001bfe:	d100      	bne.n	8001c02 <__aeabi_ddiv+0x2e>
 8001c00:	e16e      	b.n	8001ee0 <__aeabi_ddiv+0x30c>
 8001c02:	0f42      	lsrs	r2, r0, #29
 8001c04:	00e4      	lsls	r4, r4, #3
 8001c06:	4314      	orrs	r4, r2
 8001c08:	2280      	movs	r2, #128	; 0x80
 8001c0a:	0412      	lsls	r2, r2, #16
 8001c0c:	4322      	orrs	r2, r4
 8001c0e:	4690      	mov	r8, r2
 8001c10:	4acd      	ldr	r2, [pc, #820]	; (8001f48 <__aeabi_ddiv+0x374>)
 8001c12:	00c5      	lsls	r5, r0, #3
 8001c14:	4693      	mov	fp, r2
 8001c16:	449b      	add	fp, r3
 8001c18:	2300      	movs	r3, #0
 8001c1a:	4699      	mov	r9, r3
 8001c1c:	9300      	str	r3, [sp, #0]
 8001c1e:	033c      	lsls	r4, r7, #12
 8001c20:	007b      	lsls	r3, r7, #1
 8001c22:	4650      	mov	r0, sl
 8001c24:	0b24      	lsrs	r4, r4, #12
 8001c26:	0d5b      	lsrs	r3, r3, #21
 8001c28:	0fff      	lsrs	r7, r7, #31
 8001c2a:	2b00      	cmp	r3, #0
 8001c2c:	d100      	bne.n	8001c30 <__aeabi_ddiv+0x5c>
 8001c2e:	e11a      	b.n	8001e66 <__aeabi_ddiv+0x292>
 8001c30:	4ac4      	ldr	r2, [pc, #784]	; (8001f44 <__aeabi_ddiv+0x370>)
 8001c32:	4293      	cmp	r3, r2
 8001c34:	d100      	bne.n	8001c38 <__aeabi_ddiv+0x64>
 8001c36:	e15e      	b.n	8001ef6 <__aeabi_ddiv+0x322>
 8001c38:	0f42      	lsrs	r2, r0, #29
 8001c3a:	00e4      	lsls	r4, r4, #3
 8001c3c:	4322      	orrs	r2, r4
 8001c3e:	2480      	movs	r4, #128	; 0x80
 8001c40:	0424      	lsls	r4, r4, #16
 8001c42:	4314      	orrs	r4, r2
 8001c44:	4ac0      	ldr	r2, [pc, #768]	; (8001f48 <__aeabi_ddiv+0x374>)
 8001c46:	00c1      	lsls	r1, r0, #3
 8001c48:	4694      	mov	ip, r2
 8001c4a:	465a      	mov	r2, fp
 8001c4c:	4463      	add	r3, ip
 8001c4e:	1ad3      	subs	r3, r2, r3
 8001c50:	469b      	mov	fp, r3
 8001c52:	2000      	movs	r0, #0
 8001c54:	0033      	movs	r3, r6
 8001c56:	407b      	eors	r3, r7
 8001c58:	469a      	mov	sl, r3
 8001c5a:	464b      	mov	r3, r9
 8001c5c:	2b0f      	cmp	r3, #15
 8001c5e:	d827      	bhi.n	8001cb0 <__aeabi_ddiv+0xdc>
 8001c60:	4aba      	ldr	r2, [pc, #744]	; (8001f4c <__aeabi_ddiv+0x378>)
 8001c62:	009b      	lsls	r3, r3, #2
 8001c64:	58d3      	ldr	r3, [r2, r3]
 8001c66:	469f      	mov	pc, r3
 8001c68:	46b2      	mov	sl, r6
 8001c6a:	9b00      	ldr	r3, [sp, #0]
 8001c6c:	2b02      	cmp	r3, #2
 8001c6e:	d016      	beq.n	8001c9e <__aeabi_ddiv+0xca>
 8001c70:	2b03      	cmp	r3, #3
 8001c72:	d100      	bne.n	8001c76 <__aeabi_ddiv+0xa2>
 8001c74:	e287      	b.n	8002186 <__aeabi_ddiv+0x5b2>
 8001c76:	2b01      	cmp	r3, #1
 8001c78:	d000      	beq.n	8001c7c <__aeabi_ddiv+0xa8>
 8001c7a:	e0d5      	b.n	8001e28 <__aeabi_ddiv+0x254>
 8001c7c:	2300      	movs	r3, #0
 8001c7e:	2200      	movs	r2, #0
 8001c80:	2500      	movs	r5, #0
 8001c82:	051b      	lsls	r3, r3, #20
 8001c84:	4313      	orrs	r3, r2
 8001c86:	4652      	mov	r2, sl
 8001c88:	07d2      	lsls	r2, r2, #31
 8001c8a:	4313      	orrs	r3, r2
 8001c8c:	0028      	movs	r0, r5
 8001c8e:	0019      	movs	r1, r3
 8001c90:	b005      	add	sp, #20
 8001c92:	bcf0      	pop	{r4, r5, r6, r7}
 8001c94:	46bb      	mov	fp, r7
 8001c96:	46b2      	mov	sl, r6
 8001c98:	46a9      	mov	r9, r5
 8001c9a:	46a0      	mov	r8, r4
 8001c9c:	bdf0      	pop	{r4, r5, r6, r7, pc}
 8001c9e:	2200      	movs	r2, #0
 8001ca0:	2500      	movs	r5, #0
 8001ca2:	4ba8      	ldr	r3, [pc, #672]	; (8001f44 <__aeabi_ddiv+0x370>)
 8001ca4:	e7ed      	b.n	8001c82 <__aeabi_ddiv+0xae>
 8001ca6:	46ba      	mov	sl, r7
 8001ca8:	46a0      	mov	r8, r4
 8001caa:	000d      	movs	r5, r1
 8001cac:	9000      	str	r0, [sp, #0]
 8001cae:	e7dc      	b.n	8001c6a <__aeabi_ddiv+0x96>
 8001cb0:	4544      	cmp	r4, r8
 8001cb2:	d200      	bcs.n	8001cb6 <__aeabi_ddiv+0xe2>
 8001cb4:	e1c4      	b.n	8002040 <__aeabi_ddiv+0x46c>
 8001cb6:	d100      	bne.n	8001cba <__aeabi_ddiv+0xe6>
 8001cb8:	e1bf      	b.n	800203a <__aeabi_ddiv+0x466>
 8001cba:	2301      	movs	r3, #1
 8001cbc:	425b      	negs	r3, r3
 8001cbe:	469c      	mov	ip, r3
 8001cc0:	002e      	movs	r6, r5
 8001cc2:	4640      	mov	r0, r8
 8001cc4:	2500      	movs	r5, #0
 8001cc6:	44e3      	add	fp, ip
 8001cc8:	0223      	lsls	r3, r4, #8
 8001cca:	0e0c      	lsrs	r4, r1, #24
 8001ccc:	431c      	orrs	r4, r3
 8001cce:	0c1b      	lsrs	r3, r3, #16
 8001cd0:	4699      	mov	r9, r3
 8001cd2:	0423      	lsls	r3, r4, #16
 8001cd4:	020a      	lsls	r2, r1, #8
 8001cd6:	0c1f      	lsrs	r7, r3, #16
 8001cd8:	4649      	mov	r1, r9
 8001cda:	9200      	str	r2, [sp, #0]
 8001cdc:	9701      	str	r7, [sp, #4]
 8001cde:	f7fe fab5 	bl	800024c <__aeabi_uidivmod>
 8001ce2:	0002      	movs	r2, r0
 8001ce4:	437a      	muls	r2, r7
 8001ce6:	040b      	lsls	r3, r1, #16
 8001ce8:	0c31      	lsrs	r1, r6, #16
 8001cea:	4680      	mov	r8, r0
 8001cec:	4319      	orrs	r1, r3
 8001cee:	428a      	cmp	r2, r1
 8001cf0:	d907      	bls.n	8001d02 <__aeabi_ddiv+0x12e>
 8001cf2:	2301      	movs	r3, #1
 8001cf4:	425b      	negs	r3, r3
 8001cf6:	469c      	mov	ip, r3
 8001cf8:	1909      	adds	r1, r1, r4
 8001cfa:	44e0      	add	r8, ip
 8001cfc:	428c      	cmp	r4, r1
 8001cfe:	d800      	bhi.n	8001d02 <__aeabi_ddiv+0x12e>
 8001d00:	e201      	b.n	8002106 <__aeabi_ddiv+0x532>
 8001d02:	1a88      	subs	r0, r1, r2
 8001d04:	4649      	mov	r1, r9
 8001d06:	f7fe faa1 	bl	800024c <__aeabi_uidivmod>
 8001d0a:	9a01      	ldr	r2, [sp, #4]
 8001d0c:	0436      	lsls	r6, r6, #16
 8001d0e:	4342      	muls	r2, r0
 8001d10:	0409      	lsls	r1, r1, #16
 8001d12:	0c36      	lsrs	r6, r6, #16
 8001d14:	0003      	movs	r3, r0
 8001d16:	430e      	orrs	r6, r1
 8001d18:	42b2      	cmp	r2, r6
 8001d1a:	d904      	bls.n	8001d26 <__aeabi_ddiv+0x152>
 8001d1c:	1936      	adds	r6, r6, r4
 8001d1e:	3b01      	subs	r3, #1
 8001d20:	42b4      	cmp	r4, r6
 8001d22:	d800      	bhi.n	8001d26 <__aeabi_ddiv+0x152>
 8001d24:	e1e9      	b.n	80020fa <__aeabi_ddiv+0x526>
 8001d26:	1ab0      	subs	r0, r6, r2
 8001d28:	4642      	mov	r2, r8
 8001d2a:	9e00      	ldr	r6, [sp, #0]
 8001d2c:	0412      	lsls	r2, r2, #16
 8001d2e:	431a      	orrs	r2, r3
 8001d30:	0c33      	lsrs	r3, r6, #16
 8001d32:	001f      	movs	r7, r3
 8001d34:	0c11      	lsrs	r1, r2, #16
 8001d36:	4690      	mov	r8, r2
 8001d38:	9302      	str	r3, [sp, #8]
 8001d3a:	0413      	lsls	r3, r2, #16
 8001d3c:	0432      	lsls	r2, r6, #16
 8001d3e:	0c16      	lsrs	r6, r2, #16
 8001d40:	0032      	movs	r2, r6
 8001d42:	0c1b      	lsrs	r3, r3, #16
 8001d44:	435a      	muls	r2, r3
 8001d46:	9603      	str	r6, [sp, #12]
 8001d48:	437b      	muls	r3, r7
 8001d4a:	434e      	muls	r6, r1
 8001d4c:	4379      	muls	r1, r7
 8001d4e:	0c17      	lsrs	r7, r2, #16
 8001d50:	46bc      	mov	ip, r7
 8001d52:	199b      	adds	r3, r3, r6
 8001d54:	4463      	add	r3, ip
 8001d56:	429e      	cmp	r6, r3
 8001d58:	d903      	bls.n	8001d62 <__aeabi_ddiv+0x18e>
 8001d5a:	2680      	movs	r6, #128	; 0x80
 8001d5c:	0276      	lsls	r6, r6, #9
 8001d5e:	46b4      	mov	ip, r6
 8001d60:	4461      	add	r1, ip
 8001d62:	0c1e      	lsrs	r6, r3, #16
 8001d64:	1871      	adds	r1, r6, r1
 8001d66:	0416      	lsls	r6, r2, #16
 8001d68:	041b      	lsls	r3, r3, #16
 8001d6a:	0c36      	lsrs	r6, r6, #16
 8001d6c:	199e      	adds	r6, r3, r6
 8001d6e:	4288      	cmp	r0, r1
 8001d70:	d302      	bcc.n	8001d78 <__aeabi_ddiv+0x1a4>
 8001d72:	d112      	bne.n	8001d9a <__aeabi_ddiv+0x1c6>
 8001d74:	42b5      	cmp	r5, r6
 8001d76:	d210      	bcs.n	8001d9a <__aeabi_ddiv+0x1c6>
 8001d78:	4643      	mov	r3, r8
 8001d7a:	1e5a      	subs	r2, r3, #1
 8001d7c:	9b00      	ldr	r3, [sp, #0]
 8001d7e:	469c      	mov	ip, r3
 8001d80:	4465      	add	r5, ip
 8001d82:	001f      	movs	r7, r3
 8001d84:	429d      	cmp	r5, r3
 8001d86:	419b      	sbcs	r3, r3
 8001d88:	425b      	negs	r3, r3
 8001d8a:	191b      	adds	r3, r3, r4
 8001d8c:	18c0      	adds	r0, r0, r3
 8001d8e:	4284      	cmp	r4, r0
 8001d90:	d200      	bcs.n	8001d94 <__aeabi_ddiv+0x1c0>
 8001d92:	e19e      	b.n	80020d2 <__aeabi_ddiv+0x4fe>
 8001d94:	d100      	bne.n	8001d98 <__aeabi_ddiv+0x1c4>
 8001d96:	e199      	b.n	80020cc <__aeabi_ddiv+0x4f8>
 8001d98:	4690      	mov	r8, r2
 8001d9a:	1bae      	subs	r6, r5, r6
 8001d9c:	42b5      	cmp	r5, r6
 8001d9e:	41ad      	sbcs	r5, r5
 8001da0:	1a40      	subs	r0, r0, r1
 8001da2:	426d      	negs	r5, r5
 8001da4:	1b40      	subs	r0, r0, r5
 8001da6:	4284      	cmp	r4, r0
 8001da8:	d100      	bne.n	8001dac <__aeabi_ddiv+0x1d8>
 8001daa:	e1d2      	b.n	8002152 <__aeabi_ddiv+0x57e>
 8001dac:	4649      	mov	r1, r9
 8001dae:	f7fe fa4d 	bl	800024c <__aeabi_uidivmod>
 8001db2:	9a01      	ldr	r2, [sp, #4]
 8001db4:	040b      	lsls	r3, r1, #16
 8001db6:	4342      	muls	r2, r0
 8001db8:	0c31      	lsrs	r1, r6, #16
 8001dba:	0005      	movs	r5, r0
 8001dbc:	4319      	orrs	r1, r3
 8001dbe:	428a      	cmp	r2, r1
 8001dc0:	d900      	bls.n	8001dc4 <__aeabi_ddiv+0x1f0>
 8001dc2:	e16c      	b.n	800209e <__aeabi_ddiv+0x4ca>
 8001dc4:	1a88      	subs	r0, r1, r2
 8001dc6:	4649      	mov	r1, r9
 8001dc8:	f7fe fa40 	bl	800024c <__aeabi_uidivmod>
 8001dcc:	9a01      	ldr	r2, [sp, #4]
 8001dce:	0436      	lsls	r6, r6, #16
 8001dd0:	4342      	muls	r2, r0
 8001dd2:	0409      	lsls	r1, r1, #16
 8001dd4:	0c36      	lsrs	r6, r6, #16
 8001dd6:	0003      	movs	r3, r0
 8001dd8:	430e      	orrs	r6, r1
 8001dda:	42b2      	cmp	r2, r6
 8001ddc:	d900      	bls.n	8001de0 <__aeabi_ddiv+0x20c>
 8001dde:	e153      	b.n	8002088 <__aeabi_ddiv+0x4b4>
 8001de0:	9803      	ldr	r0, [sp, #12]
 8001de2:	1ab6      	subs	r6, r6, r2
 8001de4:	0002      	movs	r2, r0
 8001de6:	042d      	lsls	r5, r5, #16
 8001de8:	431d      	orrs	r5, r3
 8001dea:	9f02      	ldr	r7, [sp, #8]
 8001dec:	042b      	lsls	r3, r5, #16
 8001dee:	0c1b      	lsrs	r3, r3, #16
 8001df0:	435a      	muls	r2, r3
 8001df2:	437b      	muls	r3, r7
 8001df4:	469c      	mov	ip, r3
 8001df6:	0c29      	lsrs	r1, r5, #16
 8001df8:	4348      	muls	r0, r1
 8001dfa:	0c13      	lsrs	r3, r2, #16
 8001dfc:	4484      	add	ip, r0
 8001dfe:	4463      	add	r3, ip
 8001e00:	4379      	muls	r1, r7
 8001e02:	4298      	cmp	r0, r3
 8001e04:	d903      	bls.n	8001e0e <__aeabi_ddiv+0x23a>
 8001e06:	2080      	movs	r0, #128	; 0x80
 8001e08:	0240      	lsls	r0, r0, #9
 8001e0a:	4684      	mov	ip, r0
 8001e0c:	4461      	add	r1, ip
 8001e0e:	0c18      	lsrs	r0, r3, #16
 8001e10:	0412      	lsls	r2, r2, #16
 8001e12:	041b      	lsls	r3, r3, #16
 8001e14:	0c12      	lsrs	r2, r2, #16
 8001e16:	1840      	adds	r0, r0, r1
 8001e18:	189b      	adds	r3, r3, r2
 8001e1a:	4286      	cmp	r6, r0
 8001e1c:	d200      	bcs.n	8001e20 <__aeabi_ddiv+0x24c>
 8001e1e:	e100      	b.n	8002022 <__aeabi_ddiv+0x44e>
 8001e20:	d100      	bne.n	8001e24 <__aeabi_ddiv+0x250>
 8001e22:	e0fb      	b.n	800201c <__aeabi_ddiv+0x448>
 8001e24:	2301      	movs	r3, #1
 8001e26:	431d      	orrs	r5, r3
 8001e28:	4b49      	ldr	r3, [pc, #292]	; (8001f50 <__aeabi_ddiv+0x37c>)
 8001e2a:	445b      	add	r3, fp
 8001e2c:	2b00      	cmp	r3, #0
 8001e2e:	dc00      	bgt.n	8001e32 <__aeabi_ddiv+0x25e>
 8001e30:	e0aa      	b.n	8001f88 <__aeabi_ddiv+0x3b4>
 8001e32:	076a      	lsls	r2, r5, #29
 8001e34:	d000      	beq.n	8001e38 <__aeabi_ddiv+0x264>
 8001e36:	e13d      	b.n	80020b4 <__aeabi_ddiv+0x4e0>
 8001e38:	08e9      	lsrs	r1, r5, #3
 8001e3a:	4642      	mov	r2, r8
 8001e3c:	01d2      	lsls	r2, r2, #7
 8001e3e:	d506      	bpl.n	8001e4e <__aeabi_ddiv+0x27a>
 8001e40:	4642      	mov	r2, r8
 8001e42:	4b44      	ldr	r3, [pc, #272]	; (8001f54 <__aeabi_ddiv+0x380>)
 8001e44:	401a      	ands	r2, r3
 8001e46:	2380      	movs	r3, #128	; 0x80
 8001e48:	4690      	mov	r8, r2
 8001e4a:	00db      	lsls	r3, r3, #3
 8001e4c:	445b      	add	r3, fp
 8001e4e:	4a42      	ldr	r2, [pc, #264]	; (8001f58 <__aeabi_ddiv+0x384>)
 8001e50:	4293      	cmp	r3, r2
 8001e52:	dd00      	ble.n	8001e56 <__aeabi_ddiv+0x282>
 8001e54:	e723      	b.n	8001c9e <__aeabi_ddiv+0xca>
 8001e56:	4642      	mov	r2, r8
 8001e58:	055b      	lsls	r3, r3, #21
 8001e5a:	0755      	lsls	r5, r2, #29
 8001e5c:	0252      	lsls	r2, r2, #9
 8001e5e:	430d      	orrs	r5, r1
 8001e60:	0b12      	lsrs	r2, r2, #12
 8001e62:	0d5b      	lsrs	r3, r3, #21
 8001e64:	e70d      	b.n	8001c82 <__aeabi_ddiv+0xae>
 8001e66:	4651      	mov	r1, sl
 8001e68:	4321      	orrs	r1, r4
 8001e6a:	d100      	bne.n	8001e6e <__aeabi_ddiv+0x29a>
 8001e6c:	e07c      	b.n	8001f68 <__aeabi_ddiv+0x394>
 8001e6e:	2c00      	cmp	r4, #0
 8001e70:	d100      	bne.n	8001e74 <__aeabi_ddiv+0x2a0>
 8001e72:	e0fb      	b.n	800206c <__aeabi_ddiv+0x498>
 8001e74:	0020      	movs	r0, r4
 8001e76:	f001 f995 	bl	80031a4 <__clzsi2>
 8001e7a:	0002      	movs	r2, r0
 8001e7c:	3a0b      	subs	r2, #11
 8001e7e:	231d      	movs	r3, #29
 8001e80:	1a9b      	subs	r3, r3, r2
 8001e82:	4652      	mov	r2, sl
 8001e84:	0001      	movs	r1, r0
 8001e86:	40da      	lsrs	r2, r3
 8001e88:	4653      	mov	r3, sl
 8001e8a:	3908      	subs	r1, #8
 8001e8c:	408b      	lsls	r3, r1
 8001e8e:	408c      	lsls	r4, r1
 8001e90:	0019      	movs	r1, r3
 8001e92:	4314      	orrs	r4, r2
 8001e94:	4b31      	ldr	r3, [pc, #196]	; (8001f5c <__aeabi_ddiv+0x388>)
 8001e96:	4458      	add	r0, fp
 8001e98:	469b      	mov	fp, r3
 8001e9a:	4483      	add	fp, r0
 8001e9c:	2000      	movs	r0, #0
 8001e9e:	e6d9      	b.n	8001c54 <__aeabi_ddiv+0x80>
 8001ea0:	0003      	movs	r3, r0
 8001ea2:	4323      	orrs	r3, r4
 8001ea4:	4698      	mov	r8, r3
 8001ea6:	d044      	beq.n	8001f32 <__aeabi_ddiv+0x35e>
 8001ea8:	2c00      	cmp	r4, #0
 8001eaa:	d100      	bne.n	8001eae <__aeabi_ddiv+0x2da>
 8001eac:	e0cf      	b.n	800204e <__aeabi_ddiv+0x47a>
 8001eae:	0020      	movs	r0, r4
 8001eb0:	f001 f978 	bl	80031a4 <__clzsi2>
 8001eb4:	0001      	movs	r1, r0
 8001eb6:	0002      	movs	r2, r0
 8001eb8:	390b      	subs	r1, #11
 8001eba:	231d      	movs	r3, #29
 8001ebc:	1a5b      	subs	r3, r3, r1
 8001ebe:	4649      	mov	r1, r9
 8001ec0:	0010      	movs	r0, r2
 8001ec2:	40d9      	lsrs	r1, r3
 8001ec4:	3808      	subs	r0, #8
 8001ec6:	4084      	lsls	r4, r0
 8001ec8:	000b      	movs	r3, r1
 8001eca:	464d      	mov	r5, r9
 8001ecc:	4323      	orrs	r3, r4
 8001ece:	4698      	mov	r8, r3
 8001ed0:	4085      	lsls	r5, r0
 8001ed2:	4b23      	ldr	r3, [pc, #140]	; (8001f60 <__aeabi_ddiv+0x38c>)
 8001ed4:	1a9b      	subs	r3, r3, r2
 8001ed6:	469b      	mov	fp, r3
 8001ed8:	2300      	movs	r3, #0
 8001eda:	4699      	mov	r9, r3
 8001edc:	9300      	str	r3, [sp, #0]
 8001ede:	e69e      	b.n	8001c1e <__aeabi_ddiv+0x4a>
 8001ee0:	0002      	movs	r2, r0
 8001ee2:	4322      	orrs	r2, r4
 8001ee4:	4690      	mov	r8, r2
 8001ee6:	d11d      	bne.n	8001f24 <__aeabi_ddiv+0x350>
 8001ee8:	2208      	movs	r2, #8
 8001eea:	469b      	mov	fp, r3
 8001eec:	2302      	movs	r3, #2
 8001eee:	2500      	movs	r5, #0
 8001ef0:	4691      	mov	r9, r2
 8001ef2:	9300      	str	r3, [sp, #0]
 8001ef4:	e693      	b.n	8001c1e <__aeabi_ddiv+0x4a>
 8001ef6:	4651      	mov	r1, sl
 8001ef8:	4321      	orrs	r1, r4
 8001efa:	d109      	bne.n	8001f10 <__aeabi_ddiv+0x33c>
 8001efc:	2302      	movs	r3, #2
 8001efe:	464a      	mov	r2, r9
 8001f00:	431a      	orrs	r2, r3
 8001f02:	4b18      	ldr	r3, [pc, #96]	; (8001f64 <__aeabi_ddiv+0x390>)
 8001f04:	4691      	mov	r9, r2
 8001f06:	469c      	mov	ip, r3
 8001f08:	2400      	movs	r4, #0
 8001f0a:	2002      	movs	r0, #2
 8001f0c:	44e3      	add	fp, ip
 8001f0e:	e6a1      	b.n	8001c54 <__aeabi_ddiv+0x80>
 8001f10:	2303      	movs	r3, #3
 8001f12:	464a      	mov	r2, r9
 8001f14:	431a      	orrs	r2, r3
 8001f16:	4b13      	ldr	r3, [pc, #76]	; (8001f64 <__aeabi_ddiv+0x390>)
 8001f18:	4691      	mov	r9, r2
 8001f1a:	469c      	mov	ip, r3
 8001f1c:	4651      	mov	r1, sl
 8001f1e:	2003      	movs	r0, #3
 8001f20:	44e3      	add	fp, ip
 8001f22:	e697      	b.n	8001c54 <__aeabi_ddiv+0x80>
 8001f24:	220c      	movs	r2, #12
 8001f26:	469b      	mov	fp, r3
 8001f28:	2303      	movs	r3, #3
 8001f2a:	46a0      	mov	r8, r4
 8001f2c:	4691      	mov	r9, r2
 8001f2e:	9300      	str	r3, [sp, #0]
 8001f30:	e675      	b.n	8001c1e <__aeabi_ddiv+0x4a>
 8001f32:	2304      	movs	r3, #4
 8001f34:	4699      	mov	r9, r3
 8001f36:	2300      	movs	r3, #0
 8001f38:	469b      	mov	fp, r3
 8001f3a:	3301      	adds	r3, #1
 8001f3c:	2500      	movs	r5, #0
 8001f3e:	9300      	str	r3, [sp, #0]
 8001f40:	e66d      	b.n	8001c1e <__aeabi_ddiv+0x4a>
 8001f42:	46c0      	nop			; (mov r8, r8)
 8001f44:	000007ff 	.word	0x000007ff
 8001f48:	fffffc01 	.word	0xfffffc01
 8001f4c:	0800fd50 	.word	0x0800fd50
 8001f50:	000003ff 	.word	0x000003ff
 8001f54:	feffffff 	.word	0xfeffffff
 8001f58:	000007fe 	.word	0x000007fe
 8001f5c:	000003f3 	.word	0x000003f3
 8001f60:	fffffc0d 	.word	0xfffffc0d
 8001f64:	fffff801 	.word	0xfffff801
 8001f68:	464a      	mov	r2, r9
 8001f6a:	2301      	movs	r3, #1
 8001f6c:	431a      	orrs	r2, r3
 8001f6e:	4691      	mov	r9, r2
 8001f70:	2400      	movs	r4, #0
 8001f72:	2001      	movs	r0, #1
 8001f74:	e66e      	b.n	8001c54 <__aeabi_ddiv+0x80>
 8001f76:	2300      	movs	r3, #0
 8001f78:	2280      	movs	r2, #128	; 0x80
 8001f7a:	469a      	mov	sl, r3
 8001f7c:	2500      	movs	r5, #0
 8001f7e:	4b88      	ldr	r3, [pc, #544]	; (80021a0 <__aeabi_ddiv+0x5cc>)
 8001f80:	0312      	lsls	r2, r2, #12
 8001f82:	e67e      	b.n	8001c82 <__aeabi_ddiv+0xae>
 8001f84:	2501      	movs	r5, #1
 8001f86:	426d      	negs	r5, r5
 8001f88:	2201      	movs	r2, #1
 8001f8a:	1ad2      	subs	r2, r2, r3
 8001f8c:	2a38      	cmp	r2, #56	; 0x38
 8001f8e:	dd00      	ble.n	8001f92 <__aeabi_ddiv+0x3be>
 8001f90:	e674      	b.n	8001c7c <__aeabi_ddiv+0xa8>
 8001f92:	2a1f      	cmp	r2, #31
 8001f94:	dc00      	bgt.n	8001f98 <__aeabi_ddiv+0x3c4>
 8001f96:	e0bd      	b.n	8002114 <__aeabi_ddiv+0x540>
 8001f98:	211f      	movs	r1, #31
 8001f9a:	4249      	negs	r1, r1
 8001f9c:	1acb      	subs	r3, r1, r3
 8001f9e:	4641      	mov	r1, r8
 8001fa0:	40d9      	lsrs	r1, r3
 8001fa2:	000b      	movs	r3, r1
 8001fa4:	2a20      	cmp	r2, #32
 8001fa6:	d004      	beq.n	8001fb2 <__aeabi_ddiv+0x3de>
 8001fa8:	4641      	mov	r1, r8
 8001faa:	4a7e      	ldr	r2, [pc, #504]	; (80021a4 <__aeabi_ddiv+0x5d0>)
 8001fac:	445a      	add	r2, fp
 8001fae:	4091      	lsls	r1, r2
 8001fb0:	430d      	orrs	r5, r1
 8001fb2:	0029      	movs	r1, r5
 8001fb4:	1e4a      	subs	r2, r1, #1
 8001fb6:	4191      	sbcs	r1, r2
 8001fb8:	4319      	orrs	r1, r3
 8001fba:	2307      	movs	r3, #7
 8001fbc:	001d      	movs	r5, r3
 8001fbe:	2200      	movs	r2, #0
 8001fc0:	400d      	ands	r5, r1
 8001fc2:	420b      	tst	r3, r1
 8001fc4:	d100      	bne.n	8001fc8 <__aeabi_ddiv+0x3f4>
 8001fc6:	e0d0      	b.n	800216a <__aeabi_ddiv+0x596>
 8001fc8:	220f      	movs	r2, #15
 8001fca:	2300      	movs	r3, #0
 8001fcc:	400a      	ands	r2, r1
 8001fce:	2a04      	cmp	r2, #4
 8001fd0:	d100      	bne.n	8001fd4 <__aeabi_ddiv+0x400>
 8001fd2:	e0c7      	b.n	8002164 <__aeabi_ddiv+0x590>
 8001fd4:	1d0a      	adds	r2, r1, #4
 8001fd6:	428a      	cmp	r2, r1
 8001fd8:	4189      	sbcs	r1, r1
 8001fda:	4249      	negs	r1, r1
 8001fdc:	185b      	adds	r3, r3, r1
 8001fde:	0011      	movs	r1, r2
 8001fe0:	021a      	lsls	r2, r3, #8
 8001fe2:	d400      	bmi.n	8001fe6 <__aeabi_ddiv+0x412>
 8001fe4:	e0be      	b.n	8002164 <__aeabi_ddiv+0x590>
 8001fe6:	2301      	movs	r3, #1
 8001fe8:	2200      	movs	r2, #0
 8001fea:	2500      	movs	r5, #0
 8001fec:	e649      	b.n	8001c82 <__aeabi_ddiv+0xae>
 8001fee:	2280      	movs	r2, #128	; 0x80
 8001ff0:	4643      	mov	r3, r8
 8001ff2:	0312      	lsls	r2, r2, #12
 8001ff4:	4213      	tst	r3, r2
 8001ff6:	d008      	beq.n	800200a <__aeabi_ddiv+0x436>
 8001ff8:	4214      	tst	r4, r2
 8001ffa:	d106      	bne.n	800200a <__aeabi_ddiv+0x436>
 8001ffc:	4322      	orrs	r2, r4
 8001ffe:	0312      	lsls	r2, r2, #12
 8002000:	46ba      	mov	sl, r7
 8002002:	000d      	movs	r5, r1
 8002004:	4b66      	ldr	r3, [pc, #408]	; (80021a0 <__aeabi_ddiv+0x5cc>)
 8002006:	0b12      	lsrs	r2, r2, #12
 8002008:	e63b      	b.n	8001c82 <__aeabi_ddiv+0xae>
 800200a:	2280      	movs	r2, #128	; 0x80
 800200c:	4643      	mov	r3, r8
 800200e:	0312      	lsls	r2, r2, #12
 8002010:	431a      	orrs	r2, r3
 8002012:	0312      	lsls	r2, r2, #12
 8002014:	46b2      	mov	sl, r6
 8002016:	4b62      	ldr	r3, [pc, #392]	; (80021a0 <__aeabi_ddiv+0x5cc>)
 8002018:	0b12      	lsrs	r2, r2, #12
 800201a:	e632      	b.n	8001c82 <__aeabi_ddiv+0xae>
 800201c:	2b00      	cmp	r3, #0
 800201e:	d100      	bne.n	8002022 <__aeabi_ddiv+0x44e>
 8002020:	e702      	b.n	8001e28 <__aeabi_ddiv+0x254>
 8002022:	19a6      	adds	r6, r4, r6
 8002024:	1e6a      	subs	r2, r5, #1
 8002026:	42a6      	cmp	r6, r4
 8002028:	d200      	bcs.n	800202c <__aeabi_ddiv+0x458>
 800202a:	e089      	b.n	8002140 <__aeabi_ddiv+0x56c>
 800202c:	4286      	cmp	r6, r0
 800202e:	d200      	bcs.n	8002032 <__aeabi_ddiv+0x45e>
 8002030:	e09f      	b.n	8002172 <__aeabi_ddiv+0x59e>
 8002032:	d100      	bne.n	8002036 <__aeabi_ddiv+0x462>
 8002034:	e0af      	b.n	8002196 <__aeabi_ddiv+0x5c2>
 8002036:	0015      	movs	r5, r2
 8002038:	e6f4      	b.n	8001e24 <__aeabi_ddiv+0x250>
 800203a:	42a9      	cmp	r1, r5
 800203c:	d900      	bls.n	8002040 <__aeabi_ddiv+0x46c>
 800203e:	e63c      	b.n	8001cba <__aeabi_ddiv+0xe6>
 8002040:	4643      	mov	r3, r8
 8002042:	07de      	lsls	r6, r3, #31
 8002044:	0858      	lsrs	r0, r3, #1
 8002046:	086b      	lsrs	r3, r5, #1
 8002048:	431e      	orrs	r6, r3
 800204a:	07ed      	lsls	r5, r5, #31
 800204c:	e63c      	b.n	8001cc8 <__aeabi_ddiv+0xf4>
 800204e:	f001 f8a9 	bl	80031a4 <__clzsi2>
 8002052:	0001      	movs	r1, r0
 8002054:	0002      	movs	r2, r0
 8002056:	3115      	adds	r1, #21
 8002058:	3220      	adds	r2, #32
 800205a:	291c      	cmp	r1, #28
 800205c:	dc00      	bgt.n	8002060 <__aeabi_ddiv+0x48c>
 800205e:	e72c      	b.n	8001eba <__aeabi_ddiv+0x2e6>
 8002060:	464b      	mov	r3, r9
 8002062:	3808      	subs	r0, #8
 8002064:	4083      	lsls	r3, r0
 8002066:	2500      	movs	r5, #0
 8002068:	4698      	mov	r8, r3
 800206a:	e732      	b.n	8001ed2 <__aeabi_ddiv+0x2fe>
 800206c:	f001 f89a 	bl	80031a4 <__clzsi2>
 8002070:	0003      	movs	r3, r0
 8002072:	001a      	movs	r2, r3
 8002074:	3215      	adds	r2, #21
 8002076:	3020      	adds	r0, #32
 8002078:	2a1c      	cmp	r2, #28
 800207a:	dc00      	bgt.n	800207e <__aeabi_ddiv+0x4aa>
 800207c:	e6ff      	b.n	8001e7e <__aeabi_ddiv+0x2aa>
 800207e:	4654      	mov	r4, sl
 8002080:	3b08      	subs	r3, #8
 8002082:	2100      	movs	r1, #0
 8002084:	409c      	lsls	r4, r3
 8002086:	e705      	b.n	8001e94 <__aeabi_ddiv+0x2c0>
 8002088:	1936      	adds	r6, r6, r4
 800208a:	3b01      	subs	r3, #1
 800208c:	42b4      	cmp	r4, r6
 800208e:	d900      	bls.n	8002092 <__aeabi_ddiv+0x4be>
 8002090:	e6a6      	b.n	8001de0 <__aeabi_ddiv+0x20c>
 8002092:	42b2      	cmp	r2, r6
 8002094:	d800      	bhi.n	8002098 <__aeabi_ddiv+0x4c4>
 8002096:	e6a3      	b.n	8001de0 <__aeabi_ddiv+0x20c>
 8002098:	1e83      	subs	r3, r0, #2
 800209a:	1936      	adds	r6, r6, r4
 800209c:	e6a0      	b.n	8001de0 <__aeabi_ddiv+0x20c>
 800209e:	1909      	adds	r1, r1, r4
 80020a0:	3d01      	subs	r5, #1
 80020a2:	428c      	cmp	r4, r1
 80020a4:	d900      	bls.n	80020a8 <__aeabi_ddiv+0x4d4>
 80020a6:	e68d      	b.n	8001dc4 <__aeabi_ddiv+0x1f0>
 80020a8:	428a      	cmp	r2, r1
 80020aa:	d800      	bhi.n	80020ae <__aeabi_ddiv+0x4da>
 80020ac:	e68a      	b.n	8001dc4 <__aeabi_ddiv+0x1f0>
 80020ae:	1e85      	subs	r5, r0, #2
 80020b0:	1909      	adds	r1, r1, r4
 80020b2:	e687      	b.n	8001dc4 <__aeabi_ddiv+0x1f0>
 80020b4:	220f      	movs	r2, #15
 80020b6:	402a      	ands	r2, r5
 80020b8:	2a04      	cmp	r2, #4
 80020ba:	d100      	bne.n	80020be <__aeabi_ddiv+0x4ea>
 80020bc:	e6bc      	b.n	8001e38 <__aeabi_ddiv+0x264>
 80020be:	1d29      	adds	r1, r5, #4
 80020c0:	42a9      	cmp	r1, r5
 80020c2:	41ad      	sbcs	r5, r5
 80020c4:	426d      	negs	r5, r5
 80020c6:	08c9      	lsrs	r1, r1, #3
 80020c8:	44a8      	add	r8, r5
 80020ca:	e6b6      	b.n	8001e3a <__aeabi_ddiv+0x266>
 80020cc:	42af      	cmp	r7, r5
 80020ce:	d900      	bls.n	80020d2 <__aeabi_ddiv+0x4fe>
 80020d0:	e662      	b.n	8001d98 <__aeabi_ddiv+0x1c4>
 80020d2:	4281      	cmp	r1, r0
 80020d4:	d804      	bhi.n	80020e0 <__aeabi_ddiv+0x50c>
 80020d6:	d000      	beq.n	80020da <__aeabi_ddiv+0x506>
 80020d8:	e65e      	b.n	8001d98 <__aeabi_ddiv+0x1c4>
 80020da:	42ae      	cmp	r6, r5
 80020dc:	d800      	bhi.n	80020e0 <__aeabi_ddiv+0x50c>
 80020de:	e65b      	b.n	8001d98 <__aeabi_ddiv+0x1c4>
 80020e0:	2302      	movs	r3, #2
 80020e2:	425b      	negs	r3, r3
 80020e4:	469c      	mov	ip, r3
 80020e6:	9b00      	ldr	r3, [sp, #0]
 80020e8:	44e0      	add	r8, ip
 80020ea:	469c      	mov	ip, r3
 80020ec:	4465      	add	r5, ip
 80020ee:	429d      	cmp	r5, r3
 80020f0:	419b      	sbcs	r3, r3
 80020f2:	425b      	negs	r3, r3
 80020f4:	191b      	adds	r3, r3, r4
 80020f6:	18c0      	adds	r0, r0, r3
 80020f8:	e64f      	b.n	8001d9a <__aeabi_ddiv+0x1c6>
 80020fa:	42b2      	cmp	r2, r6
 80020fc:	d800      	bhi.n	8002100 <__aeabi_ddiv+0x52c>
 80020fe:	e612      	b.n	8001d26 <__aeabi_ddiv+0x152>
 8002100:	1e83      	subs	r3, r0, #2
 8002102:	1936      	adds	r6, r6, r4
 8002104:	e60f      	b.n	8001d26 <__aeabi_ddiv+0x152>
 8002106:	428a      	cmp	r2, r1
 8002108:	d800      	bhi.n	800210c <__aeabi_ddiv+0x538>
 800210a:	e5fa      	b.n	8001d02 <__aeabi_ddiv+0x12e>
 800210c:	1e83      	subs	r3, r0, #2
 800210e:	4698      	mov	r8, r3
 8002110:	1909      	adds	r1, r1, r4
 8002112:	e5f6      	b.n	8001d02 <__aeabi_ddiv+0x12e>
 8002114:	4b24      	ldr	r3, [pc, #144]	; (80021a8 <__aeabi_ddiv+0x5d4>)
 8002116:	0028      	movs	r0, r5
 8002118:	445b      	add	r3, fp
 800211a:	4641      	mov	r1, r8
 800211c:	409d      	lsls	r5, r3
 800211e:	4099      	lsls	r1, r3
 8002120:	40d0      	lsrs	r0, r2
 8002122:	1e6b      	subs	r3, r5, #1
 8002124:	419d      	sbcs	r5, r3
 8002126:	4643      	mov	r3, r8
 8002128:	4301      	orrs	r1, r0
 800212a:	4329      	orrs	r1, r5
 800212c:	40d3      	lsrs	r3, r2
 800212e:	074a      	lsls	r2, r1, #29
 8002130:	d100      	bne.n	8002134 <__aeabi_ddiv+0x560>
 8002132:	e755      	b.n	8001fe0 <__aeabi_ddiv+0x40c>
 8002134:	220f      	movs	r2, #15
 8002136:	400a      	ands	r2, r1
 8002138:	2a04      	cmp	r2, #4
 800213a:	d000      	beq.n	800213e <__aeabi_ddiv+0x56a>
 800213c:	e74a      	b.n	8001fd4 <__aeabi_ddiv+0x400>
 800213e:	e74f      	b.n	8001fe0 <__aeabi_ddiv+0x40c>
 8002140:	0015      	movs	r5, r2
 8002142:	4286      	cmp	r6, r0
 8002144:	d000      	beq.n	8002148 <__aeabi_ddiv+0x574>
 8002146:	e66d      	b.n	8001e24 <__aeabi_ddiv+0x250>
 8002148:	9a00      	ldr	r2, [sp, #0]
 800214a:	429a      	cmp	r2, r3
 800214c:	d000      	beq.n	8002150 <__aeabi_ddiv+0x57c>
 800214e:	e669      	b.n	8001e24 <__aeabi_ddiv+0x250>
 8002150:	e66a      	b.n	8001e28 <__aeabi_ddiv+0x254>
 8002152:	4b16      	ldr	r3, [pc, #88]	; (80021ac <__aeabi_ddiv+0x5d8>)
 8002154:	445b      	add	r3, fp
 8002156:	2b00      	cmp	r3, #0
 8002158:	dc00      	bgt.n	800215c <__aeabi_ddiv+0x588>
 800215a:	e713      	b.n	8001f84 <__aeabi_ddiv+0x3b0>
 800215c:	2501      	movs	r5, #1
 800215e:	2100      	movs	r1, #0
 8002160:	44a8      	add	r8, r5
 8002162:	e66a      	b.n	8001e3a <__aeabi_ddiv+0x266>
 8002164:	075d      	lsls	r5, r3, #29
 8002166:	025b      	lsls	r3, r3, #9
 8002168:	0b1a      	lsrs	r2, r3, #12
 800216a:	08c9      	lsrs	r1, r1, #3
 800216c:	2300      	movs	r3, #0
 800216e:	430d      	orrs	r5, r1
 8002170:	e587      	b.n	8001c82 <__aeabi_ddiv+0xae>
 8002172:	9900      	ldr	r1, [sp, #0]
 8002174:	3d02      	subs	r5, #2
 8002176:	004a      	lsls	r2, r1, #1
 8002178:	428a      	cmp	r2, r1
 800217a:	41bf      	sbcs	r7, r7
 800217c:	427f      	negs	r7, r7
 800217e:	193f      	adds	r7, r7, r4
 8002180:	19f6      	adds	r6, r6, r7
 8002182:	9200      	str	r2, [sp, #0]
 8002184:	e7dd      	b.n	8002142 <__aeabi_ddiv+0x56e>
 8002186:	2280      	movs	r2, #128	; 0x80
 8002188:	4643      	mov	r3, r8
 800218a:	0312      	lsls	r2, r2, #12
 800218c:	431a      	orrs	r2, r3
 800218e:	0312      	lsls	r2, r2, #12
 8002190:	4b03      	ldr	r3, [pc, #12]	; (80021a0 <__aeabi_ddiv+0x5cc>)
 8002192:	0b12      	lsrs	r2, r2, #12
 8002194:	e575      	b.n	8001c82 <__aeabi_ddiv+0xae>
 8002196:	9900      	ldr	r1, [sp, #0]
 8002198:	4299      	cmp	r1, r3
 800219a:	d3ea      	bcc.n	8002172 <__aeabi_ddiv+0x59e>
 800219c:	0015      	movs	r5, r2
 800219e:	e7d3      	b.n	8002148 <__aeabi_ddiv+0x574>
 80021a0:	000007ff 	.word	0x000007ff
 80021a4:	0000043e 	.word	0x0000043e
 80021a8:	0000041e 	.word	0x0000041e
 80021ac:	000003ff 	.word	0x000003ff

080021b0 <__eqdf2>:
 80021b0:	b5f0      	push	{r4, r5, r6, r7, lr}
 80021b2:	464e      	mov	r6, r9
 80021b4:	4645      	mov	r5, r8
 80021b6:	46de      	mov	lr, fp
 80021b8:	4657      	mov	r7, sl
 80021ba:	4690      	mov	r8, r2
 80021bc:	b5e0      	push	{r5, r6, r7, lr}
 80021be:	0017      	movs	r7, r2
 80021c0:	031a      	lsls	r2, r3, #12
 80021c2:	0b12      	lsrs	r2, r2, #12
 80021c4:	0005      	movs	r5, r0
 80021c6:	4684      	mov	ip, r0
 80021c8:	4819      	ldr	r0, [pc, #100]	; (8002230 <__eqdf2+0x80>)
 80021ca:	030e      	lsls	r6, r1, #12
 80021cc:	004c      	lsls	r4, r1, #1
 80021ce:	4691      	mov	r9, r2
 80021d0:	005a      	lsls	r2, r3, #1
 80021d2:	0fdb      	lsrs	r3, r3, #31
 80021d4:	469b      	mov	fp, r3
 80021d6:	0b36      	lsrs	r6, r6, #12
 80021d8:	0d64      	lsrs	r4, r4, #21
 80021da:	0fc9      	lsrs	r1, r1, #31
 80021dc:	0d52      	lsrs	r2, r2, #21
 80021de:	4284      	cmp	r4, r0
 80021e0:	d019      	beq.n	8002216 <__eqdf2+0x66>
 80021e2:	4282      	cmp	r2, r0
 80021e4:	d010      	beq.n	8002208 <__eqdf2+0x58>
 80021e6:	2001      	movs	r0, #1
 80021e8:	4294      	cmp	r4, r2
 80021ea:	d10e      	bne.n	800220a <__eqdf2+0x5a>
 80021ec:	454e      	cmp	r6, r9
 80021ee:	d10c      	bne.n	800220a <__eqdf2+0x5a>
 80021f0:	2001      	movs	r0, #1
 80021f2:	45c4      	cmp	ip, r8
 80021f4:	d109      	bne.n	800220a <__eqdf2+0x5a>
 80021f6:	4559      	cmp	r1, fp
 80021f8:	d017      	beq.n	800222a <__eqdf2+0x7a>
 80021fa:	2c00      	cmp	r4, #0
 80021fc:	d105      	bne.n	800220a <__eqdf2+0x5a>
 80021fe:	0030      	movs	r0, r6
 8002200:	4328      	orrs	r0, r5
 8002202:	1e43      	subs	r3, r0, #1
 8002204:	4198      	sbcs	r0, r3
 8002206:	e000      	b.n	800220a <__eqdf2+0x5a>
 8002208:	2001      	movs	r0, #1
 800220a:	bcf0      	pop	{r4, r5, r6, r7}
 800220c:	46bb      	mov	fp, r7
 800220e:	46b2      	mov	sl, r6
 8002210:	46a9      	mov	r9, r5
 8002212:	46a0      	mov	r8, r4
 8002214:	bdf0      	pop	{r4, r5, r6, r7, pc}
 8002216:	0033      	movs	r3, r6
 8002218:	2001      	movs	r0, #1
 800221a:	432b      	orrs	r3, r5
 800221c:	d1f5      	bne.n	800220a <__eqdf2+0x5a>
 800221e:	42a2      	cmp	r2, r4
 8002220:	d1f3      	bne.n	800220a <__eqdf2+0x5a>
 8002222:	464b      	mov	r3, r9
 8002224:	433b      	orrs	r3, r7
 8002226:	d1f0      	bne.n	800220a <__eqdf2+0x5a>
 8002228:	e7e2      	b.n	80021f0 <__eqdf2+0x40>
 800222a:	2000      	movs	r0, #0
 800222c:	e7ed      	b.n	800220a <__eqdf2+0x5a>
 800222e:	46c0      	nop			; (mov r8, r8)
 8002230:	000007ff 	.word	0x000007ff

08002234 <__gedf2>:
 8002234:	b5f0      	push	{r4, r5, r6, r7, lr}
 8002236:	4647      	mov	r7, r8
 8002238:	46ce      	mov	lr, r9
 800223a:	0004      	movs	r4, r0
 800223c:	0018      	movs	r0, r3
 800223e:	0016      	movs	r6, r2
 8002240:	031b      	lsls	r3, r3, #12
 8002242:	0b1b      	lsrs	r3, r3, #12
 8002244:	4d2d      	ldr	r5, [pc, #180]	; (80022fc <__gedf2+0xc8>)
 8002246:	004a      	lsls	r2, r1, #1
 8002248:	4699      	mov	r9, r3
 800224a:	b580      	push	{r7, lr}
 800224c:	0043      	lsls	r3, r0, #1
 800224e:	030f      	lsls	r7, r1, #12
 8002250:	46a4      	mov	ip, r4
 8002252:	46b0      	mov	r8, r6
 8002254:	0b3f      	lsrs	r7, r7, #12
 8002256:	0d52      	lsrs	r2, r2, #21
 8002258:	0fc9      	lsrs	r1, r1, #31
 800225a:	0d5b      	lsrs	r3, r3, #21
 800225c:	0fc0      	lsrs	r0, r0, #31
 800225e:	42aa      	cmp	r2, r5
 8002260:	d021      	beq.n	80022a6 <__gedf2+0x72>
 8002262:	42ab      	cmp	r3, r5
 8002264:	d013      	beq.n	800228e <__gedf2+0x5a>
 8002266:	2a00      	cmp	r2, #0
 8002268:	d122      	bne.n	80022b0 <__gedf2+0x7c>
 800226a:	433c      	orrs	r4, r7
 800226c:	2b00      	cmp	r3, #0
 800226e:	d102      	bne.n	8002276 <__gedf2+0x42>
 8002270:	464d      	mov	r5, r9
 8002272:	432e      	orrs	r6, r5
 8002274:	d022      	beq.n	80022bc <__gedf2+0x88>
 8002276:	2c00      	cmp	r4, #0
 8002278:	d010      	beq.n	800229c <__gedf2+0x68>
 800227a:	4281      	cmp	r1, r0
 800227c:	d022      	beq.n	80022c4 <__gedf2+0x90>
 800227e:	2002      	movs	r0, #2
 8002280:	3901      	subs	r1, #1
 8002282:	4008      	ands	r0, r1
 8002284:	3801      	subs	r0, #1
 8002286:	bcc0      	pop	{r6, r7}
 8002288:	46b9      	mov	r9, r7
 800228a:	46b0      	mov	r8, r6
 800228c:	bdf0      	pop	{r4, r5, r6, r7, pc}
 800228e:	464d      	mov	r5, r9
 8002290:	432e      	orrs	r6, r5
 8002292:	d129      	bne.n	80022e8 <__gedf2+0xb4>
 8002294:	2a00      	cmp	r2, #0
 8002296:	d1f0      	bne.n	800227a <__gedf2+0x46>
 8002298:	433c      	orrs	r4, r7
 800229a:	d1ee      	bne.n	800227a <__gedf2+0x46>
 800229c:	2800      	cmp	r0, #0
 800229e:	d1f2      	bne.n	8002286 <__gedf2+0x52>
 80022a0:	2001      	movs	r0, #1
 80022a2:	4240      	negs	r0, r0
 80022a4:	e7ef      	b.n	8002286 <__gedf2+0x52>
 80022a6:	003d      	movs	r5, r7
 80022a8:	4325      	orrs	r5, r4
 80022aa:	d11d      	bne.n	80022e8 <__gedf2+0xb4>
 80022ac:	4293      	cmp	r3, r2
 80022ae:	d0ee      	beq.n	800228e <__gedf2+0x5a>
 80022b0:	2b00      	cmp	r3, #0
 80022b2:	d1e2      	bne.n	800227a <__gedf2+0x46>
 80022b4:	464c      	mov	r4, r9
 80022b6:	4326      	orrs	r6, r4
 80022b8:	d1df      	bne.n	800227a <__gedf2+0x46>
 80022ba:	e7e0      	b.n	800227e <__gedf2+0x4a>
 80022bc:	2000      	movs	r0, #0
 80022be:	2c00      	cmp	r4, #0
 80022c0:	d0e1      	beq.n	8002286 <__gedf2+0x52>
 80022c2:	e7dc      	b.n	800227e <__gedf2+0x4a>
 80022c4:	429a      	cmp	r2, r3
 80022c6:	dc0a      	bgt.n	80022de <__gedf2+0xaa>
 80022c8:	dbe8      	blt.n	800229c <__gedf2+0x68>
 80022ca:	454f      	cmp	r7, r9
 80022cc:	d8d7      	bhi.n	800227e <__gedf2+0x4a>
 80022ce:	d00e      	beq.n	80022ee <__gedf2+0xba>
 80022d0:	2000      	movs	r0, #0
 80022d2:	454f      	cmp	r7, r9
 80022d4:	d2d7      	bcs.n	8002286 <__gedf2+0x52>
 80022d6:	2900      	cmp	r1, #0
 80022d8:	d0e2      	beq.n	80022a0 <__gedf2+0x6c>
 80022da:	0008      	movs	r0, r1
 80022dc:	e7d3      	b.n	8002286 <__gedf2+0x52>
 80022de:	4243      	negs	r3, r0
 80022e0:	4158      	adcs	r0, r3
 80022e2:	0040      	lsls	r0, r0, #1
 80022e4:	3801      	subs	r0, #1
 80022e6:	e7ce      	b.n	8002286 <__gedf2+0x52>
 80022e8:	2002      	movs	r0, #2
 80022ea:	4240      	negs	r0, r0
 80022ec:	e7cb      	b.n	8002286 <__gedf2+0x52>
 80022ee:	45c4      	cmp	ip, r8
 80022f0:	d8c5      	bhi.n	800227e <__gedf2+0x4a>
 80022f2:	2000      	movs	r0, #0
 80022f4:	45c4      	cmp	ip, r8
 80022f6:	d2c6      	bcs.n	8002286 <__gedf2+0x52>
 80022f8:	e7ed      	b.n	80022d6 <__gedf2+0xa2>
 80022fa:	46c0      	nop			; (mov r8, r8)
 80022fc:	000007ff 	.word	0x000007ff

08002300 <__ledf2>:
 8002300:	b5f0      	push	{r4, r5, r6, r7, lr}
 8002302:	4647      	mov	r7, r8
 8002304:	46ce      	mov	lr, r9
 8002306:	0004      	movs	r4, r0
 8002308:	0018      	movs	r0, r3
 800230a:	0016      	movs	r6, r2
 800230c:	031b      	lsls	r3, r3, #12
 800230e:	0b1b      	lsrs	r3, r3, #12
 8002310:	4d2c      	ldr	r5, [pc, #176]	; (80023c4 <__ledf2+0xc4>)
 8002312:	004a      	lsls	r2, r1, #1
 8002314:	4699      	mov	r9, r3
 8002316:	b580      	push	{r7, lr}
 8002318:	0043      	lsls	r3, r0, #1
 800231a:	030f      	lsls	r7, r1, #12
 800231c:	46a4      	mov	ip, r4
 800231e:	46b0      	mov	r8, r6
 8002320:	0b3f      	lsrs	r7, r7, #12
 8002322:	0d52      	lsrs	r2, r2, #21
 8002324:	0fc9      	lsrs	r1, r1, #31
 8002326:	0d5b      	lsrs	r3, r3, #21
 8002328:	0fc0      	lsrs	r0, r0, #31
 800232a:	42aa      	cmp	r2, r5
 800232c:	d00d      	beq.n	800234a <__ledf2+0x4a>
 800232e:	42ab      	cmp	r3, r5
 8002330:	d010      	beq.n	8002354 <__ledf2+0x54>
 8002332:	2a00      	cmp	r2, #0
 8002334:	d127      	bne.n	8002386 <__ledf2+0x86>
 8002336:	433c      	orrs	r4, r7
 8002338:	2b00      	cmp	r3, #0
 800233a:	d111      	bne.n	8002360 <__ledf2+0x60>
 800233c:	464d      	mov	r5, r9
 800233e:	432e      	orrs	r6, r5
 8002340:	d10e      	bne.n	8002360 <__ledf2+0x60>
 8002342:	2000      	movs	r0, #0
 8002344:	2c00      	cmp	r4, #0
 8002346:	d015      	beq.n	8002374 <__ledf2+0x74>
 8002348:	e00e      	b.n	8002368 <__ledf2+0x68>
 800234a:	003d      	movs	r5, r7
 800234c:	4325      	orrs	r5, r4
 800234e:	d110      	bne.n	8002372 <__ledf2+0x72>
 8002350:	4293      	cmp	r3, r2
 8002352:	d118      	bne.n	8002386 <__ledf2+0x86>
 8002354:	464d      	mov	r5, r9
 8002356:	432e      	orrs	r6, r5
 8002358:	d10b      	bne.n	8002372 <__ledf2+0x72>
 800235a:	2a00      	cmp	r2, #0
 800235c:	d102      	bne.n	8002364 <__ledf2+0x64>
 800235e:	433c      	orrs	r4, r7
 8002360:	2c00      	cmp	r4, #0
 8002362:	d00b      	beq.n	800237c <__ledf2+0x7c>
 8002364:	4281      	cmp	r1, r0
 8002366:	d014      	beq.n	8002392 <__ledf2+0x92>
 8002368:	2002      	movs	r0, #2
 800236a:	3901      	subs	r1, #1
 800236c:	4008      	ands	r0, r1
 800236e:	3801      	subs	r0, #1
 8002370:	e000      	b.n	8002374 <__ledf2+0x74>
 8002372:	2002      	movs	r0, #2
 8002374:	bcc0      	pop	{r6, r7}
 8002376:	46b9      	mov	r9, r7
 8002378:	46b0      	mov	r8, r6
 800237a:	bdf0      	pop	{r4, r5, r6, r7, pc}
 800237c:	2800      	cmp	r0, #0
 800237e:	d1f9      	bne.n	8002374 <__ledf2+0x74>
 8002380:	2001      	movs	r0, #1
 8002382:	4240      	negs	r0, r0
 8002384:	e7f6      	b.n	8002374 <__ledf2+0x74>
 8002386:	2b00      	cmp	r3, #0
 8002388:	d1ec      	bne.n	8002364 <__ledf2+0x64>
 800238a:	464c      	mov	r4, r9
 800238c:	4326      	orrs	r6, r4
 800238e:	d1e9      	bne.n	8002364 <__ledf2+0x64>
 8002390:	e7ea      	b.n	8002368 <__ledf2+0x68>
 8002392:	429a      	cmp	r2, r3
 8002394:	dd04      	ble.n	80023a0 <__ledf2+0xa0>
 8002396:	4243      	negs	r3, r0
 8002398:	4158      	adcs	r0, r3
 800239a:	0040      	lsls	r0, r0, #1
 800239c:	3801      	subs	r0, #1
 800239e:	e7e9      	b.n	8002374 <__ledf2+0x74>
 80023a0:	429a      	cmp	r2, r3
 80023a2:	dbeb      	blt.n	800237c <__ledf2+0x7c>
 80023a4:	454f      	cmp	r7, r9
 80023a6:	d8df      	bhi.n	8002368 <__ledf2+0x68>
 80023a8:	d006      	beq.n	80023b8 <__ledf2+0xb8>
 80023aa:	2000      	movs	r0, #0
 80023ac:	454f      	cmp	r7, r9
 80023ae:	d2e1      	bcs.n	8002374 <__ledf2+0x74>
 80023b0:	2900      	cmp	r1, #0
 80023b2:	d0e5      	beq.n	8002380 <__ledf2+0x80>
 80023b4:	0008      	movs	r0, r1
 80023b6:	e7dd      	b.n	8002374 <__ledf2+0x74>
 80023b8:	45c4      	cmp	ip, r8
 80023ba:	d8d5      	bhi.n	8002368 <__ledf2+0x68>
 80023bc:	2000      	movs	r0, #0
 80023be:	45c4      	cmp	ip, r8
 80023c0:	d2d8      	bcs.n	8002374 <__ledf2+0x74>
 80023c2:	e7f5      	b.n	80023b0 <__ledf2+0xb0>
 80023c4:	000007ff 	.word	0x000007ff

080023c8 <__aeabi_dmul>:
 80023c8:	b5f0      	push	{r4, r5, r6, r7, lr}
 80023ca:	4645      	mov	r5, r8
 80023cc:	46de      	mov	lr, fp
 80023ce:	4657      	mov	r7, sl
 80023d0:	464e      	mov	r6, r9
 80023d2:	b5e0      	push	{r5, r6, r7, lr}
 80023d4:	001f      	movs	r7, r3
 80023d6:	030b      	lsls	r3, r1, #12
 80023d8:	0b1b      	lsrs	r3, r3, #12
 80023da:	469b      	mov	fp, r3
 80023dc:	004d      	lsls	r5, r1, #1
 80023de:	0fcb      	lsrs	r3, r1, #31
 80023e0:	0004      	movs	r4, r0
 80023e2:	4691      	mov	r9, r2
 80023e4:	4698      	mov	r8, r3
 80023e6:	b087      	sub	sp, #28
 80023e8:	0d6d      	lsrs	r5, r5, #21
 80023ea:	d100      	bne.n	80023ee <__aeabi_dmul+0x26>
 80023ec:	e1cd      	b.n	800278a <__aeabi_dmul+0x3c2>
 80023ee:	4bce      	ldr	r3, [pc, #824]	; (8002728 <__aeabi_dmul+0x360>)
 80023f0:	429d      	cmp	r5, r3
 80023f2:	d100      	bne.n	80023f6 <__aeabi_dmul+0x2e>
 80023f4:	e1e9      	b.n	80027ca <__aeabi_dmul+0x402>
 80023f6:	465a      	mov	r2, fp
 80023f8:	0f43      	lsrs	r3, r0, #29
 80023fa:	00d2      	lsls	r2, r2, #3
 80023fc:	4313      	orrs	r3, r2
 80023fe:	2280      	movs	r2, #128	; 0x80
 8002400:	0412      	lsls	r2, r2, #16
 8002402:	431a      	orrs	r2, r3
 8002404:	00c3      	lsls	r3, r0, #3
 8002406:	469a      	mov	sl, r3
 8002408:	4bc8      	ldr	r3, [pc, #800]	; (800272c <__aeabi_dmul+0x364>)
 800240a:	4693      	mov	fp, r2
 800240c:	469c      	mov	ip, r3
 800240e:	2300      	movs	r3, #0
 8002410:	2600      	movs	r6, #0
 8002412:	4465      	add	r5, ip
 8002414:	9300      	str	r3, [sp, #0]
 8002416:	033c      	lsls	r4, r7, #12
 8002418:	007b      	lsls	r3, r7, #1
 800241a:	4648      	mov	r0, r9
 800241c:	0b24      	lsrs	r4, r4, #12
 800241e:	0d5b      	lsrs	r3, r3, #21
 8002420:	0fff      	lsrs	r7, r7, #31
 8002422:	2b00      	cmp	r3, #0
 8002424:	d100      	bne.n	8002428 <__aeabi_dmul+0x60>
 8002426:	e189      	b.n	800273c <__aeabi_dmul+0x374>
 8002428:	4abf      	ldr	r2, [pc, #764]	; (8002728 <__aeabi_dmul+0x360>)
 800242a:	4293      	cmp	r3, r2
 800242c:	d019      	beq.n	8002462 <__aeabi_dmul+0x9a>
 800242e:	0f42      	lsrs	r2, r0, #29
 8002430:	00e4      	lsls	r4, r4, #3
 8002432:	4322      	orrs	r2, r4
 8002434:	2480      	movs	r4, #128	; 0x80
 8002436:	0424      	lsls	r4, r4, #16
 8002438:	4314      	orrs	r4, r2
 800243a:	4abc      	ldr	r2, [pc, #752]	; (800272c <__aeabi_dmul+0x364>)
 800243c:	2100      	movs	r1, #0
 800243e:	4694      	mov	ip, r2
 8002440:	4642      	mov	r2, r8
 8002442:	4463      	add	r3, ip
 8002444:	195b      	adds	r3, r3, r5
 8002446:	9301      	str	r3, [sp, #4]
 8002448:	9b01      	ldr	r3, [sp, #4]
 800244a:	407a      	eors	r2, r7
 800244c:	3301      	adds	r3, #1
 800244e:	00c0      	lsls	r0, r0, #3
 8002450:	b2d2      	uxtb	r2, r2
 8002452:	9302      	str	r3, [sp, #8]
 8002454:	2e0a      	cmp	r6, #10
 8002456:	dd1c      	ble.n	8002492 <__aeabi_dmul+0xca>
 8002458:	003a      	movs	r2, r7
 800245a:	2e0b      	cmp	r6, #11
 800245c:	d05e      	beq.n	800251c <__aeabi_dmul+0x154>
 800245e:	4647      	mov	r7, r8
 8002460:	e056      	b.n	8002510 <__aeabi_dmul+0x148>
 8002462:	4649      	mov	r1, r9
 8002464:	4bb0      	ldr	r3, [pc, #704]	; (8002728 <__aeabi_dmul+0x360>)
 8002466:	4321      	orrs	r1, r4
 8002468:	18eb      	adds	r3, r5, r3
 800246a:	9301      	str	r3, [sp, #4]
 800246c:	2900      	cmp	r1, #0
 800246e:	d12a      	bne.n	80024c6 <__aeabi_dmul+0xfe>
 8002470:	2080      	movs	r0, #128	; 0x80
 8002472:	2202      	movs	r2, #2
 8002474:	0100      	lsls	r0, r0, #4
 8002476:	002b      	movs	r3, r5
 8002478:	4684      	mov	ip, r0
 800247a:	4316      	orrs	r6, r2
 800247c:	4642      	mov	r2, r8
 800247e:	4463      	add	r3, ip
 8002480:	407a      	eors	r2, r7
 8002482:	b2d2      	uxtb	r2, r2
 8002484:	9302      	str	r3, [sp, #8]
 8002486:	2e0a      	cmp	r6, #10
 8002488:	dd00      	ble.n	800248c <__aeabi_dmul+0xc4>
 800248a:	e231      	b.n	80028f0 <__aeabi_dmul+0x528>
 800248c:	2000      	movs	r0, #0
 800248e:	2400      	movs	r4, #0
 8002490:	2102      	movs	r1, #2
 8002492:	2e02      	cmp	r6, #2
 8002494:	dc26      	bgt.n	80024e4 <__aeabi_dmul+0x11c>
 8002496:	3e01      	subs	r6, #1
 8002498:	2e01      	cmp	r6, #1
 800249a:	d852      	bhi.n	8002542 <__aeabi_dmul+0x17a>
 800249c:	2902      	cmp	r1, #2
 800249e:	d04c      	beq.n	800253a <__aeabi_dmul+0x172>
 80024a0:	2901      	cmp	r1, #1
 80024a2:	d000      	beq.n	80024a6 <__aeabi_dmul+0xde>
 80024a4:	e118      	b.n	80026d8 <__aeabi_dmul+0x310>
 80024a6:	2300      	movs	r3, #0
 80024a8:	2400      	movs	r4, #0
 80024aa:	2500      	movs	r5, #0
 80024ac:	051b      	lsls	r3, r3, #20
 80024ae:	4323      	orrs	r3, r4
 80024b0:	07d2      	lsls	r2, r2, #31
 80024b2:	4313      	orrs	r3, r2
 80024b4:	0028      	movs	r0, r5
 80024b6:	0019      	movs	r1, r3
 80024b8:	b007      	add	sp, #28
 80024ba:	bcf0      	pop	{r4, r5, r6, r7}
 80024bc:	46bb      	mov	fp, r7
 80024be:	46b2      	mov	sl, r6
 80024c0:	46a9      	mov	r9, r5
 80024c2:	46a0      	mov	r8, r4
 80024c4:	bdf0      	pop	{r4, r5, r6, r7, pc}
 80024c6:	2180      	movs	r1, #128	; 0x80
 80024c8:	2203      	movs	r2, #3
 80024ca:	0109      	lsls	r1, r1, #4
 80024cc:	002b      	movs	r3, r5
 80024ce:	468c      	mov	ip, r1
 80024d0:	4316      	orrs	r6, r2
 80024d2:	4642      	mov	r2, r8
 80024d4:	4463      	add	r3, ip
 80024d6:	407a      	eors	r2, r7
 80024d8:	b2d2      	uxtb	r2, r2
 80024da:	9302      	str	r3, [sp, #8]
 80024dc:	2e0a      	cmp	r6, #10
 80024de:	dd00      	ble.n	80024e2 <__aeabi_dmul+0x11a>
 80024e0:	e228      	b.n	8002934 <__aeabi_dmul+0x56c>
 80024e2:	2103      	movs	r1, #3
 80024e4:	2501      	movs	r5, #1
 80024e6:	40b5      	lsls	r5, r6
 80024e8:	46ac      	mov	ip, r5
 80024ea:	26a6      	movs	r6, #166	; 0xa6
 80024ec:	4663      	mov	r3, ip
 80024ee:	00f6      	lsls	r6, r6, #3
 80024f0:	4035      	ands	r5, r6
 80024f2:	4233      	tst	r3, r6
 80024f4:	d10b      	bne.n	800250e <__aeabi_dmul+0x146>
 80024f6:	2690      	movs	r6, #144	; 0x90
 80024f8:	00b6      	lsls	r6, r6, #2
 80024fa:	4233      	tst	r3, r6
 80024fc:	d118      	bne.n	8002530 <__aeabi_dmul+0x168>
 80024fe:	3eb9      	subs	r6, #185	; 0xb9
 8002500:	3eff      	subs	r6, #255	; 0xff
 8002502:	421e      	tst	r6, r3
 8002504:	d01d      	beq.n	8002542 <__aeabi_dmul+0x17a>
 8002506:	46a3      	mov	fp, r4
 8002508:	4682      	mov	sl, r0
 800250a:	9100      	str	r1, [sp, #0]
 800250c:	e000      	b.n	8002510 <__aeabi_dmul+0x148>
 800250e:	0017      	movs	r7, r2
 8002510:	9900      	ldr	r1, [sp, #0]
 8002512:	003a      	movs	r2, r7
 8002514:	2902      	cmp	r1, #2
 8002516:	d010      	beq.n	800253a <__aeabi_dmul+0x172>
 8002518:	465c      	mov	r4, fp
 800251a:	4650      	mov	r0, sl
 800251c:	2903      	cmp	r1, #3
 800251e:	d1bf      	bne.n	80024a0 <__aeabi_dmul+0xd8>
 8002520:	2380      	movs	r3, #128	; 0x80
 8002522:	031b      	lsls	r3, r3, #12
 8002524:	431c      	orrs	r4, r3
 8002526:	0324      	lsls	r4, r4, #12
 8002528:	0005      	movs	r5, r0
 800252a:	4b7f      	ldr	r3, [pc, #508]	; (8002728 <__aeabi_dmul+0x360>)
 800252c:	0b24      	lsrs	r4, r4, #12
 800252e:	e7bd      	b.n	80024ac <__aeabi_dmul+0xe4>
 8002530:	2480      	movs	r4, #128	; 0x80
 8002532:	2200      	movs	r2, #0
 8002534:	4b7c      	ldr	r3, [pc, #496]	; (8002728 <__aeabi_dmul+0x360>)
 8002536:	0324      	lsls	r4, r4, #12
 8002538:	e7b8      	b.n	80024ac <__aeabi_dmul+0xe4>
 800253a:	2400      	movs	r4, #0
 800253c:	2500      	movs	r5, #0
 800253e:	4b7a      	ldr	r3, [pc, #488]	; (8002728 <__aeabi_dmul+0x360>)
 8002540:	e7b4      	b.n	80024ac <__aeabi_dmul+0xe4>
 8002542:	4653      	mov	r3, sl
 8002544:	041e      	lsls	r6, r3, #16
 8002546:	0c36      	lsrs	r6, r6, #16
 8002548:	0c1f      	lsrs	r7, r3, #16
 800254a:	0033      	movs	r3, r6
 800254c:	0c01      	lsrs	r1, r0, #16
 800254e:	0400      	lsls	r0, r0, #16
 8002550:	0c00      	lsrs	r0, r0, #16
 8002552:	4343      	muls	r3, r0
 8002554:	4698      	mov	r8, r3
 8002556:	0003      	movs	r3, r0
 8002558:	437b      	muls	r3, r7
 800255a:	4699      	mov	r9, r3
 800255c:	0033      	movs	r3, r6
 800255e:	434b      	muls	r3, r1
 8002560:	469c      	mov	ip, r3
 8002562:	4643      	mov	r3, r8
 8002564:	000d      	movs	r5, r1
 8002566:	0c1b      	lsrs	r3, r3, #16
 8002568:	469a      	mov	sl, r3
 800256a:	437d      	muls	r5, r7
 800256c:	44cc      	add	ip, r9
 800256e:	44d4      	add	ip, sl
 8002570:	9500      	str	r5, [sp, #0]
 8002572:	45e1      	cmp	r9, ip
 8002574:	d904      	bls.n	8002580 <__aeabi_dmul+0x1b8>
 8002576:	2380      	movs	r3, #128	; 0x80
 8002578:	025b      	lsls	r3, r3, #9
 800257a:	4699      	mov	r9, r3
 800257c:	444d      	add	r5, r9
 800257e:	9500      	str	r5, [sp, #0]
 8002580:	4663      	mov	r3, ip
 8002582:	0c1b      	lsrs	r3, r3, #16
 8002584:	001d      	movs	r5, r3
 8002586:	4663      	mov	r3, ip
 8002588:	041b      	lsls	r3, r3, #16
 800258a:	469c      	mov	ip, r3
 800258c:	4643      	mov	r3, r8
 800258e:	041b      	lsls	r3, r3, #16
 8002590:	0c1b      	lsrs	r3, r3, #16
 8002592:	4698      	mov	r8, r3
 8002594:	4663      	mov	r3, ip
 8002596:	4443      	add	r3, r8
 8002598:	9303      	str	r3, [sp, #12]
 800259a:	0c23      	lsrs	r3, r4, #16
 800259c:	4698      	mov	r8, r3
 800259e:	0033      	movs	r3, r6
 80025a0:	0424      	lsls	r4, r4, #16
 80025a2:	0c24      	lsrs	r4, r4, #16
 80025a4:	4363      	muls	r3, r4
 80025a6:	469c      	mov	ip, r3
 80025a8:	0023      	movs	r3, r4
 80025aa:	437b      	muls	r3, r7
 80025ac:	4699      	mov	r9, r3
 80025ae:	4643      	mov	r3, r8
 80025b0:	435e      	muls	r6, r3
 80025b2:	435f      	muls	r7, r3
 80025b4:	444e      	add	r6, r9
 80025b6:	4663      	mov	r3, ip
 80025b8:	46b2      	mov	sl, r6
 80025ba:	0c1e      	lsrs	r6, r3, #16
 80025bc:	4456      	add	r6, sl
 80025be:	45b1      	cmp	r9, r6
 80025c0:	d903      	bls.n	80025ca <__aeabi_dmul+0x202>
 80025c2:	2380      	movs	r3, #128	; 0x80
 80025c4:	025b      	lsls	r3, r3, #9
 80025c6:	4699      	mov	r9, r3
 80025c8:	444f      	add	r7, r9
 80025ca:	0c33      	lsrs	r3, r6, #16
 80025cc:	4699      	mov	r9, r3
 80025ce:	003b      	movs	r3, r7
 80025d0:	444b      	add	r3, r9
 80025d2:	9305      	str	r3, [sp, #20]
 80025d4:	4663      	mov	r3, ip
 80025d6:	46ac      	mov	ip, r5
 80025d8:	041f      	lsls	r7, r3, #16
 80025da:	0c3f      	lsrs	r7, r7, #16
 80025dc:	0436      	lsls	r6, r6, #16
 80025de:	19f6      	adds	r6, r6, r7
 80025e0:	44b4      	add	ip, r6
 80025e2:	4663      	mov	r3, ip
 80025e4:	9304      	str	r3, [sp, #16]
 80025e6:	465b      	mov	r3, fp
 80025e8:	0c1b      	lsrs	r3, r3, #16
 80025ea:	469c      	mov	ip, r3
 80025ec:	465b      	mov	r3, fp
 80025ee:	041f      	lsls	r7, r3, #16
 80025f0:	0c3f      	lsrs	r7, r7, #16
 80025f2:	003b      	movs	r3, r7
 80025f4:	4343      	muls	r3, r0
 80025f6:	4699      	mov	r9, r3
 80025f8:	4663      	mov	r3, ip
 80025fa:	4343      	muls	r3, r0
 80025fc:	469a      	mov	sl, r3
 80025fe:	464b      	mov	r3, r9
 8002600:	4660      	mov	r0, ip
 8002602:	0c1b      	lsrs	r3, r3, #16
 8002604:	469b      	mov	fp, r3
 8002606:	4348      	muls	r0, r1
 8002608:	4379      	muls	r1, r7
 800260a:	4451      	add	r1, sl
 800260c:	4459      	add	r1, fp
 800260e:	458a      	cmp	sl, r1
 8002610:	d903      	bls.n	800261a <__aeabi_dmul+0x252>
 8002612:	2380      	movs	r3, #128	; 0x80
 8002614:	025b      	lsls	r3, r3, #9
 8002616:	469a      	mov	sl, r3
 8002618:	4450      	add	r0, sl
 800261a:	0c0b      	lsrs	r3, r1, #16
 800261c:	469a      	mov	sl, r3
 800261e:	464b      	mov	r3, r9
 8002620:	041b      	lsls	r3, r3, #16
 8002622:	0c1b      	lsrs	r3, r3, #16
 8002624:	4699      	mov	r9, r3
 8002626:	003b      	movs	r3, r7
 8002628:	4363      	muls	r3, r4
 800262a:	0409      	lsls	r1, r1, #16
 800262c:	4645      	mov	r5, r8
 800262e:	4449      	add	r1, r9
 8002630:	4699      	mov	r9, r3
 8002632:	4663      	mov	r3, ip
 8002634:	435c      	muls	r4, r3
 8002636:	436b      	muls	r3, r5
 8002638:	469c      	mov	ip, r3
 800263a:	464b      	mov	r3, r9
 800263c:	0c1b      	lsrs	r3, r3, #16
 800263e:	4698      	mov	r8, r3
 8002640:	436f      	muls	r7, r5
 8002642:	193f      	adds	r7, r7, r4
 8002644:	4447      	add	r7, r8
 8002646:	4450      	add	r0, sl
 8002648:	42bc      	cmp	r4, r7
 800264a:	d903      	bls.n	8002654 <__aeabi_dmul+0x28c>
 800264c:	2380      	movs	r3, #128	; 0x80
 800264e:	025b      	lsls	r3, r3, #9
 8002650:	4698      	mov	r8, r3
 8002652:	44c4      	add	ip, r8
 8002654:	9b04      	ldr	r3, [sp, #16]
 8002656:	9d00      	ldr	r5, [sp, #0]
 8002658:	4698      	mov	r8, r3
 800265a:	4445      	add	r5, r8
 800265c:	42b5      	cmp	r5, r6
 800265e:	41b6      	sbcs	r6, r6
 8002660:	4273      	negs	r3, r6
 8002662:	4698      	mov	r8, r3
 8002664:	464b      	mov	r3, r9
 8002666:	041e      	lsls	r6, r3, #16
 8002668:	9b05      	ldr	r3, [sp, #20]
 800266a:	043c      	lsls	r4, r7, #16
 800266c:	4699      	mov	r9, r3
 800266e:	0c36      	lsrs	r6, r6, #16
 8002670:	19a4      	adds	r4, r4, r6
 8002672:	444c      	add	r4, r9
 8002674:	46a1      	mov	r9, r4
 8002676:	4683      	mov	fp, r0
 8002678:	186e      	adds	r6, r5, r1
 800267a:	44c1      	add	r9, r8
 800267c:	428e      	cmp	r6, r1
 800267e:	4189      	sbcs	r1, r1
 8002680:	44cb      	add	fp, r9
 8002682:	465d      	mov	r5, fp
 8002684:	4249      	negs	r1, r1
 8002686:	186d      	adds	r5, r5, r1
 8002688:	429c      	cmp	r4, r3
 800268a:	41a4      	sbcs	r4, r4
 800268c:	45c1      	cmp	r9, r8
 800268e:	419b      	sbcs	r3, r3
 8002690:	4583      	cmp	fp, r0
 8002692:	4180      	sbcs	r0, r0
 8002694:	428d      	cmp	r5, r1
 8002696:	4189      	sbcs	r1, r1
 8002698:	425b      	negs	r3, r3
 800269a:	4264      	negs	r4, r4
 800269c:	431c      	orrs	r4, r3
 800269e:	4240      	negs	r0, r0
 80026a0:	9b03      	ldr	r3, [sp, #12]
 80026a2:	4249      	negs	r1, r1
 80026a4:	4301      	orrs	r1, r0
 80026a6:	0270      	lsls	r0, r6, #9
 80026a8:	0c3f      	lsrs	r7, r7, #16
 80026aa:	4318      	orrs	r0, r3
 80026ac:	19e4      	adds	r4, r4, r7
 80026ae:	1e47      	subs	r7, r0, #1
 80026b0:	41b8      	sbcs	r0, r7
 80026b2:	1864      	adds	r4, r4, r1
 80026b4:	4464      	add	r4, ip
 80026b6:	0df6      	lsrs	r6, r6, #23
 80026b8:	0261      	lsls	r1, r4, #9
 80026ba:	4330      	orrs	r0, r6
 80026bc:	0dec      	lsrs	r4, r5, #23
 80026be:	026e      	lsls	r6, r5, #9
 80026c0:	430c      	orrs	r4, r1
 80026c2:	4330      	orrs	r0, r6
 80026c4:	01c9      	lsls	r1, r1, #7
 80026c6:	d400      	bmi.n	80026ca <__aeabi_dmul+0x302>
 80026c8:	e0f1      	b.n	80028ae <__aeabi_dmul+0x4e6>
 80026ca:	2101      	movs	r1, #1
 80026cc:	0843      	lsrs	r3, r0, #1
 80026ce:	4001      	ands	r1, r0
 80026d0:	430b      	orrs	r3, r1
 80026d2:	07e0      	lsls	r0, r4, #31
 80026d4:	4318      	orrs	r0, r3
 80026d6:	0864      	lsrs	r4, r4, #1
 80026d8:	4915      	ldr	r1, [pc, #84]	; (8002730 <__aeabi_dmul+0x368>)
 80026da:	9b02      	ldr	r3, [sp, #8]
 80026dc:	468c      	mov	ip, r1
 80026de:	4463      	add	r3, ip
 80026e0:	2b00      	cmp	r3, #0
 80026e2:	dc00      	bgt.n	80026e6 <__aeabi_dmul+0x31e>
 80026e4:	e097      	b.n	8002816 <__aeabi_dmul+0x44e>
 80026e6:	0741      	lsls	r1, r0, #29
 80026e8:	d009      	beq.n	80026fe <__aeabi_dmul+0x336>
 80026ea:	210f      	movs	r1, #15
 80026ec:	4001      	ands	r1, r0
 80026ee:	2904      	cmp	r1, #4
 80026f0:	d005      	beq.n	80026fe <__aeabi_dmul+0x336>
 80026f2:	1d01      	adds	r1, r0, #4
 80026f4:	4281      	cmp	r1, r0
 80026f6:	4180      	sbcs	r0, r0
 80026f8:	4240      	negs	r0, r0
 80026fa:	1824      	adds	r4, r4, r0
 80026fc:	0008      	movs	r0, r1
 80026fe:	01e1      	lsls	r1, r4, #7
 8002700:	d506      	bpl.n	8002710 <__aeabi_dmul+0x348>
 8002702:	2180      	movs	r1, #128	; 0x80
 8002704:	00c9      	lsls	r1, r1, #3
 8002706:	468c      	mov	ip, r1
 8002708:	4b0a      	ldr	r3, [pc, #40]	; (8002734 <__aeabi_dmul+0x36c>)
 800270a:	401c      	ands	r4, r3
 800270c:	9b02      	ldr	r3, [sp, #8]
 800270e:	4463      	add	r3, ip
 8002710:	4909      	ldr	r1, [pc, #36]	; (8002738 <__aeabi_dmul+0x370>)
 8002712:	428b      	cmp	r3, r1
 8002714:	dd00      	ble.n	8002718 <__aeabi_dmul+0x350>
 8002716:	e710      	b.n	800253a <__aeabi_dmul+0x172>
 8002718:	0761      	lsls	r1, r4, #29
 800271a:	08c5      	lsrs	r5, r0, #3
 800271c:	0264      	lsls	r4, r4, #9
 800271e:	055b      	lsls	r3, r3, #21
 8002720:	430d      	orrs	r5, r1
 8002722:	0b24      	lsrs	r4, r4, #12
 8002724:	0d5b      	lsrs	r3, r3, #21
 8002726:	e6c1      	b.n	80024ac <__aeabi_dmul+0xe4>
 8002728:	000007ff 	.word	0x000007ff
 800272c:	fffffc01 	.word	0xfffffc01
 8002730:	000003ff 	.word	0x000003ff
 8002734:	feffffff 	.word	0xfeffffff
 8002738:	000007fe 	.word	0x000007fe
 800273c:	464b      	mov	r3, r9
 800273e:	4323      	orrs	r3, r4
 8002740:	d059      	beq.n	80027f6 <__aeabi_dmul+0x42e>
 8002742:	2c00      	cmp	r4, #0
 8002744:	d100      	bne.n	8002748 <__aeabi_dmul+0x380>
 8002746:	e0a3      	b.n	8002890 <__aeabi_dmul+0x4c8>
 8002748:	0020      	movs	r0, r4
 800274a:	f000 fd2b 	bl	80031a4 <__clzsi2>
 800274e:	0001      	movs	r1, r0
 8002750:	0003      	movs	r3, r0
 8002752:	390b      	subs	r1, #11
 8002754:	221d      	movs	r2, #29
 8002756:	1a52      	subs	r2, r2, r1
 8002758:	4649      	mov	r1, r9
 800275a:	0018      	movs	r0, r3
 800275c:	40d1      	lsrs	r1, r2
 800275e:	464a      	mov	r2, r9
 8002760:	3808      	subs	r0, #8
 8002762:	4082      	lsls	r2, r0
 8002764:	4084      	lsls	r4, r0
 8002766:	0010      	movs	r0, r2
 8002768:	430c      	orrs	r4, r1
 800276a:	4a74      	ldr	r2, [pc, #464]	; (800293c <__aeabi_dmul+0x574>)
 800276c:	1aeb      	subs	r3, r5, r3
 800276e:	4694      	mov	ip, r2
 8002770:	4642      	mov	r2, r8
 8002772:	4463      	add	r3, ip
 8002774:	9301      	str	r3, [sp, #4]
 8002776:	9b01      	ldr	r3, [sp, #4]
 8002778:	407a      	eors	r2, r7
 800277a:	3301      	adds	r3, #1
 800277c:	2100      	movs	r1, #0
 800277e:	b2d2      	uxtb	r2, r2
 8002780:	9302      	str	r3, [sp, #8]
 8002782:	2e0a      	cmp	r6, #10
 8002784:	dd00      	ble.n	8002788 <__aeabi_dmul+0x3c0>
 8002786:	e667      	b.n	8002458 <__aeabi_dmul+0x90>
 8002788:	e683      	b.n	8002492 <__aeabi_dmul+0xca>
 800278a:	465b      	mov	r3, fp
 800278c:	4303      	orrs	r3, r0
 800278e:	469a      	mov	sl, r3
 8002790:	d02a      	beq.n	80027e8 <__aeabi_dmul+0x420>
 8002792:	465b      	mov	r3, fp
 8002794:	2b00      	cmp	r3, #0
 8002796:	d06d      	beq.n	8002874 <__aeabi_dmul+0x4ac>
 8002798:	4658      	mov	r0, fp
 800279a:	f000 fd03 	bl	80031a4 <__clzsi2>
 800279e:	0001      	movs	r1, r0
 80027a0:	0003      	movs	r3, r0
 80027a2:	390b      	subs	r1, #11
 80027a4:	221d      	movs	r2, #29
 80027a6:	1a52      	subs	r2, r2, r1
 80027a8:	0021      	movs	r1, r4
 80027aa:	0018      	movs	r0, r3
 80027ac:	465d      	mov	r5, fp
 80027ae:	40d1      	lsrs	r1, r2
 80027b0:	3808      	subs	r0, #8
 80027b2:	4085      	lsls	r5, r0
 80027b4:	000a      	movs	r2, r1
 80027b6:	4084      	lsls	r4, r0
 80027b8:	432a      	orrs	r2, r5
 80027ba:	4693      	mov	fp, r2
 80027bc:	46a2      	mov	sl, r4
 80027be:	4d5f      	ldr	r5, [pc, #380]	; (800293c <__aeabi_dmul+0x574>)
 80027c0:	2600      	movs	r6, #0
 80027c2:	1aed      	subs	r5, r5, r3
 80027c4:	2300      	movs	r3, #0
 80027c6:	9300      	str	r3, [sp, #0]
 80027c8:	e625      	b.n	8002416 <__aeabi_dmul+0x4e>
 80027ca:	465b      	mov	r3, fp
 80027cc:	4303      	orrs	r3, r0
 80027ce:	469a      	mov	sl, r3
 80027d0:	d105      	bne.n	80027de <__aeabi_dmul+0x416>
 80027d2:	2300      	movs	r3, #0
 80027d4:	469b      	mov	fp, r3
 80027d6:	3302      	adds	r3, #2
 80027d8:	2608      	movs	r6, #8
 80027da:	9300      	str	r3, [sp, #0]
 80027dc:	e61b      	b.n	8002416 <__aeabi_dmul+0x4e>
 80027de:	2303      	movs	r3, #3
 80027e0:	4682      	mov	sl, r0
 80027e2:	260c      	movs	r6, #12
 80027e4:	9300      	str	r3, [sp, #0]
 80027e6:	e616      	b.n	8002416 <__aeabi_dmul+0x4e>
 80027e8:	2300      	movs	r3, #0
 80027ea:	469b      	mov	fp, r3
 80027ec:	3301      	adds	r3, #1
 80027ee:	2604      	movs	r6, #4
 80027f0:	2500      	movs	r5, #0
 80027f2:	9300      	str	r3, [sp, #0]
 80027f4:	e60f      	b.n	8002416 <__aeabi_dmul+0x4e>
 80027f6:	4642      	mov	r2, r8
 80027f8:	3301      	adds	r3, #1
 80027fa:	9501      	str	r5, [sp, #4]
 80027fc:	431e      	orrs	r6, r3
 80027fe:	9b01      	ldr	r3, [sp, #4]
 8002800:	407a      	eors	r2, r7
 8002802:	3301      	adds	r3, #1
 8002804:	2400      	movs	r4, #0
 8002806:	2000      	movs	r0, #0
 8002808:	2101      	movs	r1, #1
 800280a:	b2d2      	uxtb	r2, r2
 800280c:	9302      	str	r3, [sp, #8]
 800280e:	2e0a      	cmp	r6, #10
 8002810:	dd00      	ble.n	8002814 <__aeabi_dmul+0x44c>
 8002812:	e621      	b.n	8002458 <__aeabi_dmul+0x90>
 8002814:	e63d      	b.n	8002492 <__aeabi_dmul+0xca>
 8002816:	2101      	movs	r1, #1
 8002818:	1ac9      	subs	r1, r1, r3
 800281a:	2938      	cmp	r1, #56	; 0x38
 800281c:	dd00      	ble.n	8002820 <__aeabi_dmul+0x458>
 800281e:	e642      	b.n	80024a6 <__aeabi_dmul+0xde>
 8002820:	291f      	cmp	r1, #31
 8002822:	dd47      	ble.n	80028b4 <__aeabi_dmul+0x4ec>
 8002824:	261f      	movs	r6, #31
 8002826:	0025      	movs	r5, r4
 8002828:	4276      	negs	r6, r6
 800282a:	1af3      	subs	r3, r6, r3
 800282c:	40dd      	lsrs	r5, r3
 800282e:	002b      	movs	r3, r5
 8002830:	2920      	cmp	r1, #32
 8002832:	d005      	beq.n	8002840 <__aeabi_dmul+0x478>
 8002834:	4942      	ldr	r1, [pc, #264]	; (8002940 <__aeabi_dmul+0x578>)
 8002836:	9d02      	ldr	r5, [sp, #8]
 8002838:	468c      	mov	ip, r1
 800283a:	4465      	add	r5, ip
 800283c:	40ac      	lsls	r4, r5
 800283e:	4320      	orrs	r0, r4
 8002840:	1e41      	subs	r1, r0, #1
 8002842:	4188      	sbcs	r0, r1
 8002844:	4318      	orrs	r0, r3
 8002846:	2307      	movs	r3, #7
 8002848:	001d      	movs	r5, r3
 800284a:	2400      	movs	r4, #0
 800284c:	4005      	ands	r5, r0
 800284e:	4203      	tst	r3, r0
 8002850:	d04a      	beq.n	80028e8 <__aeabi_dmul+0x520>
 8002852:	230f      	movs	r3, #15
 8002854:	2400      	movs	r4, #0
 8002856:	4003      	ands	r3, r0
 8002858:	2b04      	cmp	r3, #4
 800285a:	d042      	beq.n	80028e2 <__aeabi_dmul+0x51a>
 800285c:	1d03      	adds	r3, r0, #4
 800285e:	4283      	cmp	r3, r0
 8002860:	4180      	sbcs	r0, r0
 8002862:	4240      	negs	r0, r0
 8002864:	1824      	adds	r4, r4, r0
 8002866:	0018      	movs	r0, r3
 8002868:	0223      	lsls	r3, r4, #8
 800286a:	d53a      	bpl.n	80028e2 <__aeabi_dmul+0x51a>
